S011000073696E6520776176652E7372656391
S11300000C9465000C9477000C9477000C947700A2
S11300100C9477000C9477000C9477000C94770080
S11300200C9477000C9477000C9477000C94770070
S11300300C9477000C9477000C9477000C94770060
S11300400C9477000C941D010C9477000C947700A9
S11300500C9477000C9477000C9477000C94770040
S11300600C9477000C9477000C9477000C94770030
S11300700C9477000C9477000C9477000C94770020
S11300800C9477000C9477000C9477000C94770010
S11300900C9477000C9477000C9477000C94770000
S11300A00C9477000C9477000C94770005A84CCD41
S11300B0B2D44EB93836A9020C50B9918688083C9E
S11300C0A6AAAA2ABE000000803F11241FBECFEFBB
S11300D0DAE0DEBFCDBF21E0A0E0B1E001C01D92B7
S11300E0A430B207E1F70E9479000C94EA030C945F
S11300F00000E1E6F0E080E8808383E08083E1E8CB
S1130100F0E080818B7F8083808182608083808126
S11301108160808384E690E09093890080938800D6
S1130120808180618083808188608083E0E8F0E062
S1130130808182608083808181608083808180620D
S11301408083808180618083EFE6F0E0808182603B
S113015080837894269AC8E8D0E00AE810E06881A1
S11301607981C0900001D0900101E0900201F090EB
S1130170030180E090E00E944E02A70196010E94D4
S1130180DC0218160CF050C0E880F9808090000161
S113019090900101A0900201B090030168817981DF
S11301A080E090E00E944E029B01AC01C501B401C5
S11301B00E94BA019B01AC010E9456012AED3FE066
S11301C049E450E40E94E0020E9443034B015C01B5
S11301D0C880D980B70180E090E00E944E0220E000
S11301E030E040E05FE30E94E0022B013C01B601F5
S11301F080E090E00E944E029B01AC01C501B40175
S11302000E94E00220E030E040E05FE30E94E00270
S11302109B01AC01C301B2010E9456010E9422025B
S1130220F801718360839BCF109200011092010149
S1130230109202011092030192CF1F920F920FB6F7
S11302400F9211242F933F934F935F936F937F9358
S11302508F939F93AF93BF93EF93FF9360910001AC
S113026070910101809102019091030120E030E03E
S113027040E85FE30E94560160930001709301011E
S11302808093020190930301FF91EF91BF91AF918D
S11302909F918F917F916F915F914F913F912F919A
S11302A00F900FBE0F901F9018955058BB27AA2788
S11302B00ED048C139D130F03ED120F031F49F3F07
S11302C011F41EF42EC10EF4E095E7FB24C1E92FCE
S11302D04AD180F3BA17620773078407950718F0A9
S11302E071F49EF562C10EF4E0950B2EBA2FA02D89
S11302F00B01B90190010C01CA01A0011124FF27CF
S1130300591B99F0593F50F4503E68F11A16F040C9
S1130310A22F232F342F4427585FF3CF46953795C8
S11303202795A795F0405395C9F77EF41F16BA0B8D
S1130330620B730B840BBAF09150A1F0FF0FBB1F3B
S1130340661F771F881FC2F70EC0BA0F621F731F84
S1130350841F48F4879577956795B795F7959E3FE1
S113036008F0B3CF9395880F08F09927EE0F97956F
S1130370879508950CD0E6C0DED040F0D5D030F09B
S113038021F45F3F19F0C7C0511110C1CAC0EBD0AE
S113039098F39923C9F35523B1F3951B550BBB2748
S11303A0AA2762177307840738F09F5F5F4F220FF5
S11303B0331F441FAA1FA9F333D00E2E3AF0E0E8EE
S11303C030D091505040E695001CCAF729D0FE2F3A
S11303D027D0660F771F881FBB1F261737074807CC
S11303E0AB07B0E809F0BB0B802DBF01FF27935882
S11303F05F4F2AF09E3F510568F08DC0D7C05F3F24
S1130400ECF3983EDCF3869577956795B795F79569
S11304109F5FC9F7880F911D9695879597F9089561
S1130420E1E0660F771F881FBB1F621773078407FD
S1130430BA0720F0621B730B840BBA0BEE1F88F70C
S1130440E095089598D088F09F5790F0B92F992798
S1130450B751A0F0D1F0660F771F881F991F1AF0CB
S1130460BA95C9F712C0B13081F09FD0B1E00895B8
S11304709CC0672F782F8827B85F39F0B93FCCF339
S1130480869577956795B395D9F73EF490958095C1
S1130490709561957F4F8F4F9F4F0895E89409C0E1
S11304A097FB3EF490958095709561957F4F8F4FA3
S11304B09F4F9923A9F0F92F96E9BB279395F695B9
S11304C0879577956795B795F111F8CFFAF4BB0F37
S11304D011F460FF1BC06F5F7F4F8F4F9F4F16C09B
S11304E0882311F096E911C0772321F09EE8872F25
S11304F0762F05C0662371F096E8862F70E060E0E1
S11305002AF09A95660F771F881FDAF7880F969559
S1130510879597F9089597F99F6780E870E060E000
S113052008959FEF80EC089500240A941616170688
S113053018060906089500240A94121613061406D0
S113054005060895092E0394000C11F4882352F033
S1130550BB0F40F4BF2B11F460FF04C06F5F7F4FEB
S11305608F4F9F4F089557FD9058440F551F59F0D2
S11305705F3F71F04795880F97FB991F61F09F3F8C
S113058079F087950895121613061406551FF2CFB5
S11305904695F1DF08C0161617061806991FF1CF05
S11305A086957105610508940895E894BB2766272C
S11305B07727CB0197F908956CD008F48FEF08954D
S11305C00BD0C0CFB1DF28F0B6DF18F0952309F0C7
S11305D0A2CFA7CF1124EACFC6DFA0F3959FD1F312
S11305E0950F50E0551F629FF001729FBB27F00DDD
S11305F0B11D639FAA27F00DB11DAA1F649F662732
S1130600B00DA11D661F829F2227B00DA11D621F80
S1130610739FB00DA11D621F839FA00D611D221F3A
S1130620749F3327A00D611D231F849F600D211D1E
S1130630822F762F6A2F11249F5750408AF0E1F0C1
S113064088234AF0EE0FFF1FBB1F661F771F881F0A
S113065091505040A9F79E3F510570F05CCFA6CF52
S11306605F3FECF3983EDCF3869577956795B795F5
S1130670F795E7959F5FC1F7FE2B880F911D96951F
S1130680879597F908959F9329D00F9007FCEE5F03
S11306904CC0990F0008550FAA0BE0E8FEEF1616A0
S11306A01706E807F907C0F012161306E407F50762
S11306B098F0621B730B840B950B39F40A2661F0D6
S11306C0232B242B252B21F408950A2609F4A14079
S11306D0A6958FEF811D811D089523CF4CDFE8F38C
S11306E0E894E0E0BB279F57F0F02AED3FE049ECA7
S11306F006C0EE0FBB0F661F771F881F28F0B23AA3
S113070062077307840728F0B25A620B730B840BD9
S1130710E3959A9572F7803830F49A95BB0F661F6B
S1130720771F881FD2F7904813C0EF93E0FF06C0ED
S1130730A2EA2AED3FE049EC5FEBC9DD03DF0F904D
S1130740039401FC9058ECEAF0E00EC09F3F31F0B6
S1130750915020F4879577956795B795880F911DEB
S11307609695879597F908959F938F937F936F93A9
S1130770FF93EF939B01AC0123DFEF91FF9105D031
S11307802F913F914F915F911BCFDF93CF931F9395
S11307900F93FF92EF92DF927B018C01689405C066
S11307A0DA2EEF0119DFFE01E894A5912591359128
S11307B045915591AEF3EF018ADDFE019701A80141
S11307C0DA9479F7DF90EF90FF900F911F91CF911A
S10B07D0DF910895F894FFCFB6
S9030000FC
