:100000000C9419010C9436010C9436010C943601B1
:100010000C9436010C9436010C9436010C94360184
:100020000C9436010C9436010C94DA020C941803EB
:100030000C9436010C9436010C9436010C94360164
:100040000C9436010C9436010C9436010C94360154
:100050000C9436010C9436010C9436010C94360144
:100060000C9436010C9436010C9436010C94360134
:100070000C9436010C9436010C9436010C94360124
:100080000C9436010C9436010C9436010C94360114
:100090000C9436010C9436010C9436010C94360104
:1000A0000C9436010C9436010C943601496E766539
:1000B000727365200A00466F7277617264200A00CD
:1000C000092020446972656374696F6E204D323A6D
:1000D00000496E7665727365200020466F72776105
:1000E0007264200009446972656374696F6E204D03
:1000F000313A20000A000920204D32204F4352306F
:10010000423A004D31204F435231423A004D313A8C
:10011000747970652027312720617320696E6372BE
:1001200065617365203130252C20273227206173CB
:10013000206465637265617365203130252C20274A
:100140003327206173207265766572736520646958
:1001500072656374696F6E200A0050726573732054
:10016000616E79206B657920746F206B65657020F6
:1001700072656164696E672064617461200A0000C1
:1001800001000016021200020000D3014300030028
:1001900000CF010401030904BB011202030904B3E7
:1001A000010603030904A9010808033400310030E3
:1001B00000000006034D003200000012034A002E2A
:1001C0000020004600690065006E00650000000424
:1001D00003090409024300020100C03209040000BF
:1001E000010202010005240010010524010101049F
:1001F00024020605240600010705820310004009B9
:10020000040100020A000000070503024000000785
:100210000584024000001201000202000010C01616
:100220007A040001010203010001C11201803601BC
:10023000813611241FBECFEFDAE0DEBFCDBF11E063
:10024000A0E0B1E0E4E4FAE002C005900D92A8302D
:10025000B107D9F721E0A8E0B1E001C01D92A231B9
:10026000B207E1F70E9492010C9420050C94000063
:10027000209A289A219A299A8AEF90E090938900EF
:10028000809388008DE790E090938B0080938A00A4
:10029000E1E8F0E0808180618083808188608083F4
:1002A000A0E8B0E08C9182608C938C9181608C93FB
:1002B0008081806180838081886080838C9182606E
:1002C0008C938C9181608C938C9180628C938C91B7
:1002D0008F7E8C93269A80818B7F808380818D7F17
:1002E00080838081816080838AEF87BD8DE788BDB0
:1002F00085B5886085BD84B5826084BD84B5816024
:1003000084BD84B5806284BD84B58F7E84BD509ADF
:1003100085B58B7F85BD85B58D7F85BD85B58160B4
:1003200085BD0895E1E6F0E080E8808310826A9A56
:1003300072986E9A76980E9420020E943902882351
:10034000E1F36E9A769A8AE591E00E949D040E94FC
:100350005A028823E1F30E9469020E94380101E0F9
:1003600012E0CAE8D0E08DE091E00E949D040E9476
:100370005A028823E1F30E943C0280930C018333EC
:10038000C9F028F4813351F0823371F022C08436F1
:10039000E9F08337B9F08136E1F410C088819981A2
:1003A00049969983888315C0888199814997998353
:1003B00088830FC085B1802785B90BC088B5875E5B
:1003C00088BD07C088B5895188BD03C085B1812724
:1003D00085B983E091E00E949D04888199810E9403
:1003E000B70486EF90E00E949D0488B590E00E94DB
:1003F000B70484EF90E00E949D0485B190E00E94D4
:10040000B70484EE90E00E949D04289B05C08AED0D
:1004100090E00E949D0404C081ED90E00E949D0444
:1004200080EC90E00E949D04299B05C086EB90E043
:100430000E949D0498CF8CEA90E00E949D0493CF87
:1004400081E08093D70080EA8093D80082E189BD63
:1004500009B400FEFDCF80E98093D8001092E0003F
:1004600010920B01109208018CE08093E2007894C6
:10047000089580910B0108959FB7F89480910B0126
:10048000811103C09FBF8FEF089583E08093E9003F
:100490008091E80085FD03C09FBF8FEF0895809194
:1004A000F1002091E80025FD03C02BE62093E80031
:1004B0009FBF08959FB7F89480910B01882331F076
:1004C00083E08093E9008091F20001C080E09FBF4B
:1004D000089580910B01882389F02FB7F89483E069
:1004E0008093E9008091E80085FF07C0E8EEF0E026
:1004F0009BE69083808185FDFCCF2FBF0895CF932D
:10050000DF9390910B01992309F44CC09FB7F894A5
:1005100024E02093E90020910901222349F0209151
:10052000E80025FD03C09FBF8FEF41C01092090175
:100530003091E400375E2091E80025FD24C09FBF84
:100540009091E400931781F090910B01992361F150
:10055000A9EEB0E044E0E8EEF0E0C4EED0E00DC07B
:100560009FBF9881931305C081E0809309018FEFAD
:100570001EC090910B019923C9F09FB7F8944C933A
:10058000208125FFEDCF8093F1008091E80085FD6B
:1005900003C08AE38093E80085E080930A019FBF4F
:1005A00080E005C08FEF03C08FEF01C08FEFDF91B8
:1005B000CF9108951F920F920FB60F9211248F932F
:1005C0009F93EF93FF93E1EEF0E08081108283FF31
:1005D00011C01092E90091E09093EB001092EC00B2
:1005E00092E19093ED0098E09093F00010920B014F
:1005F0001092080182FF13C080910B01882379F0CB
:1006000080910A01882359F0815080930A01811159
:1006100006C084E08093E9008AE38093E800FF91BC
:10062000EF919F918F910F900FBE0F901F90189593
:100630001F920F920FB60F9211240F931F932F93B7
:100640003F934F935F936F937F938F939F93AF935A
:10065000BF93CF93DF93EF93FF931092E9008091C4
:10066000E80083FF4EC1E1EFF0E0C08140812081CE
:10067000808130E0382B8081508190E0BC01752B67
:10068000B081A08182EF8093E800463009F058C025
:1006900004C081E28093EB003BC1C6E08FE791E0AC
:1006A000FC01459154912417350711F0079623C09A
:1006B000FC013296459154916417750711F0079625
:1006C0001AC0FC01349625913491FC013696549160
:1006D0008B2F90E09A2B8F3F910519F010F08FEF40
:1006E00090E0851708F4582FA8EEB0E070E16EEFA7
:1006F000C1EFD0E003C0C15099F6CBCF8C91982FB9
:100700009570E1F382FD04C1452F513108F0472F68
:10071000442309F4FAC0F901842F949198838150FD
:1007200031968111FACF8FEF840F90E00196280F58
:10073000391F541B6C935111E1CF4031F9F2E8C0DD
:10074000453061F48EEF8093E800E8EEF0E08081C0
:1007500080FFFDCF20682093E300DAC0493009F024
:1007600036C0C1115FC020930B0110920801109296
:100770000A018EEF8093E80011E088E292E0C9EE72
:10078000D0E0ABEEB0E06CEE70E04DEE50E01883E0
:100790009C012F5F3F4FFC0104910C93002361F0FB
:1007A000F9012491FB0120839C012D5F3F4FFC0147
:1007B00032968491FA0180831F5F153011F0C901D0
:1007C000E6CFEAEEF0E08EE180831082A1C04830EF
:1007D00081F4C03809F042C0E8EEF0E0808180FF8B
:1007E000FDCF80910B018093F1008EEF8093E800A4
:1007F0008FC04132B9F4C13A09F040C0E8EEF0E0F0
:10080000808180FFFDCFE0E0F1E087E091E0A1EFA3
:10081000B0E021912C93E817F907D9F78EEF809378
:10082000E80076C04032D1F4C13209F043C0E8EEAE
:10083000F0E0808182FFFDCFE0E0F1E087E091E031
:10084000A1EFB0E02C912193E817F907D9F7E8EE72
:10085000F0E08BEF80838EEF80835AC0423271F4D8
:10086000C13209F04EC020930801E8EEF0E080812B
:1008700080FFFDCF8EEF8093E8004AC041111AC07F
:10088000E8EEF0E0808180FFFDCFC23851F4E9EE60
:10089000F0E060838091EB0085FB882780F910826F
:1008A00001C080E0E1EFF0E0808310828EEF809362
:1008B000E8002EC0842F8D7F813019F5C23009F5F4
:1008C000232BF9F46F778FEF860F8430D0F48EEFFF
:1008D0008093E8006093E900433021F481E2809343
:1008E000EB0016C089E18093EB0081E090E002C04C
:1008F000880F991F6A95E2F7EAEEF0E08083108294
:1009000007C081E28093EB0003C06C935111F6CED7
:10091000FF91EF91DF91CF91BF91AF919F918F9117
:100920007F916F915F914F913F912F911F910F9107
:100930000F900FBE0F901F9018951F93CF93DF93CA
:10094000EC012196FC011491112369F01A3019F47D
:100950008DE00E947F02812F0E947F02FE01149190
:1009600021961111F3CFDF91CF911F910895EF924E
:10097000FF920F931F93CF93DF93CDB7DEB72797E7
:100980000FB6F894DEBF0FBECDBF8E010F5F1F4FB5
:1009900027E0F80111922A95E9F74AE0B8010E9490
:1009A000EB047E01F8E0EF0EF11CF80181918F015C
:1009B00081110E947F020E151F05B9F727960FB609
:1009C000F894DEBF0FBECDBFDF91CF911F910F9185
:1009D000FF90EF900895BB274A3031F4992322F419
:1009E000BDE2909581959F4F0C94F704BB27FB01C6
:1009F0005527AA27880F991FAA1FA41710F0A41B18
:100A000083955051B9F7A05DAA3308F0A95DA19371
:100A1000009779F7B111B1931192CB010C941005A5
:100A2000DC01FC01672F71917723E1F7329704C055
:100A30007C916D9370836291AE17BF07C8F30895E0
:040A4000F894FFCF58
:080A440000E1000000000800C1
:00000001FF
