S00E00006D75736963322E73726563C3
S11300000C94B0000C94CD000C94CD000C9403011E
S11300100C94CD000C94CD000C94CD000C94CD0028
S11300200C94CD000C94CD000C943A020C947802FC
S11300300C94CD000C94CD000C94CD000C94CD0008
S11300400C94CD000C94CD000C94CD000C94CD00F8
S11300500C94CD000C94CD000C94CD000C94CD00E8
S11300600C94CD000C94CD000C94CD000C94CD00D8
S11300700C94CD000C94CD000C94CD000C94CD00C8
S11300800C94CD000C94CD000C94CD000C94CD00B8
S11300900C94CD000C94CD000C94CD000C94CD00A8
S11300A00C94CD000C94CD000C94CD000001000004
S11300B04301120002000000014300030000FC00A1
S11300C00401030904E8001202030904E000060322
S11300D0030904D60008080334003100300000008E
S11300E006034D003200000012034A002E002000D7
S11300F04600690065006E00650000000403090401
S113010009024300020100C0320904000001020296
S11301100100052400100105240101010424020644
S113012005240600010705820310004009040100AC
S1130130020A0000000705030240000007058402CC
S11301404000001201000202000010C0167A0400F0
S113015001010203010001C1120180360181360050
S113016011241FBECFEFDAE0DEBFCDBF11E0A0E067
S1130170B1E0E0EDF8E002C005900D92A830B107BF
S1130180D9F721E0A8E0B1E001C01D92AC31B2077B
S1130190E1F70E94CF000C9466040C940000E1E6A1
S11301A0F0E080E8808383E080830E946B0143E079
S11301B067E481E00E947C01E1E8F0E080818B7FCC
S11301C0808380818260808380818160808380815C
S11301D080618083808188608083E0E8F0E08081B2
S11301E0826080838081816080838081806280835B
S11301F0808180618083EFE6F0E08081826080838B
S11302007894269AFFCF1F920F920FB60F92112463
S11302102F933F934F935F936F937F938F939F930A
S1130220AF93BF93EF93FF9363E088E091E00E9464
S1130230D201209108018091090190E0982F88272C
S1130240820F911D90930F0180930E0180910E01F6
S113025090910F016AE070E00E94FD037093150114
S113026060931401209114013091150100243695F6
S113027027950794369527950794322F202D4427E8
S113028037FD4095542F60E874E88EE190E00E94B9
S11302901104E8E8F0E03183208380819181969510
S11302A0879590938B0080938A006A9A9EB184E02C
S11302B089278EB9FF91EF91BF91AF919F918F9153
S11302C07F916F915F914F913F912F910F900FBE4E
S11302D00F901F901895589A599A5A9A8CE08093C7
S11302E0B800E9E6F0E080818062808380818F7EBF
S11302F08083EA9A789408951F93CF93DF93182FFD
S1130300D62FC42F0E946B0194EA9093BC00ECEBAF
S1130310F0E090819923ECF790E59093BB0094E88A
S11303209093BC00ECEBF0E090819923ECF7909172
S1130330B900987F903229F484E98093BC0080E06E
S11303402DC081E08093BB0084E88093BC00ECEB7B
S1130350F0E090819923ECF71093BB0084E880933C
S1130360BC00ECEBF0E080818823ECF7D093BB0079
S113037084E88093BC00ECEBF0E080818823ECF708
S1130380C093BB0084E88093BC00ECEBF0E0808178
S11303908823ECF784E98093BC0081E0DF91CF915E
S11303A01F9108951F93CF93DF9324EA2093BC00F9
S11303B0ECEBF0E020812223ECF721E52093BB0055
S11303C024E82093BC00ECEBF0E020812223ECF73E
S11303D02091B900287F283429F484E98093BC0053
S11303E080E044C024EC2093BC00ECEBF0E02081DE
S11303F02223ECF71091BB0016130AC0412F50E0E2
S1130400415051091416150644F020E030E01CC098
S113041084E98093BC0080E029C0DC0120E030E066
S1130420ECEBF0E074ECCBEBD0E0708360816623FE
S1130430ECF768816D932F5F3F4F24173507ACF3BA
S1130440212F30E02150310944E84093BC00ECEB0B
S1130450F0E040814423ECF74091BB00FC01E20F43
S1130460F31F408384E98093BC0081E0DF91CF9146
S11304701F9108951F920F920FB60F9211248F931C
S11304809F93EF93FF93E1EEF0E08081108283FF6E
S113049011C01092E90091E09093EB001092EC00EF
S11304A092E19093ED0098E09093F00010920D018A
S11304B010920B0182FF13C080910D01882379F003
S11304C080910C01882359F0815080930C01811193
S11304D006C084E08093E9008AE38093E800FF91FA
S11304E0EF919F918F910F900FBE0F901F901895D1
S11304F01F920F920FB60F9211240F931F932F93F5
S11305003F934F935F936F937F938F939F93AF9397
S1130510BF93CF93DF93EF93FF931092E900809101
S1130520E80083FF4EC1E1EFF0E0C081408120810B
S1130530808130E0382B8081508190E0BC01752BA4
S1130540B081A08182EF8093E800463009F058C062
S113055004C081E28093EB003BC1C6E08CEA90E0EA
S1130560FC01459154912417350711F0079623C0D7
S1130570FC013296459154916417750711F0079662
S11305801AC0FC01349625913491FC01369654919D
S11305908B2F90E09A2B8F3F910519F010F08FEF7D
S11305A090E0851708F4582FA8EEB0E070E16EEFE4
S11305B0C1EFD0E003C0C15099F6CBCF8C91982FF6
S11305C09570E1F382FD04C1452F513108F0472FA6
S11305D0442309F4FAC0F901842F9491988381503B
S11305E031968111FACF8FEF840F90E00196280F96
S11305F0391F541B6C935111E1CF4031F9F2E8C01B
S1130600453061F48EEF8093E800E8EEF0E08081FD
S113061080FFFDCF20682093E300DAC0493009F061
S113062036C0C1115FC020930D0110920B011092CE
S11306300C018EEF8093E80011E085E591E0C9EEAE
S1130640D0E0ABEEB0E06CEE70E04DEE50E018831D
S11306509C012F5F3F4FFC0104910C93002361F038
S1130660F9012491FB0120839C012D5F3F4FFC0184
S113067032968491FA0180831F5F153011F0C9010D
S1130680E6CFEAEEF0E08EE180831082A1C048302C
S113069081F4C03809F042C0E8EEF0E0808180FFC8
S11306A0FDCF80910D018093F1008EEF8093E800DF
S11306B08FC04132B9F4C13A09F040C0E8EEF0E02D
S11306C0808180FFFDCFE0E0F1E087E091E0A1EFE1
S11306D0B0E021912C93E817F907D9F78EEF8093B6
S11306E0E80076C04032D1F4C13209F043C0E8EEEC
S11306F0F0E0808182FFFDCFE0E0F1E087E091E06F
S1130700A1EFB0E02C912193E817F907D9F7E8EEAF
S1130710F0E08BEF80838EEF80835AC0423271F415
S1130720C13209F04EC020930B01E8EEF0E0808165
S113073080FFFDCF8EEF8093E8004AC041111AC0BC
S1130740E8EEF0E0808180FFFDCFC23851F4E9EE9D
S1130750F0E060838091EB0085FB882780F91082AC
S113076001C080E0E1EFF0E0808310828EEF80939F
S1130770E8002EC0842F8D7F813019F5C23009F531
S1130780232BF9F46F778FEF860F8430D0F48EEF3C
S11307908093E8006093E900433021F481E2809380
S11307A0EB0016C089E18093EB0081E090E002C089
S11307B0880F991F6A95E2F7EAEEF0E080831082D1
S11307C007C081E28093EB0003C06C935111F6CE15
S11307D0FF91EF91DF91CF91BF91AF919F918F9155
S11307E07F916F915F914F913F912F911F910F9145
S11307F00F900FBE0F901F90189597FB072E16F4BD
S1130800009407D077FD09D00E94300407FC05D07E
S11308103EF4909581959F4F0895709561957F4F13
S11308200895052E97FB1EF400940E94280457FD9A
S113083007D00E94440407FC03D04EF40C9428040F
S113084050954095309521953F4F4F4F5F4F0895F8
S113085090958095709561957F4F8F4F9F4F089528
S1130860AA1BBB1B51E107C0AA1FBB1FA617B707D2
S113087010F0A61BB70B881F991F5A95A9F78095EE
S11308809095BC01CD010895A1E21A2EAA1BBB1BB1
S1130890FD010DC0AA1FBB1FEE1FFF1FA217B30748
S11308A0E407F50720F0A21BB30BE40BF50B661F5E
S11308B0771F881F991F1A9469F760957095809522
S11308C090959B01AC01BD01CF010895F894FFCF31
S10B08D000E100000000080033
S9030000FC
