S011000066756C6C73706565642E737265634F
S11300000C9456000C9460000C9460000C946000F6
S11300100C9460000C9460000C9460000C946000DC
S11300200C9460000C9460000C9460000C946000CC
S11300300C9460000C9460000C9460000C946000BC
S11300400C9460000C9460000C9460000C946000AC
S11300500C9460000C9460000C9460000C9460009C
S11300600C9460000C9460000C9460000C9460008C
S11300700C9460000C9460000C9460000C9460007C
S11300800C9460000C9460000C9460000C9460006C
S11300900C9460000C9460000C9460000C9460005C
S11300A00C9460000C9460000C94600011241FBE3A
S11300B0CFEFDAE0DEBFCDBF0E949E000C94A60015
S11300C00C940000209A289A219A299A8AEF90E0A9
S11300D0909389008093880085EF90E090938B0043
S11300E080938A0090938D0080938C00A1E8B0E007
S11300F08C9180618C938C9188608C93E0E8F0E023
S1130100808182608083808181608083808180623D
S1130110808380818F7E80838081886080838081DA
S11301208B7F8083269A279A8C918B7F8C938C91DA
S11301308D7F8C938C9181608C930895E1E6F0E03F
S113014080E8808310820E946200FFCFF894FFCF82
S9030000FC
