S00D000057686974652E7372656316
S11300000C94BE010C94DB010C94DB010C941F18BE
S11300100C94DB010C94DB010C94DB010C94DB01EC
S11300200C94DB010C94DB010C9417140C94551400
S11300300C94DB010C94DB010C94DB010C94DB01CC
S11300400C94DB010C94DB010C94DB010C94DB01BC
S11300500C94DB010C94DB010C94DB010C94DB01AC
S11300600C94DB010C94DB010C94DB010C94DB019C
S11300700C94DB010C9462050C94DB010C94DB0101
S11300800C94DB010C94DB010C94DB010C94DB017C
S11300900C94DB010C94DB010C94DB010C94DB016C
S11300A00C94DB010C94DB010C94DB01D005E1051D
S11300B0F205030614062506360643184E18A3183F
S11300C0C218E1184619F2183619072C7AA5BA6C29
S11300D0C590DA3B9365FC8BBC53F810FD3C5692FB
S11300E0834DBD879D3AB63DCBC9BF5BBE73DA0F66
S11300F0C93F6C6F737420746865207075636B21DD
S11301000A00676F7420746865207075636B210A38
S1130110007475726E2072696768740A007475726F
S11301206E206C6566740A005049440A0074757246
S11301306E2072696768740A005049440A00747535
S1130140726E206C6566740A000A002C20006D65CE
S1130150616E3032342C206D65616E3133353A2056
S1130160000D0A000D0A0050686F5B365D000D0A31
S11301700050686F5B355D000D0A0050686F5B349A
S11301805D000D0A0050686F5B335D000D0A00507E
S1130190686F5B325D000D0A0050686F5B315D0073
S11301A00D0A0050686F5B305D000D0A00747572B3
S11301B06E206C6566740A007475726E20726967CD
S11301C068740A000A006761696E2A31303A2000B7
S11301D00A00616C7068612A31303A2000747572CB
S11301E06E206C6566740A007475726E207269679D
S11301F068740A000A006761696E2A31303A200087
S11302000A00616C7068612A31303A20000A00618A
S11302106C7068613A20000A000976793A20302E21
S113022000446972656374696F6E2076783A203091
S11302302E000A000909793A00506F736974696FD6
S11302406E20783A000A00646D61783A000001007B
S113025000E4021200020000A10243000300009D1A
S1130260020401030904890212020309048102063B
S11302700303090477020808033400310030000046
S11302800006034D003200000012034A002E002035
S1130290004600690065006E006500000004030963
S11302A00409024300020100C032090400000102F3
S11302B002010005240010010524010101042402A7
S11302C00605240600010705820310004009040105
S11302D000020A000000070503024000000705842D
S11302E0024000001201000202000010C0167A044D
S11302F00001010203010001C112018036018136AF
S113030047616D65206F7665720A0048616C66749A
S1130310696D650A0050617573650A00476F616C09
S113032020420A00476F616C20410A00506C6179D9
S1130330200A00666C617368204C4544200A000A58
S1130340002C200031422C2031433A20000A002C9A
S1130350200044657369726520506F736974696F16
S11303606E203D20000A002C2000676F616C203D48
S113037020000A0073746174653A200011241FBEC2
S1130380CFEFDAE0DEBFCDBF11E0A0E0B1E0E2E5FF
S1130390FCE302C005900D92AE33B107D9F721E01A
S11303A0AEE3B1E001C01D92A63BB207E1F70E94A3
S11303B091190C94271E0C940000CF93DF93ACE7A3
S11303C0B0E08C918F778C938C9180648C93EAE766
S11303D0F0E080818460808380818260808380817A
S11303E081608083CEE7D0E08881816088838881C2
S11303F082608883CDE7D0E08881826088838881A9
S11304008460888388818860888388818061888308
S1130410888181608883CBE7D0E088818F7D888361
S11304208C918B7F8C938C918D7F8C938C918E7F10
S11304308C938081806280838081886080837894BB
S1130440808180688083808180648083DF91CF9104
S113045008958F929F92AF92BF92CF92DF92EF92C4
S1130460FF920F931F93CF93DF936B017C0149019C
S11304705A01C0914801D091490180914C01909159
S11304804D01C80FD91F20914A0130914B01809131
S11304904E0190914F01820F931FC81BD90BD0932B
S11304A0B301C093B20180914401909145018E0142
S11304B0081B190B109341010093400180914201E4
S11304C0909143018C0F9D1F9093430180934201AF
S11304D0BE01882777FD8095982F0E94161CA701DE
S11304E096010E940A1D6B017C01B801882777FDE3
S11304F08095982F0E94161CA50194010E940A1D44
S11305009B01AC01C701B6010E94131B0E94E31BAF
S11305107093B1016093B001D0934501C09344013D
S11305201616170674F59B01772324F42227332724
S1130530261B370B8AE892E0821B930B90938D0065
S113054080938C0020910001309101018091B001D1
S11305509091B10199231CF49195819591092817E3
S1130560390744F48AE892E0821B930B90938D0040
S113057080938C008AE892E090938B0080938A00A9
S11305802DC09B01772324F422273327261B370B06
S11305908AE892E0821B930B90938B0080938A00ED
S11305A020910001309101018091B0019091B1013D
S11305B099231CF49195819591092817390744F4DE
S11305C08AE892E0821B930B90938B0080938A00BD
S11305D08AE892E090938D0080938C00DF91CF9114
S11305E01F910F91FF90EF90DF90CF90BF90AF904D
S11305F09F908F9008958F929F92AF92BF92CF92C7
S1130600DF92EF92FF920F931F93CF93DF936B01CF
S11306107C0149015A01C0914801D091490180915E
S11306204C0190914D01C80FD91F20914A0130917E
S11306304B0180914E0190914F01820F931FC81B73
S1130640D90BD093B301C093B2018091440190912E
S113065045018E01081B190B10933F0100933E01C5
S1130660BE01882777FD8095982F0E94161CA7014C
S113067096010E940A1D6B017C01B801882777FD51
S11306808095982F0E94161CA50194010E940A1DB2
S11306909B01AC01C701B6010E94131B0E94E31B1E
S11306A07093B1016093B001D0934501C0934401AC
S11306B09B01772324F422273327261B370B2A3860
S11306C082E038075CF08AE892E090938D00809392
S11306D08C0090938B0080938A0011C030938D001E
S11306E020938C008091B0019091B10199231CF466
S11306F091958195910990938B0080938A00DF9165
S1130700CF911F910F91FF90EF90DF90CF90BF900A
S1130710AF909F908F900895AF92BF92CF92DF9247
S1130720EF92FF920F931F93CF93DF937C018AEA9A
S113073091E00E94DA1583EA91E00E94DA150F2E07
S1130740F8E4CF2EF1E0DF2EF02DF60180819181C7
S11307500E94F41580EA91E00E94DA1589E991E09B
S11307600E94DA150F2EFAE4AF2EF1E0BF2EF02D21
S1130770F501808191810E94F41586E991E00E943F
S1130780DA158FE891E00E94DA15CCE4D1E0888193
S113079099810E94F4158CE891E00E94DA1585E8AD
S11307A091E00E94DA150EE411E0F8018081918154
S11307B00E94F41582E891E00E94DA158BE791E03B
S11307C00E94DA1580915001909151010E94F41514
S11307D088E791E00E94DA1581E791E00E94DA153A
S11307E080915201909153010E94F4158EE691E09C
S11307F00E94DA1587E691E00E94DA15809154018F
S1130800909155010E94F41584E691E00E94DA1556
S113081081E691E00E94DA15F60120813181888118
S11308209981820F931F23E030E0B9010E94C41D17
S1130830EB016B01F50140815181F80180819181C7
S1130840840F951FB9010E94C41D8B015B018EE4C6
S113085091E00E94DA15CE010E94F4158BE491E038
S11308600E94DA15C8010E94F41589E491E00E94FF
S1130870DA15F2E0EF16F10431F045E0E416F10484
S113088009F4BEC014C1CE01801B910BC39784F43C
S11308900C171D070CF050C02091500130915101EC
S11308A080914C0190914D01821793070CF044C044
S11308B08EE391E00E94DA1559E9C51658E0D50691
S11308C06CF0289A29988AE892E090938D0080939E
S11308D08C0090938B0080938A00E9C0289A299A0F
S11308E08AE892E02091000130910101FC01E21BB1
S11308F0F30BF0938D00E0938C0090938B00809326
S11309008A0020914C0130914D01809150019091C9
S11309105101821793070CF0CAC089E391E00E9449
S1130920DA1520E030E040E751E46AE979E989E941
S11309309EE30E942902BBC00C1B1D0B033311054F
S113094084F4CA14DB040CF050C02091520130919D
S1130950530180914E0190914F01821793070CF03F
S113096044C08DE291E00E94DA15F9E9AF16F8E08F
S1130970BF066CF0299A28988AE892E090938B003D
S113098080938A0090938D0080938C0090C0289A65
S1130990299A8AE892E02091000130910101AC018A
S11309A0421B530B50938B0040938A0090938D000D
S11309B080938C0020914E0130914F01809152011F
S11309C090915301821793070CF071C088E291E073
S11309D00E94DA1520E030E040E751E46AE979E961
S11309E089E99EE30E94290262C020E030E040E7EA
S11309F051E46AE979E989E99EE30E94290257C032
S1130A00CE01801B910BC3973CF18DE191E00E94D4
S1130A10DA15289A299820914C0130914D01809142
S1130A20500190915101821793075CF420E030E06B
S1130A3040E050E46DEC7CEC8CE49FE30E94FB020C
S1130A4036C08AE892E090938B0080938A0090935A
S1130A508D0080938C002BC00C1B1D0B03331105E0
S1130A6034F181E191E00E94DA152898299A2091C5
S1130A704E0130914F0180915201909153018217A0
S1130A8093075CF420E030E040E050E46DEC7CEC53
S1130A908CE49FE30E94FB020AC08AE892E09093F0
S1130AA08B0080938A0090938D0080938C00DF915B
S1130AB0CF911F910F91FF90EF90DF90CF90BF9057
S1130AC0AF9008951F920F920FB60F921124AF9218
S1130AD0BF92CF92DF92EF92FF920F931F932F93C7
S1130AE03F934F935F936F937F938F939F93AF93B2
S1130AF0BF93CF93DF93EF93FF93C0914601D091BF
S1130B004701A0907800B09079008E01000F111F6A
S1130B10085B1E4FF80160817181882777FD8095FD
S1130B20982F0E94161C2DEC3CEC4CE45FE30E94D1
S1130B300A1D6B017C01B50180E090E00E94141C49
S1130B402CEC3CEC4CE45EE30E940A1D9B01AC01DE
S1130B50C701B6010E94131B0E94E31BF8017183B5
S1130B6060832196C830D1052CF4D0934701C093FB
S1130B70460104C01092470110924601EAE7F0E0F2
S1130B8080818F77808380914601909147018730DF
S1130B90910508F07BC0FC01EA5AFF4F0C94D81D64
S1130BA0EBE7F0E080818F7D8083ECE7F0E08081EB
S1130BB08B7F808380818D7F808380818E7F808303
S1130BC065C0EBE7F0E080818F7D8083ECE7F0E0A7
S1130BD080818B7F808380818D7F80838081816011
S1130BE0808354C0EBE7F0E0808180628083ECE78F
S1130BF0F0E080818B7F808380818D7F8083808102
S1130C008160808343C0EBE7F0E080818062808371
S1130C10ECE7F0E080818B7F808380818260808339
S1130C2080818E7F808332C0EBE7F0E08081806238
S1130C308083ECE7F0E080818B7F80838081826019
S1130C40808380818160808321C0EBE7F0E0808134
S1130C5080628083ECE7F0E080818460808380811F
S1130C608D7F808380818E7F808310C0EBE7F0E0EE
S1130C70808180628083ECE7F0E080818B7F8083D9
S1130C8080818D7F808380818E7F8083EAE7F0E09E
S1130C90808180688083808180648083FF91EF916C
S1130CA0DF91CF91BF91AF919F918F917F916F9180
S1130CB05F914F913F912F911F910F91FF90EF9072
S1130CC0DF90CF90BF90AF900F900FBE0F901F900A
S1130CD01895FC01208131812250310922303105DF
S1130CE0F0F42091540130915501233EF3E03F0785
S1130CF054F023E030E0FC013183208382E091E072
S1130D000E94DA150895243833404CF422E030E090
S1130D10FC013183208382EF90E00E94DA1508956C
S1130D20CF92DF92EF92FF920F931F93CF93DF93B3
S1130D30EC018B01609148017091490180914A0155
S1130D4090914B01680F791F80914C0190914D0156
S1130D50680F791F80914E0190914F01680F791FA0
S1130D60882777FD8095982F0E94161C6B017C01C3
S1130D70F80164817581868197810E94E31BAB0130
S1130D80772324F444275527461B570B2CED35E0D5
S1130D90429FB001439F700D529F700D112488270C
S1130DA077FD8095982F0E94161C9B01AC016091E1
S1130DB002017091030180910401909105010E9448
S1130DC0121B9B01AC01C701B6010E94061D181637
S1130DD024F482E090E099838883DF91CF911F917E
S1130DE00F91FF90EF90DF90CF9008954F925F9214
S1130DF06F927F928F929F92AF92BF92CF92DF9227
S1130E00EF92FF920F931F93CF93DF93CDB7DEB78B
S1130E1060970FB6F894DEBF0FBECDBF2B013C0127
S1130E202D833E834F83588758018701D501CD9088
S1130E30DD90ED90FC909B01AC01C701B6010E94CE
S1130E400A1DF80120813181428153810E94121BC5
S1130E5069877A878B879C87D50114968D919D919C
S1130E600D90BC91A02D89839A83AB83BC832D8183
S1130E703E814F815885BC01CD010E940A1D6D87BA
S1130E807E878F87988B9B01AC0169857A858B85DA
S1130E909C850E94121B4B015C0129813A814B8184
S1130EA05C81C301B2010E940A1DF80124813581CD
S1130EB0468157810E94121B2B013C012D813E81EA
S1130EC04F815885C701B6010E940A1D69837A8340
S1130ED08B839C839B01AC01C301B2010E94131B51
S1130EE06B017C012D853E854F85588969857A85FE
S1130EF08B859C850E94131B6D837E838F839887CB
S1130F0029813A814B815C81C301B2010E94121B89
S1130F102B013C01A5019401C501B4010E940A1DE5
S1130F204B015C01A7019601C701B6010E940A1D8D
S1130F309B01AC01C501B4010E94131B6B017C0130
S1130F402D813E814F815885CA01B9010E940A1D35
S1130F504B015C01A3019201C301B2010E940A1D6D
S1130F609B01AC01C501B4010E94131B9B01AC01A0
S1130F7001E010E0C701B6010E94771B882314F03A
S1130F8000E010E0C80160960FB6F894DEBF0FBE13
S1130F90CDBFDF91CF911F910F91FF90EF90DF9024
S1130FA0CF90BF90AF909F908F907F906F905F9005
S1130FB04F9008952F923F924F925F926F927F923B
S1130FC08F929F92AF92BF92CF92DF92EF92FF9255
S1130FD00F931F93CF93DF93CDB7DEB728970FB648
S1130FE0F894DEBF0FBECDBF1C0149835A836B83C7
S1130FF07C830D831E832F8338878501F60120812E
S1131000318142815381F7016081718182819381B1
S11310100E94121B4B015C01F6012481358146813B
S11310205781F70164817581868197810E94121B23
S11310306B017C01A5019401C501B4010E940A1D44
S11310402B013C01A7019601C701B6010E940A1DAC
S11310509B01AC01C301B2010E94131B0E94711DCC
S11310602B013C019B01AC01C501B4010E947B1B17
S11310704B015C01A3019201C701B6010E947B1BD5
S11310806B017C01F8012081318142815381C501CA
S1131090B4010E940A1D2B013C01F8012481358111
S11310A046815781C701B6010E940A1D9B01AC010C
S11310B0C301B2010E94131B0E94041B2B013C01BB
S11310C02A942328D1F42D813E814F81588550588C
S11310D0C701B6010E940A1D6B017C0129813A8176
S11310E04B815C81C501B4010E940A1D9B01AC01C6
S11310F0C701B6010E94131B19C02D813E814F8187
S113110058855058C701B6010E940A1D6B017C0125
S113111029813A814B815C81C501B4010E940A1D79
S11311209B01AC01C701B6010E94121B20E030E014
S1131130A9010E94771B88234CF0409262015092CF
S1131140630160926401709265010CC077FA709437
S113115077F8709440926201509263016092640146
S1131160709265018FE092E00E94DA1520E030E091
S113117040E251E4609162017091630180916401E5
S1131180909165010E940A1D0E94E31BCB010E94FD
S1131190F4158DE092E00E94DA1528960FB6F894C3
S11311A0DEBF0FBECDBFDF91CF911F910F91FF9096
S11311B0EF90DF90CF90BF90AF909F908F907F90F3
S11311C06F905F904F903F902F9008954F925F9251
S11311D06F927F928F929F92AF92BF92CF92DF9243
S11311E0EF92FF92CF93DF9300D000D0CDB7DEB75C
S11311F04B015C0129833A834B835C8340906201F9
S113120050906301609064017090650120915E01CB
S113121030915F014091600150916101C301B201BD
S11312200E94121B6B017C0160935A0170935B0155
S113123080935C0190935D01A5019401C301B20107
S11312400E940A1D4B015C0129813A814B815C811A
S1131250C701B6010E940A1D9B01AC01C501B4017E
S11312600E94131B60935601709357018093580199
S11312709093590140925E0150925F016092600127
S11312807092610182E092E00E94DA1520E030E081
S113129040E251E4609162017091630180916401C4
S11312A0909165010E940A1D0E94E31BCB010E94DC
S11312B0F41580E092E00E94DA1586EF91E00E9436
S11312C0DA1520E030E040E251E46091560170917B
S11312D0570180915801909159010E940A1D0E9462
S11312E0E31BCB010E94F41584EF91E00E94DA1510
S11312F020E030E0A901609156017091570180917E
S11313005801909159010E94771B88230CF044C026
S113131088EE91E00E94DA156091560170915701B0
S113132080915801909159010E94E31B9B017723FE
S113133024F422273327261B370B8AE892E0821BEA
S1131340930B90938B0080938A00E0901C01F090A3
S11313501D0160915601709157018091580190913F
S113136059010E94E31B9B01772324F4222733278E
S1131370261B370BE216F30644F48AE892E08E1932
S11313809F0990938B0080938A008AE892E090935F
S11313908D0080938C0043C08DED91E00E94DA159E
S11313A060915601709157018091580190915901B3
S11313B00E94E31B9B01772324F422273327261B57
S11313C0370B8AE892E0821B930B90938D008093F5
S11313D08C00E0901C01F0901D0160915601709109
S11313E0570180915801909159010E94E31B9B0180
S11313F0772324F422273327261B370BE216F30620
S113140044F48AE892E08E199F0990938D008093AA
S11314108C008AE892E090938B0080938A000F906E
S11314200F900F900F90DF91CF91FF90EF90DF908E
S1131430CF90BF90AF909F908F907F906F905F9070
S11314404F9008954F925F926F927F928F929F92E6
S1131450AF92BF92CF92DF92EF92FF92CF93DF933E
S113146000D000D0CDB7DEB74B015C0129833A83AD
S11314704B835C83409062015090630160906401EF
S11314807090650120915E0130915F01409160018F
S113149050916101C301B2010E94121B6B017C01D6
S11314A060935A0170935B0180935C0190935D019A
S11314B0A5019401C301B2010E940A1D4B015C0104
S11314C029813A814B815C81C701B6010E940A1DC2
S11314D09B01AC01C501B4010E94131B609356012A
S11314E070935701809358019093590140925E0183
S11314F050925F01609260017092610182ED91E00F
S11315000E94DA1520E030E040E251E4609162018B
S11315107091630180916401909165010E940A1D9C
S11315200E94E31BCB010E94F41580ED91E00E9420
S1131530DA1586EC91E00E94DA1520E030E040E212
S113154051E4609156017091570180915801909136
S113155059010E940A1D0E94E31BCB010E94F4154D
S113156084EC91E00E94DA1520E030E0A90160915A
S113157056017091570180915801909159010E9430
S1131580771B88230CF044C088EB91E00E94DA15A5
S113159060915601709157018091580190915901C1
S11315A00E94E31B9B01772324F422273327261B65
S11315B0370B8AE892E0821B930B90938B00809305
S11315C08A00E0901A01F0901B016091560170911D
S11315D0570180915801909159010E94E31B9B018E
S11315E0772324F422273327261B370BE216F3062E
S11315F044F48AE892E08E199F0990938B008093BB
S11316008A008AE892E090938D0080938C0043C016
S11316108DEA91E00E94DA156091560170915701AC
S113162080915801909159010E94E31B9B017723FB
S113163024F422273327261B370B8AE892E0821BE7
S1131640930B90938D0080938C00E0901A01F0909E
S11316501B0160915601709157018091580190913E
S113166059010E94E31B9B01772324F4222733278B
S1131670261B370BE216F30644F48AE892E08E192F
S11316809F0990938D0080938C008AE892E0909358
S11316908B0080938A000F900F900F900F90DF9132
S11316A0CF91FF90EF90DF90CF90BF90AF909F903D
S11316B08F907F906F905F904F900895CF92DF92BC
S11316C0EF92FF920F931F936B017C0120E030E0B7
S11316D0A901F80160817181828193810E94771B45
S11316E088237CF401E010E020E030E0A901C70188
S11316F0B6010E94771B88230CF000E0802F912F05
S11317000EC001E010E020E030E0A901C701B601FD
S11317100E94061D18160CF000E0802F912F1F91D7
S11317200F91FF90EF90DF90CF9008952F923F920A
S11317304F925F926F927F928F929F92AF92BF92DD
S1131740CF92DF92EF92FF920F931F93CF93DF9389
S1131750CDB7DEB7C658D1090FB6F894DEBF0FBEB9
S1131760CDBFCD57DF4F99838883C358D040CB5723
S1131770DF4F79836883C558D040ED965FAF4EAF95
S1131780ED97EF963FAF2EAFEF9786E791E00E947B
S11317908017609176017091770180E090E00E945B
S11317A0141C69837A838B839C8360917C01709180
S11317B07D0180E090E00E94141C6D837E838F8302
S11317C09887609182017091830180E090E00E948B
S11317D0141C69877A878B879C8760918801709134
S11317E0890180E090E00E94141C6D877E878F87BA
S11317F0988B609178017091790180E090E00E946B
S1131800141C698B7A8B8B8B9C8B60917E017091FD
S11318107F0180E090E00E94141C6D8B7E8B8F8B87
S1131820988F609184017091850180E090E00E941E
S1131830141C698F7A8F8B8F9C8F60918A017091B1
S11318408B0180E090E00E94141C6D8F7E8F8F8F3F
S113185098A39E012F5F3F4FEB963FAF2EAFEB97C0
S1131860CE014196E3969FAF8EAFE397AB961FAE42
S11318701EAEAB97E9961FAE1EAEE997AB96AEAD22
S1131880BFADAB971196E796BFAFAEAFE79714978E
S11318900CF05CC6EB96EEADFFADEB9781909190AA
S11318A0A190B190E9968EAD9FADE997880F991FED
S11318B029E330E02C0F3D1F280F391FA3963FAFBB
S11318C02EAFA397A5E4B0E0AC0FBD1FA80FB91FBE
S11318D0A796BFAFAEAFA797E9968EAD9FADE99738
S11318E0880F991F880F991F0F2EF1E26F2E712C0C
S11318F0F02D6C0E7D1E680E791EE3962EAD3FAD65
S1131900E3972C5F3F4F1F01E7960EAD1FADE7979E
S1131910E1968CAE9DAEAEAEBFAEE19759014301E8
S113192020E030EC4FE754E4E1966CAD7DAD8EAD34
S11319309FADE1970E94771B882309F470C0E3965A
S1131940AEADBFADE397CD90DD90ED90FC9020E07F
S113195030EC4FE754E4C701B6010E94771B88239B
S113196009F45DC0F101408051806280738020E001
S113197030EC4FE754E4C301B2010E94771B882383
S113198009F44DC0D5018D919D910D90BC91A02D70
S1131990C158DF4F88839983AA83BB83CF57D04034
S11319A020E030EC4FE754E4BC01CD010E94771BEA
S11319B08823A9F1A3019201E1966CAD7DAD8EADB2
S11319C09FADE1970E94121B2B013C01C158DF4FD0
S11319D0288139814A815B81CF57D040C701B60144
S11319E00E94121B6B017C01A3019201C301B2018D
S11319F00E940A1D2B013C01A7019601C701B601F3
S1131A000E940A1D9B01AC01C301B2010E94131B79
S1131A100E94711DF4016083718382839383A39672
S1131A20AEADBFADA397AB96EEADFFADAB97ED9367
S1131A30FD93A396BFAFAEAFA397A796AEADBFADD0
S1131A40A7970D931D93A796BFAFAEAFA7970F5F50
S1131A501F4FB4E02B0E311CE4E0AE0EB11CF4E0D9
S1131A608F0E911C0430110509F05ACFE9968EAD02
S1131A709FADE997E7962EAD3FADE797821B930B99
S1131A80DC011496E996BFAFAEAFE997EB96EEADE5
S1131A90FFADEB973496EB96FFAFEEAFEB97E39683
S1131AA02EAD3FADE3972C5F3F4FE3963FAF2EAF94
S1131AB0E397E7968EAD9FADE797039749F0E796D6
S1131AC0AEADBFADE797AB96BFAFAEAFAB97D6CEDB
S1131AD0E996EEADFFADE9971E161F0684F56E017B
S1131AE0F1E2CF0ED11C212C312C00E010E0E12CCE
S1131AF0F12CE996AEACBFACE997D6014D905D9060
S1131B006D907D906D01B801882777FD8095982FA1
S1131B100E94161C9B01AC01C301B2010E94061D68
S1131B20181634F4C301B2010E94E31B8B011701A0
S1131B30BFEFEB1AFB0AEA14FB04F9F604C0212CEC
S1131B40312C00E010E087E492E00E94DA15C8012D
S1131B500E94F41585E492E00E94DA15E996EEAD50
S1131B60FFADE9971E161F06DCF56E01F1E2CF0EFC
S1131B70D11CA3961FAE1EAEA3970F2EF0E1AF2E7D
S1131B80F7E2BF2EF02DE12CF12C4801E9960EADC1
S1131B901FADE997D6014D905D906D907D906D01DC
S1131BA0B501882777FD8095982F0E94161C9B010C
S1131BB0AC01C301B2010E94771B88234CF4C3011A
S1131BC0B2010E94E31B5B01A396FFAEEEAEA397A6
S1131BD0BFEFEB1AFB0AE016F106E1F6840104C03C
S1131BE0A3961FAE1EAEA39780901201909013018E
S1131BF0A0901401B0901501B801882777FD809555
S1131C00982F0E94161CA50194010E940A1D2B0105
S1131C103C01C0901601D0901701E0901801F0909B
S1131C201901E6E0F1E0AB96FFAFEEAFAB97A796F4
S1131C301FAE1EAEA79701E010E0AF963FAE2EAEEA
S1131C40AF971F01D1012D913D914D915D911D01E2
S1131C50C301B2010E94121B0E94E31B9B01772364
S1131C6024F422273327261B370BB901882777FD55
S1131C708095982F0E94161CA70196010E94771B3D
S1131C80882324F4A7961FAF0EAFA7970F5F1F4FAB
S1131C9004301105B9F6AF962EAC3FACAF976596FC
S1131CA01CAE1DAE1EAE1FAE659780E090E0A0E8AE
S1131CB0BFE369968CAF9DAFAEAFBFAF6997A796F0
S1131CC0EEADFFADA797E230F10519F0339751F16E
S1131CD05AC0A501940160E070E088E691E40E9496
S1131CE07B1BE1966CAF7DAF8EAF9FAFE19784E92C
S1131CF097E8A5EEBEE365968CAF9DAFAEAFBFAFE0
S1131D00659781EA96EDA4E6BFEB69968CAF9DAF2B
S1131D10AEAFBFAF6997E5961CAE1DAE1EAE1FAE4B
S1131D20E59745C0A501940161EE7AE78AE391E461
S1131D300E947B1BE5966CAF7DAF8EAF9FAFE5979E
S1131D40A501940163E27BED8BE091EC0E947B1B87
S1131D50E1966CAF7DAF8EAF9FAFE19786E696E6D6
S1131D60A6E7BFEB65968CAF9DAFAEAFBFAF6597EF
S1131D708FE99DECAAE8BEE369968CAF9DAFAEAF48
S1131D80BFAF699714C0A7962EAD3FADA7971216A3
S1131D9013060CF04AC3E5961CAE1DAE1EAE1FAE74
S1131DA0E597E1961CAE1DAE1EAE1FAEE197F101A4
S1131DB0EE0FFF1F81E090E08C0F9D1FE80FF91FCD
S1131DC000AD11ADA396EEADFFADA397EE0FFF1FCF
S1131DD0E80FF91F80AD91AD8017910789F0A396A4
S1131DE0EEADFFADA397EE0FFF1FA5E4B0E0AC0F7F
S1131DF0BD1FEA0FFB1F808191810817190769F441
S1131E00D101AA0FBB1FE5E4F0E0EC0FFD1FAE0FFC
S1131E10BF1FF8010D911C910CC0F101EE0FFF1FC3
S1131E2025E430E02C0F3D1FE20FF31F0190F081F9
S1131E30E02DA7968EAD9FADA797019709F045C0F9
S1131E406F01CC0CDD1CCC0CDD1CA1E0B0E0AC0FB0
S1131E50BD1FCA0EDB1E7801EE0CFF1CEE0CFF1C2E
S1131E60EA0EFB1EF7012081318142815381D601A4
S1131E706D917D918D919C910E94131B20E030E027
S1131E8040E05FE30E940A1DAD966CAF7DAF8EAF5C
S1131E909FAFAD97F7012089318942895389D601D3
S1131EA050966D917D918D919C9153970E94131B37
S1131EB020E030E040E05FE30E940A1DA9966CAF89
S1131EC07DAF8EAF9FAFA9971EC0EE0FFF1FEE0F21
S1131ED0FF1F21E030E02C0F3D1FE20FF31F808134
S1131EE09181A281B381AD968CAF9DAFAEAFBFAFF0
S1131EF0AD9780899189A289B389A9968CAF9DAF4A
S1131F00AEAFBFAFA997000F111F000F111FA1E0C3
S1131F10B0E0AC0FBD1F0A0F1B1FAD962CAD3DAD3D
S1131F204EAD5FADAD97F80160817181828193817F
S1131F300E94121B4B015C01A9962CAD3DAD4EAD28
S1131F405FADA997D80150966D917D918D919C912B
S1131F5053970E94121B6B017C01A5019401C501DA
S1131F60B4010E940A1D2B013C01A7019601C7017F
S1131F70B6010E940A1D9B01AC01C301B2010E947B
S1131F80131B0E94711D2B013C019B01AC01C50177
S1131F90B4010E947B1B4B015C016D966CAF7DAF5D
S1131FA08EAF9FAF6D97A3019201C701B6010E9446
S1131FB07B1B6B017C01A1966CAF7DAF8EAF9FAF95
S1131FC0A19765962CAD3DAD4EAD5FAD6597C5014E
S1131FD0B4010E940A1D4B015C0169962CAD3DAD14
S1131FE04EAD5FAD6997C701B6010E940A1D9B0102
S1131FF0AC01C501B4010E94131B2B013C019B01E0
S1132000AC010E940A1D9B01AC0160E070E080E815
S11320109FE30E94121B0E94711DA5966CAF7DAFB9
S11320208EAF9FAFA597FE01EF5AFF4F7F018E0140
S1132030075A1F4F9B01AC01C301B2010E94F6066F
S11320404C018130910509F0A1C00F2EFEE1AF2EA5
S1132050F1E0BF2EF02DD5012D913D914D915C9174
S1132060AD966CAD7DAD8EAD9FADAD970E94121B4C
S1132070A30192010E940A1D9B01AC01E5966CAD7F
S11320807DAD8EAD9FADE5970E94121B6B017C0167
S113209002E211E0F8012081318142815381A99645
S11320A06CAD7DAD8EAD9FADA9970E94121BA59618
S11320B02CAD3DAD4EAD5FADA5970E940A1D9B01B1
S11320C0AC01C701B6010E94131BED96AEADBFADC6
S11320D0ED976D937D938D939C931397F8012081D5
S11320E0318142815381A9966CAD7DAD8EAD9FAD9A
S11320F0A9970E94121BA30192010E940A1D9B0131
S1132100AC01E1966CAD7DAD8EAD9FADE1970E94C3
S1132110121B6B017C01D5012D913D914D915C9178
S1132120AD966CAD7DAD8EAD9FADAD970E94121B8B
S1132130A5962CAD3DAD4EAD5FADA5970E940A1D91
S11321409B01AC01C701B6010E94121BED96EEADD6
S1132150FFADED976483758386839783EF96AEAD69
S1132160BFADEF974D925D926D927C921397A596B9
S11321708CAD9DADAEADBFADA597EF96EEADFFAD09
S1132180EF9784839583A683B783A1C00F2EFEE1C6
S1132190AF2EF1E0BF2EF02DD5012D913D914D9143
S11321A05C91AD966CAD7DAD8EAD9FADAD970E944B
S11321B0121BA30192010E940A1D9B01AC01E5962A
S11321C06CAD7DAD8EAD9FADE5970E94121B6B018A
S11321D07C0102E211E0F8012081318142815381C6
S11321E0A9966CAD7DAD8EAD9FADA9970E94121BD3
S11321F0A5962CAD3DAD4EAD5FADA5970E940A1DD1
S11322009B01AC01C701B6010E94121BED96AEAD55
S1132210BFADED976D937D938D939C931397F801C8
S11322202081318142815381A9966CAD7DAD8EAD03
S11322309FADA9970E94121BA30192010E940A1D3F
S11322409B01AC01E1966CAD7DAD8EAD9FADE19788
S11322500E94121B6B017C01D5012D913D914D9182
S11322605C91AD966CAD7DAD8EAD9FADAD970E948A
S1132270121BA5962CAD3DAD4EAD5FADA5970E944A
S11322800A1D9B01AC01C701B6010E94131BED9608
S1132290EEADFFADED976483758386839783EF96E8
S11322A0AEADBFADEF974D925D926D927C92139758
S11322B0A5968CAD9DADAEADBFADA597B058EF96CC
S11322C0EEADFFADEF9784839583A683B783ED9638
S11322D0EEADFFADED9780819181A281B3818093B2
S11322E06E0190936F01A0937001B093710184818A
S11322F09581A681B7818093720190937301A09315
S11323007401B0937501EF96EEADFFADEF97808148
S11323109181A281B3818093660190936701A09318
S11323206801B093690184819581A681B781809306
S11323306A0190936B01A0936C01B0936D01CD572A
S1132340DF4FA881B981C358D0408D919C910497E7
S1132350E9F5ED96EEADFFADED972481358146812B
S113236057816081718182819381CB57DF4F0881CE
S11323701981C558D0400E945E0B892BF9F4EF9661
S1132380AEACBFACEF97ED96CEACDFACED97780179
S113239093018201A5964CAD5DAD6EAD7FADA59761
S11323A0C4010E94DA0720E030E048EC53E460E026
S11323B070E088EC92E40E94220A08C010928B001C
S11323C010928A0010928D0010928C00CD57DF4F2E
S11323D0A881B981C358D0408D919C91039709F08D
S11323E05CC0EF96AEACBFACEF97ED96CEACDFAC75
S11323F0ED97CB57DF4FE880F980C558D040930163
S11324008201A5964CAD5DAD6EAD7FADA597C401BF
S11324100E94DA0720E030E048EC53E460E070E02A
S113242080E792E40E94E60838C080916E019091A2
S11324306F01A0917001B0917101ED96EEADFFAD09
S1132440ED9780839183A283B383809172019091ED
S11324507301A0917401B091750184839583A6835F
S1132460B7838091660190916701A0916801B09152
S11324706901EF96EEADFFADEF9780839183A28360
S1132480B38380916A0190916B01A0916C01B0912A
S11324906D0184839583A683B78389E392E00E94C8
S11324A0DA15ED96AEADBFADED976D917D918D9141
S11324B09C910E94E31BCB010E94F41584E392E0FB
S11324C00E94DA15ED96EEADFFADED97648175814E
S11324D0868197810E94E31BCB010E94F41582E35D
S11324E092E00E94DA1581E292E00E94DA1520E07F
S11324F030E04AE754E4EF96AEADBFADEF976D918F
S11325007D918D919C910E940A1D0E94E31BCB0139
S11325100E94F41589E192E00E94DA1520E030E08F
S11325204AE754E4EF96EEADFFADEF976481758111
S1132530868197810E940A1D0E94E31BCB010E94A1
S1132540F41587E192E00E94DA1514C0EB962EADE3
S11325503FADEB972C5F3F4FEB963FAF2EAFEB9722
S1132560E3968EAD9FADE3970496E3969FAF8EAF4F
S1132570E397A5CACA57DF4F0FB6F894DEBF0FBE64
S1132580CDBFDF91CF911F910F91FF90EF90DF901E
S1132590CF90BF90AF909F908F907F906F905F90FF
S11325A04F903F902F900895589A599A5A9A8CE0D8
S11325B08093B800E9E6F0E08081806280838081C6
S11325C08F7E8083EA9A789408951F93CF93DF9344
S11325D0182FD62FC42F0E94D41294EA9093BC00D3
S11325E0ECEBF0E090819923ECF790E59093BB003D
S11325F094E89093BC00ECEBF0E090819923ECF725
S11326009091B900987F903229F484E98093BC00BA
S113261080E02DC081E08093BB0084E88093BC00FF
S1132620ECEBF0E090819923ECF71093BB0084E885
S11326308093BC00ECEBF0E080818823ECF7D0932E
S1132640BB0084E88093BC00ECEBF0E0808188233D
S1132650ECF7C093BB0084E88093BC00ECEBF0E0A3
S113266080818823ECF784E98093BC0081E0DF91CA
S1132670CF911F9108951F93CF93DF9324EA209362
S1132680BC00ECEBF0E020812223ECF721E5209361
S1132690BB0024E82093BC00ECEBF0E02081222373
S11326A0ECF72091B900287F283429F484E9809339
S11326B0BC0080E044C024EC2093BC00ECEBF0E0D0
S11326C020812223ECF71091BB0016130AC0412F7E
S11326D050E0415051091416150644F020E030E052
S11326E01CC084E98093BC0080E029C0DC0120E0A8
S11326F030E0ECEBF0E074ECCBEBD0E07083608185
S11327006623ECF768816D932F5F3F4F24173507DD
S1132710ACF3212F30E02150310944E84093BC0050
S1132720ECEBF0E040814423ECF74091BB00FC016A
S1132730E20FF31F408384E98093BC0081E0DF91C2
S1132740CF911F91089581E08093D70080EA809310
S1132750D80082E189BD09B400FEFDCF80E98093F1
S1132760D8001092E0001092910110928E018CE03A
S11327708093E20078940895CF93DF939091910130
S1132780992309F44CC09FB7F89424E02093E900FE
S113279020918F01222349F02091E80025FD03C0F8
S11327A09FBF8FEF41C010928F013091E400375EDC
S11327B02091E80025FD24C09FBF9091E400931769
S11327C081F090919101992361F1A9EEB0E044E088
S11327D0E8EEF0E0C4EED0E00DC09FBF9881931303
S11327E005C081E080938F018FEF1EC0909191010D
S11327F09923C9F09FB7F8944C93208125FFEDCF1E
S11328008093F1008091E80085FD03C08AE3809302
S1132810E80085E0809390019FBF80E005C08FEFC2
S113282003C08FEF01C08FEFDF91CF9108951F9206
S11328300F920FB60F9211248F939F93EF93FF93F0
S1132840E1EEF0E08081108283FF11C01092E90074
S113285091E09093EB001092EC0092E19093ED00E4
S113286098E09093F0001092910110928E0182FFF3
S113287013C080919101882379F08091900188237D
S113288059F0815080939001811106C084E08093B7
S1132890E9008AE38093E800FF91EF919F918F9183
S11328A00F900FBE0F901F9018951F920F920FB6A6
S11328B00F9211240F931F932F933F934F935F9382
S11328C06F937F938F939F93AF93BF93CF93DF9334
S11328D0EF93FF931092E9008091E80083FF4EC1CB
S11328E0E1EFF0E0C08140812081808130E0382B2D
S11328F08081508190E0BC01752BB081A08182EF72
S11329008093E800463009F058C004C081E2809307
S1132910EB003BC1C6E08DE492E0FC01459154918B
S11329202417350711F0079623C0FC013296459110
S113293054916417750711F007961AC0FC01349678
S113294025913491FC01369654918B2F90E09A2B6B
S11329508F3F910519F010F08FEF90E0851708F480
S1132960582FA8EEB0E070E16EEFC1EFD0E003C0E5
S1132970C15099F6CBCF8C91982F9570E1F382FDDD
S113298004C1452F513108F0472F442309F4FAC0FC
S1132990F901842F94919883815031968111FACF53
S11329A08FEF840F90E00196280F391F541B6C930E
S11329B05111E1CF4031F9F2E8C0453061F48EEFB6
S11329C08093E800E8EEF0E0808180FFFDCF20688E
S11329D02093E300DAC0493009F036C0C1115FC06A
S11329E02093910110928E01109290018EEF8093AA
S11329F0E80011E086EF92E0C9EED0E0ABEEB0E083
S1132A006CEE70E04DEE50E018839C012F5F3F4F59
S1132A10FC0104910C93002361F0F9012491FB0162
S1132A2020839C012D5F3F4FFC0132968491FA0173
S1132A3080831F5F153011F0C901E6CFEAEEF0E0A4
S1132A408EE180831082A1C0483081F4C03809F03F
S1132A5042C0E8EEF0E0808180FFFDCF80919101DB
S1132A608093F1008EEF8093E8008FC04132B9F477
S1132A70C13A09F040C0E8EEF0E0808180FFFDCF6C
S1132A80E6E2F1E08DE291E0A1EFB0E021912C9338
S1132A90E817F907D9F78EEF8093E80076C0403243
S1132AA0D1F4C13209F043C0E8EEF0E0808182FF46
S1132AB0FDCFE6E2F1E08DE291E0A1EFB0E02C91F0
S1132AC02193E817F907D9F7E8EEF0E08BEF80835C
S1132AD08EEF80835AC0423271F4C13209F04EC085
S1132AE020938E01E8EEF0E0808180FFFDCF8EEF31
S1132AF08093E8004AC041111AC0E8EEF0E08081FA
S1132B0080FFFDCFC23851F4E9EEF0E0608380919C
S1132B10EB0085FB882780F9108201C080E0E1EF9B
S1132B20F0E0808310828EEF8093E8002EC0842F23
S1132B308D7F813019F5C23009F5232BF9F46F77B5
S1132B408FEF860F8430D0F48EEF8093E80060938B
S1132B50E900433021F481E28093EB0016C089E15F
S1132B608093EB0081E090E002C0880F991F6A9582
S1132B70E2F7EAEEF0E08083108207C081E28093FE
S1132B80EB0003C06C935111F6CEFF91EF91DF91EE
S1132B90CF91BF91AF919F918F917F916F915F91F1
S1132BA04F913F912F911F910F910F900FBE0F9056
S1132BB01F9018951F93CF93DF93EC012196FC018E
S1132BC01491112369F01A3019F48DE00E94BC139A
S1132BD0812F0E94BC13FE01149121961111F3CF91
S1132BE0DF91CF911F910895EF92FF920F931F935E
S1132BF0CF93DF93CDB7DEB727970FB6F894DEBF38
S1132C000FBECDBF8E010F5F1F4F27E0F801119259
S1132C102A95E9F74AE0B8010E94F21D7E01F8E026
S1132C20EF0EF11CF80181918F0181110E94BC13F8
S1132C300E151F05B9F727960FB6F894DEBF0FBE21
S1132C40CDBFDF91CF911F910F91FF90EF90089529
S1132C5020E030E0ECEBF0E08081882334F02F5F5B
S1132C603F4F293E83E03807B9F781E0283E3340DF
S1132C7009F480E008958093BB0084E88093BC004D
S1132C800E942816882319F08091B900887F08953E
S1132C90CF93C82F94EA9093BC000E9428168823EF
S1132CA061F08C2F880F0E943B16803229F484E94E
S1132CB08093BC0080E001C081E0CF9108950E9420
S1132CC0D41288E50E944816882309F4CDC080E315
S1132CD00E943B16882309F4C9C081E00E943B1678
S1132CE0882309F4C5C084E98093BC0083EC99E08F
S1132CF00197F1F700C0000088E50E944816882378
S1132D0009F4B8C080E00E943B16882309F4B4C0DB
S1132D1080E00E943B16882309F4B0C080E00E9442
S1132D203B16882309F4ACC080E00E943B1688233C
S1132D3009F4A8C080E00E943B16882309F4A4C0CB
S1132D4080E00E943B16882309F4A0C080E00E9422
S1132D503B16882309F49CC080E90E943B16882313
S1132D6009F498C084E98093BC0083EC99E001974E
S1132D70F1F700C0000088E50E944816882309F492
S1132D808BC087E00E943B16882309F487C080E04B
S1132D900E943B16882309F483C081E40E943B16F9
S1132DA0882309F47FC084E98093BC0083EC99E014
S1132DB00197F1F700C0000088E50E9448168823B7
S1132DC009F472C08AE10E943B16882309F46EC09C
S1132DD080E40E943B16882309F46AC080E00E94C4
S1132DE03B16882309F466C084E98093BC0083EC15
S1132DF099E00197F1F700C0000088E50E944816A9
S1132E00882309F459C083E30E943B16882309F4FC
S1132E1055C083E00E943B16882309F451C084E91D
S1132E208093BC0083EC99E00197F1F700C00000A7
S1132E3088E50E944816882309F444C080E30E9470
S1132E403B16882309F440C088E00E943B1688237F
S1132E50E9F184E98093BC0083EC99E00197F1F7F0
S1132E6000C0000081E0089580E0089580E00895A6
S1132E7080E0089580E0089580E0089580E008955A
S1132E8080E0089580E0089580E0089580E008954A
S1132E9080E0089580E0089580E0089580E008953A
S1132EA080E0089580E0089580E0089580E008952A
S1132EB080E0089580E0089580E0089580E008951A
S1132EC080E0089580E0089580E0089580E008950A
S1132ED0CF93C82F94EA9093BC000E9428168823AD
S1132EE069F08C2F880F8F5F0E943B16883429F479
S1132EF084E98093BC0080E001C081E0CF91089513
S1132F00EF92FF920F931F93CF93DF93CDB7DEB76A
S1132F1060970FB6F894DEBF0FBECDBF082F192FF0
S1132F20FE01319680E1DF011D928A95E9F788E57B
S1132F300E944816882309F46EC086E30E943B165B
S1132F40882309F46AC084E98093BC00B8E0BA9588
S1132F50F1F7000088E50E946817882309F45FC030
S1132F60BE016F5F7F4F9E01205F3F4FECEBF0E0AF
S1132F7094EC4BEB50E0908380818823ECF7DA01EA
S1132F808C91DB018D93BD01A217B307A1F784E8EF
S1132F908093BC00ECEBF0E080818823ECF7809117
S1132FA0BB00888B84E98093BC00FE013496E02E3C
S1132FB0F12E8081982F9073AF0142505109DA01AC
S1132FC04C9150E0B0E19B9F400D511D1124D7015D
S1132FD04D935C93482F407C50E0440F551F440FA1
S1132FE0551FBF0161507109DB019C91490F511DAF
S1132FF0D70113965C934E9312978F7090E01596B9
S11330009C938E9314973396B6E0EB0EF11C2E1717
S11330103F0779F606C080E005C080E003C080E089
S113302001C081E060960FB6F894DEBF0FBECDBF3D
S1133030DF91CF911F910F91FF90EF9008951F9210
S11330400F920FB60F9211242F933F934F935F93D8
S11330506F937F938F939F93AF93BF93EF93FF935C
S11330606AE086EA91E00E943B138091A60190E019
S1133070FC01E05AF109E830F10508F007C1E35A10
S1133080FF4F0C94D81D83E393E00E94DA1581E08E
S113309090E09093B5018093B401F8C08CE293E082
S11330A00E94DA15379B19C080E090E0A8ECB3ECDD
S11330B08093350190933601A0933701B093380182
S11330C080E090E0A8E4B3EC80932D0190932E016E
S11330D0A0932F01B093300118C080E090E0A8ECD9
S11330E0B3E48093350190933601A0933701B093F4
S11330F0380180E090E0A8E4B3E480932D0190933C
S11331002E01A0932F01B0933001369B03C02A9A5D
S11331102B9802C02B9A2A9885E090E09093B501F1
S11331208093B4010E948C0322E931E04AE951E022
S113313065E371E084EB91E00E94960B84EB91E0EF
S11331400E946906A3C084E293E00E94DA1580918C
S1133150A70190E09093A5018093A4018091A80118
S113316090E09093A3018093A20110928B0010929F
S11331708A0010928D0010928C001092B50110926A
S1133180B40184C08CE193E00E94DA158091A70118
S113319090E09093A5018093A4018091A80190E010
S11331A09093A3018093A20110928B0010928A0045
S11331B010928D0010928C001092B5011092B401FF
S11331C065C085E193E00E94DA151092B501109272
S11331D0B40110928B0010928A0010928D0010920C
S11331E08C0054C08BE093E00E94DA15369B19C022
S11331F080E090E0A8ECB3EC809335019093360125
S1133200A0933701B093380180E090E0A8E4B3ECD8
S113321080932D0190932E01A0932F01B093300140
S113322018C080E090E0A8ECB3E48093350190935B
S11332303601A0933701B093380180E090E0A8E410
S1133240B3E480932D0190932E01A0932F01B093AA
S113325030011092B5011092B40110928B001092BB
S11332608A0010928D0010928C0010C080E093E0D0
S11332700E94DA151092B5011092B40110928B00DD
S113328010928A0010928D0010928C00FF91EF91A1
S1133290BF91AF919F918F917F916F915F914F916A
S11332A03F912F910F900FBE0F901F901895209A69
S11332B0289A219A299A80E293E090938900809336
S11332C0880010928B0010928A0010928D00109248
S11332D08C00A1E8B0E08C9180618C938C91886023
S11332E08C93E0E8F0E0808182608083808181605B
S11332F0808380818062808380818F7E80838081CF
S11333008860808380818B7F8083269A279A8C9122
S11333108B7F8C938C918D7F8C938C9181608C931B
S11333200895E1E6F0E080E8808310821092B50110
S11333301092B4010E94A3130E945F166E9A7698AD
S11333400E94D4124AE06EE081E00E94E5126E9A77
S1133350769A0E9457190E94DD013E983F9847983B
S1133360229A239A379B19C080E090E0A8ECB3EC32
S11333708093350190933601A0933701B0933801BF
S113338080E090E0A8E4B3E480932D0190932E01B3
S1133390A0932F01B093300118C080E090E0A8EC16
S11333A0B3E48093350190933601A0933701B09331
S11333B0380180E090E0A8E4B3EC80932D01909371
S11333C02E01A0932F01B0933001369B1CC02A9A82
S11333D02B986894BB24B6F86894AA24A2F80F2EFC
S11333E0F1E3CF2EF1E0DF2EF02D0F2EF9E3EF2ED7
S11333F0F1E0FF2EF02D0AE810E0CCE8D0E068946C
S1133400992493F803C02B9A2A98E3CF84E793E096
S11334100E94DA158091B4019091B5010E94F415CF
S113342082E793E00E94DA158091B4019091B5018E
S11334308230910571F12CF4009761F0019781F0CD
S1133440C7C08430910509F46FC0D4F1059709F41D
S1133450A1C0BEC0F8011182108219821882B8C0BE
S1133460369B05C085B18A2585B92B9804C085B1E2
S1133470892585B92A986E9A8EB18B258EB9FFE37A
S11334802DE083E0F15020408040E1F700C00000CF
S11334909FC06E9A8EB18B258EB96A9A729A80916A
S11334A0B4019091B5010E948C0322E931E04AE90C
S11334B051E065E371E084EB91E00E94960B88C0D3
S11334C06A9A8EB18A258EB96E9A769A22E931E08B
S11334D04AE951E065E371E084EB91E00E94960BC8
S11334E08AE693E00E94DA15609135017091360105
S11334F080913701909138010E94E31BCB010E9417
S1133500F41587E693E00E94DA15F7016081718172
S1133510828193810E94E31BCB010E94F41585E60E
S113352093E00E94DA1554C06A9A8EB18A258EB946
S11335306E9A8EB18B258EB922E931E04AE951E0C9
S11335406DE271E084EB91E00E94960B82E593E0DA
S11335500E94DA1560912D0170912E0180912F0146
S1133560909130010E94E31BCB010E94F4158FE47B
S113357093E00E94DA15F601608171818281938162
S11335800E94E31BCB010E94F4158DE493E00E949A
S1133590DA151EC06E9A8EB18B258EB96A9A8EB1D9
S11335A08A258EB98091B4019091B5010E948C0353
S11335B022E931E04AE951E065E371E084EB91E00E
S11335C00E94960B62E971E084EB91E00E94900600
S11335D084E493E00E94DA15F801808191810E94CD
S11335E0F41581E493E00E94DA15888199810E94A0
S11335F0F4158FE393E00E94DA1585EA9EE00197C3
S1133600F1F700C0000002CF9F939F774AD10F903B
S113361000203AF49058A2EA2AED3FE049E450E44D
S113362013D0BAC15058BB27AA270ED0B5C1A6D112
S113363030F0ABD120F031F49F3F11F41EF476C189
S11336400EF4E095E7FB6CC1E92FB7D180F3BA170C
S1133650620773078407950718F071F49EF5CFC1CC
S11336600EF4E0950B2EBA2FA02D0B01B901900199
S11336700C01CA01A0011124FF27591B99F0593FDD
S113368050F4503E68F11A16F040A22F232F342F25
S11336904427585FF3CF469537952795A795F04073
S11336A05395C9F77EF41F16BA0B620B730B840B88
S11336B0BAF09150A1F0FF0FBB1F661F771F881F40
S11336C0C2F70EC0BA0F621F731F841F48F4879598
S11336D077956795B795F7959E3F08F0B3CF939587
S11336E0880F08F09927EE0F979587950895F4D0E1
S11336F008F481E008950CD04FC147D140F03ED189
S113370030F021F45F3F19F00BC1511179C10EC1A2
S113371054D198F39923C9F35523B1F3951B550B51
S1133720BB27AA2762177307840738F09F5F5F4F90
S1133730220F331F441FAA1FA9F333D00E2E3AF0D1
S1133740E0E830D091505040E695001CCAF729D0EB
S1133750FE2F27D0660F771F881FBB1F261737073A
S11337604807AB07B0E809F0BB0B802DBF01FF276A
S113377093585F4F2AF09E3F510568F0D1C040C175
S11337805F3FECF3983EDCF3869577956795B795A4
S1133790F7959F5FC9F7880F911D9695879597F9BF
S11337A00895E1E0660F771F881FBB1F6217730738
S11337B08407BA0720F0621B730B840BBA0BEE1F4D
S11337C088F7E095089504D06894B11119C108955B
S11337D0FCD088F09F5790F0B92F9927B751A0F0EB
S11337E0D1F0660F771F881F991F1AF0BA95C9F791
S11337F012C0B13081F003D1B1E0089500C1672F48
S1133800782F8827B85F39F0B93FCCF38695779540
S11338106795B395D9F73EF4909580957095619529
S11338207F4F8F4F9F4F0895E89409C097FB3EF454
S113383090958095709561957F4F8F4F9F4F9923F9
S1133840A9F0F92F96E9BB279395F6958795779577
S11338506795B795F111F8CFFAF4BB0F11F460FF37
S11338601BC06F5F7F4F8F4F9F4F16C0882311F08F
S113387096E911C0772321F09EE8872F762F05C0A3
S1133880662371F096E8862F70E060E02AF09A953E
S1133890660F771F881FDAF7880F9695879597F933
S11338A00895DF93CF931F930F938B01EC01EAEC00
S11338B0F0E03FD071D09801AE018B01EC0160E0E3
S11338C070E080E89FE3AEDE0CD19801AE010F9169
S11338D01F91CF91DF91AAC0990F0008550FAA0B31
S11338E0E0E8FEEF16161706E807F907C0F012160F
S11338F01306E407F50798F0621B730B840B950B12
S113390039F40A2661F0232B242B252B21F4089566
S11339100A2609F4A140A6958FEF811D811D089503
S113392097F99F6780E870E060E008959FEF80EC6E
S11339300895DF93CF931F930F93FF92EF92DF923B
S11339407B018C01689405C0DA2EEF016FD0FE0173
S1133950E894A5912591359145915591AEF3EF01E8
S113396073DEFE019701A801DA9479F7DF90EF90F6
S1133970FF900F911F91CF91DF91089500240A9435
S11339801616170618060906089500240A94121636
S11339901306140605060895092E0394000C11F469
S11339A0882352F0BB0F40F4BF2B11F460FF04C016
S11339B06F5F7F4F8F4F9F4F089557FD9058440F6F
S11339C0551F59F05F3F71F04795880F97FB991F7A
S11339D061F09F3F79F08795089512161306140637
S11339E0551FF2CF4695F1DF08C0161617061806C4
S11339F0991FF1CF86957105610508940895E8949F
S1133A00BB2766277727CB0197F9089565DF08F46C
S1133A108FEF08950BD0C0CFB1DF28F0B6DF18F0D8
S1133A20952309F07DCF82CF1124EACFC6DFA0F31E
S1133A30959FD1F3950F50E0551F629FF001729F3F
S1133A40BB27F00DB11D639FAA27F00DB11DAA1F5E
S1133A50649F6627B00DA11D661F829F2227B00DAB
S1133A60A11D621F739FB00DA11D621F839FA00D36
S1133A70611D221F749F3327A00D611D231F849F86
S1133A80600D211D822F762F6A2F11249F575040DD
S1133A908AF0E1F088234AF0EE0FFF1FBB1F661F78
S1133AA0771F881F91505040A9F79E3F510570F031
S1133AB037CFA6CF5F3FECF3983EDCF3869577953E
S1133AC06795B795F795E7959F5FC1F7FE2B880F2C
S1133AD0911D9695879597F9089511F40EF426CFC4
S1133AE03EC073DFD0F39923D9F3CEF39F57550B20
S1133AF087FF43D00024A0E640EA90018058569501
S1133B00979528F4805C660F771F881F20F026178E
S1133B103707480730F4621B730B840B20293129C3
S1133B204A2BA69517940794202531254A2758F740
S1133B30660F771F881F20F026173707480730F4D1
S1133B40620B730B840B200D311D411DA09581F771
S1133B50B901842F9158880F9695879508959F3FB2
S1133B6031F0915020F4879577956795B795880F34
S1133B70911D9695879597F9089591505040660F39
S1133B80771F881FD2F7089597FB072E16F4009429
S1133B9007D077FD09D00E94DE1D07FC05D03EF456
S1133BA0909581959F4F0895709561957F4F0895E5
S1133BB0EE0FFF1F0590F491E02D0994AA1BBB1B87
S1133BC051E107C0AA1FBB1FA617B70710F0A61B19
S1133BD0B70B881F991F5A95A9F780959095BC013A
S1133BE0CD010895BB274A3031F4992322F4BDE274
S1133BF0909581959F4F0C94FE1DBB27FB01552783
S1133C00AA27880F991FAA1FA41710F0A41B839535
S1133C105051B9F7A05DAA3308F0A95DA1930097AC
S1133C2079F7B111B1931192CB010C94171EDC01F9
S1133C30FC01672F71917723E1F7329704C07C91DF
S1133C406D9370836291AE17BF07C8F30895F8941B
S1053C50FFCFA0
S1133C528A02008009450000E84185EBCF41D7A3E1
S1133C62B841744B9C3E000000408A028A02000064
S1133C72FB430080C24300E100000000080000484A
S1113C8243000000000000C8430000000000E2
S9030000FC
