:100000000C94BE010C94DB010C94DB010C946B127C
:100010000C94DB010C94DB010C94DB010C94DB01F0
:100020000C94DB010C94DB010C9492160C94D0160A
:100030000C94DB010C94DB010C94DB010C94DB01D0
:100040000C94DB010C94DB010C94DB010C94DB01C0
:100050000C94DB010C94DB010C94DB010C94DB01B0
:100060000C94DB010C94DB010C94DB010C94DB01A0
:100070000C94DB010C9434050C94DB010C94DB0133
:100080000C94DB010C94DB010C94DB010C94DB0180
:100090000C94DB010C94DB010C94DB010C94DB0170
:1000A0000C94DB010C94DB010C94DB01A105B2057F
:1000B000C305D405E505F605070690129B12F0125C
:1000C0000F132E1393133F138313072C7AA5BA6CC7
:1000D000C590DA3B9365FC8BBC53F810FD3C5692FF
:1000E000834DBD879D3AB63DCBC9BF5BBE73DA0F6A
:1000F000C93F6C6F737420746865207075636B21E1
:100100000A00676F7420746865207075636B210A3C
:10011000007475726E2072696768740A0074757273
:100120006E206C6566740A005049440A007475724A
:100130006E2072696768740A005049440A00747539
:10014000726E206C6566740A000A002C20006D65D2
:10015000616E3032342C206D65616E3133353A205A
:10016000000D0A000D0A0050686F5B365D000D0A35
:100170000050686F5B355D000D0A0050686F5B349E
:100180005D000D0A0050686F5B335D000D0A005082
:10019000686F5B325D000D0A0050686F5B315D0077
:1001A0000D0A0050686F5B305D000D0A00747572B7
:1001B0006E206C6566740A007475726E20726967D1
:1001C00068740A000A006761696E2A31303A2000BB
:1001D0000A00616C7068612A31303A2000747572CF
:1001E0006E206C6566740A007475726E20726967A1
:1001F00068740A000A006761696E2A31303A20008B
:100200000A00616C7068612A31303A20000A00618E
:100210006C7068613A20000A000976793A20302E25
:1002200000446972656374696F6E2076783A203095
:100230002E000A000909793A00506F736974696FDA
:100240006E20783A000A00646D61783A0047616D6B
:1002500065206F7665720A0048616C6674696D6529
:100260000A0050617573650A00476F616C20420A8D
:1002700000476F616C20410A00506C6179200A00D0
:10028000666C617368204C4544200A000A002C20EB
:100290000031422C2031433A20000A002C20004437
:1002A000657369726520506F736974696F6E203D64
:1002B00020000A002C2000676F616C203D20000A9E
:1002C0000073746174653A2000000100006003123D
:1002D000000200001D034300030000190304010392
:1002E000090405031202030904FD020603030904BD
:1002F000F302080803340031003000000006034D0B
:10030000003200000012034A002E0020004600695F
:100310000065006E00650000000403090409024343
:1003200000020100C03209040000010202010005C0
:1003300024001001052401010104240206052406FD
:1003400000010705820310004009040100020A00B1
:10035000000007050302400000070584024000007A
:100360001201000202000010C0167A04000101020E
:1003700003010001C11201803601813611241FBE24
:10038000CFEFDAE0DEBFCDBF11E0A0E0B1E0E8ECF6
:10039000FBE302C005900D92AC33B107D9F721E021
:1003A000ACE3B1E001C01D92A43BB207E1F70E94AB
:1003B000DE130C94E21D0C940000CF93DF93ACE7A6
:1003C000B0E08C918F778C938C9180648C93EAE76A
:1003D000F0E080818460808380818260808380817E
:1003E00081608083CEE7D0E08881816088838881C6
:1003F00082608883CDE7D0E08881826088838881AD
:10040000846088838881886088838881806188830C
:10041000888181608883CBE7D0E088818F7D888365
:100420008C918B7F8C938C918D7F8C938C918E7F14
:100430008C938081806280838081886080837894BF
:10044000808180688083808180648083DF91CF9108
:1004500008958F929F92AF92BF92CF92DF92EF92C8
:10046000FF920F931F93CF93DF936B017C014901A0
:100470005A01E6E4F1E0C081D18184819581C80F01
:10048000D91F2281338186819781820F931FC81BD8
:10049000D90BD093B101C093B001809142019091EA
:1004A00043018E01081B190B10933F0100933E017D
:1004B00080914001909141018C0F9D1F90934101CB
:1004C00080934001BE010D2E000C880B990B0E94F9
:1004D000BB1BA70196010E94B71C6B017C01B801F0
:1004E000110F880B990B0E94BB1BA50194010E9460
:1004F000B71C9B01AC01C701B6010E94A01A0E9463
:10050000831B7093AF016093AE01D0934301C093FE
:1005100042011616170674F59B01772324F422274F
:100520003327261B370B8AE892E0821B930B9093AC
:100530008D0080938C002091000130910101809109
:10054000AE019091AF0199231CF491958195910989
:100550002817390744F48AE892E0821B930B9093A2
:100560008D0080938C008AE892E090938B008093BA
:100570008A002DC09B01772324F422273327261BD2
:10058000370B8AE892E0821B930B90938B00809349
:100590008A0020910001309101018091AE0190917B
:1005A000AF0199231CF4919581959109281739077A
:1005B00044F48AE892E0821B930B90938B00809323
:1005C0008A008AE892E090938D0080938C00DF91FE
:1005D000CF911F910F91FF90EF90DF90CF90BF9040
:1005E000AF909F908F9008958F929F92AF92BF92FD
:1005F000CF92DF92EF92FF920F931F93CF93DF93EF
:100600006B017C0149015A01E6E4F1E0C081D1812E
:1006100084819581C80FD91F22813381868197817A
:10062000820F931FC81BD90BD093B101C093B001A7
:1006300080914201909143018E01081B190B109388
:100640003D0100933C01BE010D2E000C880B990B5F
:100650000E94BB1BA70196010E94B71C6B017C0185
:10066000B801110F880B990B0E94BB1BA5019401C7
:100670000E94B71C9B01AC01C701B6010E94A01AE1
:100680000E94831B7093AF016093AE01D09343012E
:10069000C09342019B01772324F422273327261B92
:1006A000370B2A3882E038075CF08AE892E09093B2
:1006B0008D0080938C0090938B0080938A0011C0F2
:1006C00030938D0020938C008091AE019091AF010A
:1006D00099231CF491958195910990938B008093B7
:1006E0008A00DF91CF911F910F91FF90EF90DF90E3
:1006F000CF90BF90AF909F908F900895AF92BF9290
:10070000CF92DF92EF92FF920F931F93CF93DF93DD
:100710007C018AEA91E00E94531883EA91E00E94EA
:100720005318C6E4D1E0888199810E946F1880EA4D
:1007300091E00E94531889E991E00E9453188A8140
:100740009B810E946F1886E991E00E9453188FE800
:1007500091E00E9453188C819D810E946F188CE853
:1007600091E00E94531885E891E00E9453188E8111
:100770009F810E946F1882E891E00E9453188BE7D6
:1007800091E00E945318888599850E946F1888E728
:1007900091E00E94531881E791E00E9453188A85E6
:1007A0009B850E946F188EE691E00E94531887E6A1
:1007B00091E00E9453188C859D850E946F1884E6F5
:1007C00091E00E94531881E691E00E94531828811D
:1007D00039818C819D81820F931F28853985820FF5
:1007E000931FE3E0F0E0BF010E947F1D8B016B01CE
:1007F0002A813B818E819F81820F931F2A853B85B1
:10080000820F931FBF010E947F1DEB015B018EE4ED
:1008100091E00E945318C8010E946F188BE491E088
:100820000E945318CE010E946F1889E491E00E9443
:10083000531842E0E416F10431F055E0E516F104F6
:1008400009F4B5C006C1C8018C1B9D0BC39774F495
:10085000C017D1070CF04CC0E6E4F1E020853185EB
:1008600084819581821793070CF042C08EE391E05A
:100870000E94531889E9C81688E0D8066CF0289AB7
:1008800029988AE892E090938D0080938C00909351
:100890008B0080938A00DDC0289A299A8AE892E02A
:1008A0002091000130910101AC01421B530B509388
:1008B0008D0040938C0090938B0080938A00E6E437
:1008C000F1E02481358180859185821793070CF0B2
:1008D000C0C089E391E00E94531820E030E040E777
:1008E00051E46AE979E989E99EE30E942902B1C0ED
:1008F000C01BD10BE39774F4CA14DB040CF04CC09A
:10090000E6E4F1E02285338586819781821793079B
:100910000CF042C08DE291E00E94531859E9A516EF
:1009200058E0B5066CF0299A28988AE892E09093EE
:100930008B0080938A0090938D0080938C0089C0F7
:10094000289A299A8AE892E02091000130910101C9
:10095000AC01421B530B50938B0040938A00909341
:100960008D0080938C00E6E4F1E02681378182855A
:100970009385821793070CF06CC088E291E00E9487
:10098000531820E030E040E751E46AE979E989E969
:100990009EE30E9429025DC020E030E040E751E480
:1009A00067E676E686E69FE30E94290252C0C80108
:1009B0008C1B9D0BC3972CF18DE191E00E94531885
:1009C000289A2998E6E4F1E0248135818085918593
:1009D000821793075CF420E030E040E050E460E0F0
:1009E00070E080E89FE30E94F40233C08AE892E05E
:1009F00090938B0080938A0090938D0080938C005D
:100A000028C0C01BD10BE39724F181E191E00E9443
:100A100053182898299AE6E4F1E0268137818285E7
:100A20009385821793075CF420E030E040E050E4C7
:100A300060E070E080E89FE30E94F4020AC08AE868
:100A400092E090938B0080938A0090938D00809326
:100A50008C00DF91CF911F910F91FF90EF90DF906D
:100A6000CF90BF90AF9008951F920F920FB60F9244
:100A700011248F929F92AF92BF92EF92FF920F93A9
:100A80001F932F933F934F935F936F937F938F9316
:100A90009F93AF93BF93CF93DF93EF93FF93C09157
:100AA0004401D0914501E0907800F09079008E01EA
:100AB000000F111F0A5B1E4FF80160817181072E24
:100AC000000C880B990B0E94BB1B2DEC3CEC4CE4FA
:100AD0005FE30E94B71C4B015C01B70180E090E02E
:100AE0000E94B91B2CEC3CEC4CE45EE30E94B71C6A
:100AF0009B01AC01C501B4010E94A01A0E94831B96
:100B0000F801718360832196C830D1052CF4D0930D
:100B10004501C093440104C0109245011092440164
:100B2000EAE7F0E080818F778083E0914401F091E3
:100B30004501E730F10508F07AC0EA5AFF4F0C94FE
:100B4000931DEBE7F0E080818F7D8083ECE7F0E0A0
:100B500080818B7F808380818D7F808380818E7F69
:100B6000808365C0EBE7F0E080818F7D8083ECE7D8
:100B7000F0E080818B7F808380818D7F8083808186
:100B80008160808354C0EBE7F0E0808180628083E5
:100B9000ECE7F0E080818B7F808380818D7F808394
:100BA00080818160808343C0EBE7F0E080818062D8
:100BB0008083ECE7F0E080818B7F8083808182609E
:100BC000808380818E7F808332C0EBE7F0E080817C
:100BD00080628083ECE7F0E080818B7F808380817E
:100BE0008260808380818160808321C0EBE7F0E0B8
:100BF000808180628083ECE7F0E080818460808384
:100C000080818D7F808380818E7F808310C0EBE721
:100C1000F0E0808180628083ECE7F0E080818B7F70
:100C2000808380818D7F808380818E7F8083EAE7CF
:100C3000F0E0808180688083808180648083FF9180
:100C4000EF91DF91CF91BF91AF919F918F917F9164
:100C50006F915F914F913F912F911F910F91FF9055
:100C6000EF90BF90AF909F908F900F900FBE0F901E
:100C70001F901895FC0120813181225031092230CA
:100C80003105E0F42091520130915301253883E081
:100C900038074CF023E030E03183208382E091E09C
:100CA0000E94531808952438334044F422E030E081
:100CB0003183208382EF90E00E9453180895E6E488
:100CC000F1E04081518122813381240F351F44811D
:100CD0005581240F351F46815781240F351F4091C0
:100CE000020150910301421753072CF422E030E037
:100CF000FC013183208308954F925F926F927F921F
:100D00008F929F92AF92BF92CF92DF92EF92FF921B
:100D10000F931F93CF93DF93CDB7DEB760970FB6D6
:100D2000F894DEBF0FBECDBF2B013C0129833A836F
:100D30004B835C8358018701F501C080D180E2803C
:100D4000F3809B01AC01C701B6010E94B71CF801FA
:100D500020813181428153810E949F1A6D837E835D
:100D60008F839887F50184809580A680B78029813C
:100D70003A814B815C81C501B4010E94B71C69872F
:100D80007A878B879C879B01AC016D817E818F81E7
:100D900098850E949F1A6D877E878F87988BA50103
:100DA0009401C301B2010E94B71CF801248135816E
:100DB000468157810E949F1A2B013C0129813A816B
:100DC0004B815C81C701B6010E94B71C69837A839D
:100DD0008B839C839B01AC01C301B2010E94A01ACA
:100DE0006B017C0129853A854B855C856D817E810F
:100DF0008F8198850E94A01A6D837E838F83988748
:100E000029813A814B815C81C301B2010E949F1A02
:100E10002B013C012D853E854F855889CA01B901BA
:100E20000E94B71C4B015C01A7019601C701B601E6
:100E30000E94B71C9B01AC01C501B4010E94A01A1D
:100E40006B017C012D813E814F815885CA01B9011A
:100E50000E94B71C4B015C01A3019201C301B201C6
:100E60000E94B71C9B01AC01C501B4010E94A01AED
:100E70009B01AC0101E010E0C701B6010E940C1B10
:100E8000882314F000E010E0C80160960FB6F894D3
:100E9000DEBF0FBECDBFDF91CF911F910F91FF90AD
:100EA000EF90DF90CF90BF90AF909F908F907F900A
:100EB0006F905F904F9008952F923F924F925F9264
:100EC0006F927F928F929F92AF92BF92CF92DF925A
:100ED000EF92FF920F931F93CF93DF93CDB7DEB7BF
:100EE0002C970FB6F894DEBF0FBECDBF1C014D830B
:100EF0005E836F83788709871A872B873C878501F4
:100F0000F6012081318142815381F7016081718135
:100F1000828193810E949F1A4B015C01F60124811A
:100F2000358146815781F70164817581868197817A
:100F30000E949F1A6B017C01A5019401C501B401B7
:100F40000E94B71C2B013C01A7019601C701B60105
:100F50000E94B71C69837A838B839C8329813A81A1
:100F60004B815C81C301B2010E94A01A0E942A1D1C
:100F70002B013C019B01AC01C501B4010E94111B76
:100F80004B015C01A3019201C701B6010E94111B34
:100F90006B017C01F8012081318142815381C501BF
:100FA000B4010E94B71C2B013C01F801248135815A
:100FB00046815781C701B6010E94B71C9B01AC0155
:100FC000C301B2010E94A01A0E948E1A2B013C019B
:100FD0002A942328D1F429853A854B855C8550587D
:100FE000C701B6010E94B71C6B017C012D813E81B7
:100FF0004F815885C501B4010E94B71C9B01AC010B
:10100000C701B6010E94A01A19C029853A854B85EF
:101010005C855058C701B6010E94B71C6B017C016A
:101020002D813E814F815885C501B4010E94B71CB6
:101030009B01AC01C701B6010E949F1A20E030E07D
:10104000A9010E940C1B88234CF040926001509231
:10105000610160926201709263010CC077FA709432
:1010600077F8709440926001509261016092620141
:10107000709263018FE092E00E94531820E030E00C
:1010800040E251E4609160017091610180916201E0
:10109000909163010E94B71C0E94831BCB010E94A8
:1010A0006F188DE092E00E9453182C960FB6F894BA
:1010B000DEBF0FBECDBFDF91CF911F910F91FF908B
:1010C000EF90DF90CF90BF90AF909F908F907F90E8
:1010D0006F905F904F903F902F9008954F925F9246
:1010E0006F927F928F929F92AF92BF92CF92DF9238
:1010F000EF92FF92CF93DF9300D000D0CDB7DEB751
:101100004B015C0129833A834B835C8340906001EF
:1011100050906101609062017090630120915C01C8
:1011200030915D0140915E0150915F01C301B201B8
:101130000E949F1A6B017C016093580170935901C2
:1011400080935A0190935B01A5019401C301B20100
:101150000E94B71C4B015C0129813A814B815C8163
:10116000C701B6010E94B71C9B01AC01C501B401C7
:101170000E94A01A60935401709355018093560108
:101180009093570140925C0150925D0160925E0124
:1011900070925F0182E092E00E94531820E030E0FC
:1011A00040E251E4609160017091610180916201BF
:1011B000909163010E94B71C0E94831BCB010E9487
:1011C0006F1880E092E00E94531886EF91E00E9431
:1011D000531820E030E040E251E4609154017091F6
:1011E000550180915601909157010E94B71C0E94B1
:1011F000831BCB010E946F1884EF91E00E9453186B
:1012000020E030E0A9016091540170915501809176
:101210005601909157010E940C1B88230CF044C08A
:1012200088EE91E00E94531860915401709155012D
:1012300080915601909157010E94831B9B01772357
:1012400024F422273327261B370B8AE892E0821BDF
:10125000930B90938B0080938A00E0901A01F0909A
:101260001B0160915401709155018091560190913C
:1012700057010E94831B9B01772324F422273327E5
:10128000261B370BE216F30644F48AE892E08E1927
:101290009F0990938B0080938A008AE892E0909354
:1012A0008D0080938C0043C08DED91E00E94531817
:1012B00060915401709155018091560190915701B0
:1012C0000E94831B9B01772324F422273327261BAC
:1012D000370B8AE892E0821B930B90938D008093EA
:1012E0008C00E0901A01F0901B0160915401709104
:1012F000550180915601909157010E94831B9B01DB
:10130000772324F422273327261B370BE216F30614
:1013100044F48AE892E08E199F0990938D0080939F
:101320008C008AE892E090938B0080938A000F9063
:101330000F900F900F90DF91CF91FF90EF90DF9083
:10134000CF90BF90AF909F908F907F906F905F9065
:101350004F9008954F925F926F927F928F929F92DB
:10136000AF92BF92CF92DF92EF92FF92CF93DF9333
:1013700000D000D0CDB7DEB74B015C0129833A83A2
:101380004B835C83409060015090610160906201EA
:101390007090630120915C0130915D0140915E018C
:1013A00050915F01C301B2010E949F1A6B017C0141
:1013B000609358017093590180935A0190935B0197
:1013C000A5019401C301B2010E94B71C4B015C014D
:1013D00029813A814B815C81C701B6010E94B71C0B
:1013E0009B01AC01C501B4010E94A01A6093540195
:1013F00070935501809356019093570140925C0180
:1014000050925D0160925E0170925F0182ED91E009
:101410000E94531820E030E040E251E46091600106
:101420007091610180916201909163010E94B71CEB
:101430000E94831BCB010E946F1880ED91E00E94F7
:10144000531886EC91E00E94531820E030E040E20F
:1014500051E4609154017091550180915601909131
:1014600057010E94B71C0E94831BCB010E946F187A
:1014700084EC91E00E94531820E030E0A9016091D3
:1014800054017091550180915601909157010E942D
:101490000C1B88230CF044C088EB91E00E94531889
:1014A00060915401709155018091560190915701BE
:1014B0000E94831B9B01772324F422273327261BBA
:1014C000370B8AE892E0821B930B90938B008093FA
:1014D0008A00E0901801F090190160915401709118
:1014E000550180915601909157010E94831B9B01E9
:1014F000772324F422273327261B370BE216F30623
:1015000044F48AE892E08E199F0990938B008093AF
:101510008A008AE892E090938D0080938C0043C00B
:101520008DEA91E00E945318609154017091550129
:1015300080915601909157010E94831B9B01772354
:1015400024F422273327261B370B8AE892E0821BDC
:10155000930B90938D0080938C00E0901801F09095
:10156000190160915401709155018091560190913B
:1015700057010E94831B9B01772324F422273327E2
:10158000261B370BE216F30644F48AE892E08E1924
:101590009F0990938D0080938C008AE892E090934D
:1015A0008B0080938A000F900F900F900F90DF9127
:1015B000CF91FF90EF90DF90CF90BF90AF909F9032
:1015C0008F907F906F905F904F900895CF92DF92B1
:1015D000EF92FF920F931F93CF93DF936B017C01E8
:1015E00020E030E0A901F80160817181828193815E
:1015F0000E940C1B88237CF4D1E0C0E020E030E0A6
:10160000A901C701B6010E940C1B88230CF0D0E091
:101610008D2F9C2F0EC0D1E0C0E020E030E0A9016A
:10162000C701B6010E94B21C18160CF0D0E08D2F35
:101630009C2FDF91CF911F910F91FF90EF90DF9042
:10164000CF9008952F923F924F925F926F927F9228
:101650008F929F92AF92BF92CF92DF92EF92FF92C2
:101660000F931F93CF93DF93CDB7DEB7C658D10941
:101670000FB6F894DEBF0FBECDBFCD57DF4F9983B5
:101680008883C358D040CB57DF4F79836883C558D0
:10169000D040EF965FAF4EAFEF97C158DF4F398321
:1016A0002883CF57D04084E791E00E94FB1904E7DC
:1016B00011E0D8016D917C9180E090E00E94B91B0F
:1016C00069837A838B839C83F8016681778180E0CC
:1016D00090E00E94B91B6D837E838F839887D80129
:1016E0001C966D917C911D9780E090E00E94B91B43
:1016F00069877A878B879C87F8016289738980E084
:1017000090E00E94B91B6D877E878F87988BD801E8
:1017100012966D917C91139780E090E00E94B91B26
:10172000698B7A8B8B8B9C8BF8016085718580E04F
:1017300090E00E94B91B6D8B7E8B8F8B988FD801A8
:101740001E966D917C911F9780E090E00E94B91BDE
:10175000698F7A8F8B8F9C8FF8016489758980E0FF
:1017600090E00E94B91B6D8F7E8F8F8F98A39E0192
:101770002F5F3F4FE7963FAF2EAFE797CE014196E1
:10178000AB969FAF8EAFAB97612C712C00E010E051
:10179000D3011196E396BFAFAEAFE39714970CF069
:1017A00068C6E796AEADBFADE7978D919D910D9060
:1017B000BC91A02DA9968CAF9DAFAEAFBFAFA9973E
:1017C000CF57DF4F19830883C158D040C801880F15
:1017D000991FE9E3F0E0EC0FFD1FE80FF91FA39656
:1017E000FFAFEEAFA3970F2EF5E48F2E912CF02DC7
:1017F0008C0E9D1E880E991E1801220C331C220C83
:10180000331C21E230E02C0F3D1F220E331EAB961D
:10181000AEACBFACAB97E7964EAC5FACE797E39648
:101820000EAD1FADE397C101120124014501530123
:101830003C0120E030EC4FE754E4A9966CAD7DAD5F
:101840008EAD9FADA9970E940C1B882309F49AC006
:10185000AB96AEADBFADAB97CD90DD90ED90FC906B
:1018600020E030EC4FE754E4C701B6010E940C1BA6
:10187000882309F487C0D10114968D919D910D9014
:10188000BC91A02DE1968CAF9DAFAEAFBFAFE197FD
:1018900020E030EC4FE754E4BC01CD010E940C1B6A
:1018A000882309F46FC0D40114968D919D910D90F9
:1018B000BC91A02DED968CAF9DAFAEAFBFAFED97B5
:1018C00020E030EC4FE754E4BC01CD010E940C1B3A
:1018D000882309F457C0E1962CAD3DAD4EAD5FAD08
:1018E000E197A9966CAD7DAD8EAD9FADA9970E9495
:1018F0009F1AE1966CAF7DAF8EAF9FAFE197ED96EB
:101900002CAD3DAD4EAD5FADED97C701B6010E9468
:101910009F1A6B017C01E1962CAD3DAD4EAD5FADE4
:10192000E197CA01B9010E94B71CED966CAF7DAF7B
:101930008EAF9FAFED97E1962CAD3DAD4EAD5FAD57
:10194000E197CA01B9010E94B71CE1966CAF7DAF67
:101950008EAF9FAFE197A7019601C701B6010E9424
:10196000B71C9B01AC01E1966CAD7DAD8EAD9FAD1A
:10197000E1970E94A01A0E942A1DF30160837183DF
:1019800082839383A396AEADBFADA397AD92BD9274
:10199000A396BFAFAEAFA397F201019311932F01AE
:1019A0000F5F1F4FF4E02F0E311C24E0820E911CBC
:1019B00034E0630E711C0430110509F03ACFCF57A3
:1019C000DF4F08811981C158D040E3968EAD9FAD9D
:1019D000E397081B190B0C5F1F4FE796AEADBFAD29
:1019E000E7971496E796BFAFAEAFE797AB96EEAD2D
:1019F000FFADAB973496AB96FFAFEEAFAB973C0124
:101A0000039709F0C5CE1016110664F55E0121E2B8
:101A1000A20EB11C212C312CE12CF12CC12CD12C8B
:101A2000D5014D905D906D907D905D01B7010F2CBB
:101A3000000C880B990B0E94BB1B9B01AC01C301DE
:101A4000B2010E94B21C181634F4C301B2010E9404
:101A5000831B7B011601BFEFCB1ADB0AC016D10630
:101A6000F9F604C0212C312CE12CF12C87E492E012
:101A70000E945318C7010E946F1885E492E00E94EB
:101A8000531810161106ACF54E01E1E28E0E911CB2
:101A9000A3961FAE1EAEA3970F2EF0E1AF2EF7E276
:101AA000BF2EF02DC12CD12CD4014D905D906D90A6
:101AB0007D904D01B5010B2C000C880B990B0E94F9
:101AC000BB1B9B01AC01C301B2010E940C1B88230C
:101AD0004CF4C301B2010E94831B5B01A396DFAEED
:101AE000CEAEA397BFEFCB1ADB0AC016D106E1F644
:101AF00004C0A3961FAE1EAEA397809010019090D5
:101B00001101A0901201B0901301B701FF0C880BD6
:101B1000990B0E94BB1BA50194010E94B71CA996BA
:101B20006CAF7DAF8EAF9FAFA997409014015090DE
:101B3000150160901601709017010F2EF4E0EF2E42
:101B4000F1E0FF2EF02DC12CD12C01E010E0F701C7
:101B500021913191419151917F01A9966CAD7DAD5B
:101B60008EAD9FADA9970E949F1A0E94831B9B0177
:101B7000772324F422273327261B370BB901330F91
:101B8000880B990B0E94BB1BA30192010E940C1BA6
:101B900088230CF468010F5F1F4F04301105B9F65C
:101BA00065961CAE1DAE1EAE1FAE659780E090E040
:101BB000A0E8BFE369968CAF9DAFAEAFBFAF6997AA
:101BC000F2E0CF16D10429F023E0C216D10451F17E
:101BD0005AC0A501940160E070E088E691E40E949B
:101BE000111BE5966CAF7DAF8EAF9FAFE59784E993
:101BF00097E8A5EEBEE365968CAF9DAFAEAFBFAFE5
:101C0000659781EA96EDA4E6BFEB69968CAF9DAF30
:101C1000AEAFBFAF6997E9961CAE1DAE1EAE1FAE4C
:101C2000E99741C0A501940161EE7AE78AE391E466
:101C30000E94111BE9966CAF7DAF8EAF9FAFE99705
:101C4000A501940163E27BED8BE091EC0E94111BF6
:101C5000E5966CAF7DAF8EAF9FAFE59786E696E6D3
:101C6000A6E7BFEB65968CAF9DAFAEAFBFAF6597F4
:101C70008FE99DECAAE8BEE369968CAF9DAFAEAF4D
:101C8000BFAF699710C01C141D040CF059C3E9962E
:101C90001CAE1DAE1EAE1FAEE997E5961CAE1DAE86
:101CA0001EAE1FAEE597F101EE0FFF1F81E090E041
:101CB0008C0F9D1FE80FF91F00AD11ADA396EEAD7F
:101CC000FFADA397EE0FFF1FE80FF91F80AD91AD99
:101CD0008017910789F0A396EEADFFADA397EE0FA5
:101CE000FF1FA5E4B0E0AC0FBD1FEA0FFB1F808112
:101CF00091810817190761F4220C331CA5E4B0E0A8
:101D0000AC0FBD1FA20DB31DF8010D911C910BC0AE
:101D1000220C331CE5E4F0E0EC0FFD1FE20DF31D97
:101D20000190F081E02DCA94CD2809F049C0EE0F52
:101D3000FF1FEE0FFF1FEE24E394F12CEC0EFD1EAF
:101D4000EE0EFF1E6801CC0CDD1CCC0CDD1CE1E0AE
:101D5000F0E0EC0FFD1FCE0EDF1ED6012D913D9160
:101D60004D915C91F70160817181828193810E9424
:101D7000A01A20E030E040E05FE30E94B71CAD967F
:101D80006CAF7DAF8EAF9FAFAD97D60150962D91C2
:101D90003D914D915C915397F701608971898289DA
:101DA00093890E94A01A20E030E040E05FE30E94A7
:101DB000B71CA9966CAF7DAF8EAF9FAFA9971EC021
:101DC000EE0FFF1FEE0FFF1F21E030E02C0F3D1F35
:101DD000E20FF31F80819181A281B381AD968CAF18
:101DE0009DAFAEAFBFAFAD9780899189A289B3890E
:101DF000A9968CAF9DAFAEAFBFAFA997000F111FD3
:101E0000000F111FA1E0B0E0AC0FBD1F0A0F1B1F98
:101E1000AD962CAD3DAD4EAD5FADAD97F801608197
:101E20007181828193810E949F1A6B017C01A99626
:101E30002CAD3DAD4EAD5FADA997D80150966D91DB
:101E40007D918D919C9153970E949F1A2B013C018B
:101E5000A7019601C701B6010E94B71C4B015C01A6
:101E6000A3019201C301B2010E94B71CA5966CAFF9
:101E70007DAF8EAF9FAFA597A5962CAD3DAD4EAD76
:101E80005FADA597C501B4010E94A01A0E942A1D4A
:101E90004B015C019B01AC01C701B6010E94111B03
:101EA0006B017C016D966CAF7DAF8EAF9FAF6D9770
:101EB000A5019401C301B2010E94111B4B015C01F9
:101EC000A1966CAF7DAF8EAF9FAFA19765962CADFD
:101ED0003DAD4EAD5FAD6597C701B6010E94B71C21
:101EE0006B017C0169962CAD3DAD4EAD5FAD699740
:101EF000C501B4010E94B71C9B01AC01C701B6012A
:101F00000E94A01A2B013C019B01AC010E94B71C4E
:101F10006B017C01A701960160E070E080E89FE31F
:101F20000E949F1A0E942A1DA5966CAF7DAF8EAFAE
:101F30009FAFA597FE01EF5AFF4F7F018E01075A11
:101F40001F4F9B01AC01C301B2010E947C064C01F2
:101F5000019709F09FC00CE111E0D8012D913D914E
:101F60004D915C91AD966CAD7DAD8EAD9FADAD9755
:101F70000E949F1AA30192010E94B71C9B01AC0111
:101F8000E9966CAD7DAD8EAD9FADE9970E949F1A2D
:101F90006B017C01F8012481358146815781A99626
:101FA0006CAD7DAD8EAD9FADA9970E949F1AA59691
:101FB0002CAD3DAD4EAD5FADA5970E94B71C9B010A
:101FC000AC01C701B6010E94A01AEF96AEADBFAD3D
:101FD000EF976D937D938D939C931397F8012481D4
:101FE000358146815781A9966CAD7DAD8EAD9FAD93
:101FF000A9970E949F1AA30192010E94B71C9B01FE
:10200000AC01E5966CAD7DAD8EAD9FADE5970E94C0
:102010009F1A6B017C01D8012D913D914D915C91EE
:10202000AD966CAD7DAD8EAD9FADAD970E949F1A04
:10203000A5962CAD3DAD4EAD5FADA5970E94B71CEA
:102040009B01AC01C701B6010E949F1AEF96EEAD4D
:10205000FFADEF976483758386839783C158DF4F05
:10206000A881B981CF57D0404D925D926D927C92FC
:102070001397A5968CAD9DADAEADBFADA597C158DC
:10208000DF4FE881F981CF57D04084839583A683C1
:10209000B7839FC00CE111E0D8012D913D914D9186
:1020A0005C91AD966CAD7DAD8EAD9FADAD970E9450
:1020B0009F1AA30192010E94B71C9B01AC01E996F3
:1020C0006CAD7DAD8EAD9FADE9970E949F1A6B01FF
:1020D0007C01F8012481358146815781A9966CAD38
:1020E0007DAD8EAD9FADA9970E949F1AA5962CAD90
:1020F0003DAD4EAD5FADA5970E94B71C9B01AC01F5
:10210000C701B6010E949F1AEF96AEADBFADEF9723
:102110006D937D938D939C931397F8012481358162
:1021200046815781A9966CAD7DAD8EAD9FADA997C7
:102130000E949F1AA30192010E94B71C9B01AC014F
:10214000E5966CAD7DAD8EAD9FADE5970E949F1A73
:102150006B017C01D8012D913D914D915C91AD9623
:102160006CAD7DAD8EAD9FADAD970E949F1AA596CB
:102170002CAD3DAD4EAD5FADA5970E94B71C9B0148
:10218000AC01C701B6010E94A01AEF96EEADFFADFB
:10219000EF976483758386839783C158DF4FA88147
:1021A000B981CF57D0404D925D926D927C9213973A
:1021B000A5968CAD9DADAEADBFADA597B058C1583D
:1021C000DF4FE881F981CF57D04084839583A68380
:1021D000B783EF96EEADFFADEF9780819181A2813D
:1021E000B3812CE631E0F90180839183A283B3832C
:1021F000EF96EEADFFADEF9784819581A681B78113
:10220000F90184839583A683B783C158DF4FE881A2
:10221000F981CF57D04080819181A281B38124E69A
:1022200031E0F90180839183A283B383C158DF4FEA
:10223000E881F981CF57D04084819581A681B7810B
:10224000F90184839583A683B783CD57DF4FA88197
:10225000B981C358D0408D919C91049709F03FC03B
:10226000EF96EEADFFADEF97248135814681578122
:102270006081718182819381CB57DF4F0881198101
:10228000C558D0400E94E60A892B09F5C158DF4F96
:10229000A880B980CF57D040EF96CEACDFACEF9797
:1022A000780193018201A5964CAD5DAD6EAD7FAD19
:1022B000A597C4010E945C0720E030E048EC53E49D
:1022C00060E070E088EC92E40E94AA0908C01092D5
:1022D0008B0010928A0010928D0010928C00CD57C6
:1022E000DF4FA881B981C358D0408D919C9103974D
:1022F00009F062C0C158DF4FA880B980CF57D040E5
:10230000EF96CEACDFACEF97CB57DF4FE880F9808C
:10231000C558D04093018201A5964CAD5DAD6EAD20
:102320007FADA597C4010E945C0720E030E048EC37
:1023300053E460E070E088EC92E40E946E083CC0D8
:102340002CE631E0F90180819181A281B381EF9681
:10235000EEADFFADEF9780839183A283B383F90144
:1023600084819581A681B781EF96EEADFFADEF97A1
:1023700084839583A683B78324E631E0F9018081C5
:102380009181A281B381C158DF4FE881F981CF5794
:10239000D04080839183A283B383F90184819581A6
:1023A000A681B781C158DF4FE881F981CF57D0406E
:1023B00084839583A683B78389E392E00E945318B0
:1023C000EF96AEADBFADEF976D917D918D919C91E4
:1023D0000E94831BCB010E946F1884E392E00E944D
:1023E0005318EF96EEADFFADEF976481758186814E
:1023F00097810E94831BCB010E946F1882E392E0B9
:102400000E94531881E292E00E94531820E030E0CD
:102410004AE754E4C158DF4FA881B981CF57D04073
:102420006D917D918D919C910E94B71C0E94831BA0
:10243000CB010E946F1889E192E00E94531820E0BE
:1024400030E04AE754E4C158DF4FE881F981CF57C3
:10245000D04064817581868197810E94B71C0E945B
:10246000831BCB010E946F1887E192E00E945318F2
:1024700018C0E7962EAD3FADE7972C5F3F4FE7962C
:102480003FAF2EAFE797AB968EAD9FADAB9704965F
:10249000AB969FAF8EAFAB97E3966EAC7FACE397F6
:1024A00077C9CA57DF4F0FB6F894DEBF0FBECDBF56
:1024B000DF91CF911F910F91FF90EF90DF90CF9020
:1024C000BF90AF909F908F907F906F905F904F9054
:1024D0003F902F9008951F920F920FB60F921124E4
:1024E0002F933F934F935F936F937F938F939F931C
:1024F000AF93BF93EF93FF936AE080EA91E00E946D
:10250000BA15E091A0018E2F90E0FC01E05AF1098C
:10251000E830F10508F007C1E35AFF4F0C94931D12
:1025200080E892E00E94531881E090E09093B3011C
:102530008093B201F8C089E792E00E945318379B5C
:1025400019C080E090E0A8ECB3EC80932C0190934C
:102550002D01A0932E01B0932F0180E090E0A8E41C
:10256000B3EC8093240190932501A0932601B093AE
:10257000270118C080E090E0A8ECB3E480932C0120
:1025800090932D01A0932E01B0932F0180E090E055
:10259000A8E4B3E48093240190932501A09326013D
:1025A000B0932701369B03C02A9A2B9802C02B9A1E
:1025B0002A9885E090E09093B3018093B2010E9445
:1025C0007E032CE831E044E951E06CE271E082EBFB
:1025D00091E00E94220B82EB91E00E943A06A3C098
:1025E00081E792E00E945318E0EAF1E0818190E0F7
:1025F00090939F0180939E01828190E090939D0132
:1026000080939C0110928B0010928A0010928D0092
:1026100010928C001092B3011092B20184C089E62E
:1026200092E00E945318E0EAF1E0818190E09093FB
:102630009F0180939E01828190E090939D01809301
:102640009C0110928B0010928A0010928D001092C3
:102650008C001092B3011092B20165C082E692E044
:102660000E9453181092B3011092B20110928B0085
:1026700010928A0010928D0010928C0054C088E550
:1026800092E00E945318369B19C080E090E0A8ECBD
:10269000B3EC80932C0190932D01A0932E01B09365
:1026A0002F0180E090E0A8E4B3EC809324019093A4
:1026B0002501A0932601B093270118C080E090E087
:1026C000A8ECB3E480932C0190932D01A0932E01EC
:1026D000B0932F0180E090E0A8E4B3E4809324015C
:1026E00090932501A0932601B09327011092B30186
:1026F0001092B20110928B0010928A0010928D00FD
:1027000010928C0010C08DE492E00E945318109239
:10271000B3011092B20110928B0010928A001092B5
:102720008D0010928C00FF91EF91BF91AF919F911E
:102730008F917F916F915F914F913F912F910F906A
:102740000FBE0F901F901895209A289A219A299AC7
:1027500080E293E0909389008093880010928B0030
:1027600010928A0010928D0010928C00A1E8B0E0C7
:102770008C9180618C938C9188608C93E0E8F0E080
:10278000808182608083808181608083808180629B
:10279000808380818F7E8083808188608083808138
:1027A0008B7F8083269A279A8C918B7F8C938C9138
:1027B0008D7F8C938C9181608C930895E1E6F0E09D
:1027C00080E8808310821092B3011092B2010E94BF
:1027D0001E160E94DA186E9A76980E9453154AE0E7
:1027E0006EE081E00E9464156E9A769A0E94A413AE
:1027F0000E94DD013E983F984798229A239A379B82
:1028000019C080E090E0A8ECB3EC80932C01909389
:102810002D01A0932E01B0932F0180E090E0A8E459
:10282000B3E48093240190932501A0932601B093F3
:10283000270118C080E090E0A8ECB3E480932C015D
:1028400090932D01A0932E01B0932F0180E090E092
:10285000A8E4B3EC8093240190932501A093260172
:10286000B0932701369B10C02A9A2B986894FF24B6
:10287000F6F86894EE24E2F80AE810E0CCE8D0E03C
:102880006894DD24D3F803C02B9A2A98EFCF81EC0B
:1028900092E00E9453188091B2019091B3010E947E
:1028A0006F188FEB92E00E9453188091B2019091C3
:1028B000B3018230910571F12CF4009761F001971A
:1028C00081F0D5C08430910509F47AC0F4F1059700
:1028D00009F4AFC0CCC0F8011182108219821882AD
:1028E000C6C0369B05C085B18E2585B92B9804C01E
:1028F00085B18D2585B92A986E9A8EB18F258EB9AE
:10290000FFE32DE083E0F15020408040E1F700C07C
:102910000000ADC06E9A8EB18F258EB96A9A729AF8
:102920008091B2019091B3010E947E0382EB91E00D
:102930000E943A062CE831E044E951E06CE271E093
:1029400082EB91E00E94220B92C06A9A8EB18E2592
:102950008EB96E9A769A2CE831E044E951E06CE247
:1029600071E082EB91E00E94220B82EB91E00E94E9
:102970003A0687EB92E00E9453180F2EFCE2AF2E2E
:10298000F1E0BF2EF02DF50160817181828193818C
:102990000E94831BCB010E946F1884EB92E00E947F
:1029A0005318F50164817581868197810E94831B8C
:1029B000CB010E946F1882EB92E00E94531857C01F
:1029C0006A9A8EB18E258EB96E9A8EB18F258EB988
:1029D0002CE831E044E951E064E271E082EB91E0FF
:1029E0000E94220B8FE992E00E9453180F2EF4E20E
:1029F000AF2EF1E0BF2EF02DF50160817181828153
:102A000093810E94831BCB010E946F188CE992E096
:102A10000E945318F50164817581868197810E9417
:102A2000831BCB010E946F188AE992E00E94531821
:102A30001EC06E9A8EB18F258EB96A9A8EB18E2580
:102A40008EB98091B2019091B3010E947E032CE86F
:102A500031E044E951E06CE271E082EB91E00E94E8
:102A6000220B6CE871E082EB91E00E945F0681E945
:102A700092E00E945318F801808191810E946F18A2
:102A80008EE892E00E945318888199810E946F1805
:102A90008CE892E00E94531885EA9EE00197F1F7D6
:102AA00000C00000F4CE589A599A5A9A8CE080934C
:102AB000B800E9E6F0E080818062808380818F7ECB
:102AC0008083EA9A789408951F93CF93DF93182F09
:102AD000D62FC42F0E94531594EA9093BC00ECEBC0
:102AE000F0E090819923ECF790E59093BB0094E897
:102AF0009093BC00ECEBF0E090819923ECF790917F
:102B0000B900987F903229F484E98093BC0080E07A
:102B10002DC081E08093BB0084E88093BC00ECEB87
:102B2000F0E090819923ECF71093BB0084E8809348
:102B3000BC00ECEBF0E080818823ECF7D093BB0085
:102B400084E88093BC00ECEBF0E080818823ECF714
:102B5000C093BB0084E88093BC00ECEBF0E0808184
:102B60008823ECF784E98093BC0081E0DF91CF916A
:102B70001F910895CF93DF939C0184EA8093BC005A
:102B8000ECEBF0E090819923ECF781E58093BB00BA
:102B900084E88093BC00ECEBF0E090819923ECF7A3
:102BA0008091B900887F883429F484E98093BC003F
:102BB00080E041C084EC8093BC00ECEBF0E09081BD
:102BC0009923ECF74091BB00461309C0842F90E095
:102BD00001971816190644F040E050E01AC084E945
:102BE0008093BC0080E027C0D90150E041505109DA
:102BF000B901640F751FECEBF0E084ECCBEBD0E097
:102C0000808390819923ECF798819D93A617B7074D
:102C1000B9F784E88093BC00ECEBF0E09081992355
:102C2000ECF78091BB00F901E40FF51F808384E984
:102C30008093BC0081E0DF91CF91089581E0809383
:102C4000D70080EA8093D80082E189BD09B400FEF4
:102C5000FDCF80E98093D8001092E0001092AD0182
:102C60001092AA018CE08093E20078940895CF93AB
:102C7000DF939091AD01992309F44CC09FB7F8946C
:102C800024E02093E9002091AB01222349F0209118
:102C9000E80025FD03C09FBF8FEF41C01092AB013C
:102CA0003091E400375E2091E80025FD24C09FBFED
:102CB0009091E400931781F09091AD01992361F117
:102CC000A9EEB0E044E0E8EEF0E0C4EED0E00DC0E4
:102CD0009FBF9881931305C081E08093AB018FEF74
:102CE0001EC09091AD019923C9F09FB7F8944C9301
:102CF000208125FFEDCF8093F1008091E80085FDD4
:102D000003C08AE38093E80085E08093AC019FBF15
:102D100080E005C08FEF03C08FEF01C08FEFDF9120
:102D2000CF9108951F920F920FB60F9211248F9397
:102D30009F93EF93FF93E1EEF0E08081108283FF99
:102D400011C01092E90091E09093EB001092EC001A
:102D500092E19093ED0098E09093F0001092AD0115
:102D60001092AA0182FF13C08091AD01882379F0EF
:102D70008091AC01882359F081508093AC0181117E
:102D800006C084E08093E9008AE38093E800FF9125
:102D9000EF919F918F910F900FBE0F901F901895FC
:102DA0001F920F920FB60F9211240F931F932F9320
:102DB0003F934F935F936F937F938F939F93AF93C3
:102DC000BF93CF93DF93EF93FF931092E90080912D
:102DD000E80083FF4CC1E1EFF0E060818081208159
:102DE000908130E0392B4081908150E0592B7081E7
:102DF000C08192EF9093E800863009F058C004C07B
:102E000081E28093EB003AC166E089EC92E0FC013C
:102E1000A591B4912A173B0711F0079623C0FC0136
:102E20003296A591B4914A175B0711F007961AC024
:102E3000FC01349645915491FC0136962491872FDC
:102E400090E09C2B8F3F910519F010F08FEF90E0F0
:102E5000821708F4282FA8EEB0E070E16EEFC1EF02
:102E6000D0E003C0615099F6CBCF8C91982F95702C
:102E7000E1F382FD03C1322F213108F0372F3323D4
:102E800009F4F9C0FA01832F949198838150319607
:102E90008111FACF8FEF830F90E00196480F591FF1
:102EA000231B6C932111E1CF3031F9F2E7C085305B
:102EB00061F48EEF8093E800E8EEF0E0808180FF1F
:102EC000FDCF20682093E300D9C0893009F035C0D8
:102ED0006111CDC02093AD011092AA011092AC01F6
:102EE0008EEF8093E80081E022E733E0C9EED0E086
:102EF000ABEEB0E00CEE10E06DEE70E08883A9015F
:102F00004F5F5F4FF90194919C93992361F0FA010F
:102F10004491F8014083F901329694912D5F3F4F1F
:102F2000FB01908301C09A018F5F853039F7EAEE8B
:102F3000F0E08EE180831082A1C0883081F4603897
:102F400009F095C0E8EEF0E0808180FFFDCF809130
:102F5000AD018093F1008EEF8093E8008FC0813245
:102F6000B9F4613A09F083C0E8EEF0E0808180FFB7
:102F7000FDCFE4E3F1E02BE331E0A1EFB0E081919C
:102F80008C93E217F307D9F78EEF8093E80076C0B1
:102F90008032D1F4613209F06AC0E8EEF0E080815D
:102FA00082FFFDCFE4E3F1E02BE331E0A1EFB0E0FD
:102FB0008C918193E217F307D9F7E8EEF0E08BEFFD
:102FC00080838EEF80835AC0823271F4613209F0BF
:102FD0004EC02093AA01E8EEF0E0808180FFFDCF93
:102FE0008EEF8093E8004AC081111AC0E8EEF0E04D
:102FF000808180FFFDCF623851F4E9EEF0E040833C
:103000008091EB0085FB882780F9108201C080E069
:10301000E1EFF0E0808310828EEF8093E8002EC015
:10302000982F9D7F913019F5623009F5232BF9F423
:103030004F779FEF940F9430D0F49EEF9093E80079
:103040004093E900833021F481E28093EB0016C0C5
:1030500089E18093EB0081E090E002C0880F991F26
:103060004A95E2F7EAEEF0E08083108207C081E241
:103070008093EB0003C06C932111F7CEFF91EF9189
:10308000DF91CF91BF91AF919F918F917F916F9180
:103090005F914F913F912F911F910F910F900FBE14
:1030A0000F901F9018950F931F93CF938C010F5F74
:1030B0001F4FFC01C491CC2371F0CA3019F48DE08C
:1030C0000E9437168C2F0E943716F801C4910F5FAB
:1030D0001F4FC111F2CFCF911F910F910895EF9221
:1030E000FF920F931F93CF93DF93CDB7DEB7279750
:1030F0000FB6F894DEBF0FBECDBF8E010F5F1F4F1E
:1031000027E0F80111922A95E9F74AE0B8010E94F8
:10311000AD1D7E01F8E0EF0EF11CF80181918F01E9
:1031200081110E9437160E151F05B9F727960FB6A5
:10313000F894DEBF0FBECDBFDF91CF911F910F91ED
:10314000FF90EF90089520E030E0ECEBF0E080811C
:10315000882334F02F5F3F4F293E83E03807B9F7CB
:1031600081E0283E334009F480E008958093BB005D
:1031700084E88093BC000E94A318882319F08091F2
:10318000B900887F0895CF93C82F94EA9093BC002C
:103190000E94A318882361F08C2F880F0E94B61814
:1031A000803229F484E98093BC0080E001C081E092
:1031B000CF9108950E94531588E50E94C318882373
:1031C00009F4CDC080E30E94B618882309F4C9C071
:1031D00081E00E94B618882309F4C5C084E9809371
:1031E000BC0083EC99E00197F1F700C0000088E58E
:1031F0000E94C318882309F4B8C080E00E94B61862
:10320000882309F4B4C080E00E94B618882309F42A
:10321000B0C080E00E94B618882309F4ACC080E0FA
:103220000E94B618882309F4A8C080E00E94B6184E
:10323000882309F4A4C080E00E94B618882309F40A
:10324000A0C080E00E94B618882309F49CC080E9E1
:103250000E94B618882309F498C084E98093BC00C2
:1032600083EC99E00197F1F700C0000088E50E9427
:10327000C318882309F48BC087E00E94B6188823FE
:1032800009F487C080E00E94B618882309F483C03F
:1032900081E40E94B618882309F47FC084E98093F2
:1032A000BC0083EC99E00197F1F700C0000088E5CD
:1032B0000E94C318882309F472C08AE10E94B618DC
:1032C000882309F46EC080E40E94B618882309F4AC
:1032D0006AC080E00E94B618882309F466C084E9B9
:1032E0008093BC0083EC99E00197F1F700C00000E7
:1032F00088E50E94C318882309F459C083E30E941B
:10330000B618882309F455C083E00E94B6188823B4
:1033100009F451C084E98093BC0083EC99E00197E3
:10332000F1F700C0000088E50E94C318882309F463
:1033300044C080E30E94B618882309F440C088E0A6
:103340000E94B6188823E9F184E98093BC0083ECDD
:1033500099E00197F1F700C0000081E0089580E056
:10336000089580E0089580E0089580E0089580E069
:10337000089580E0089580E0089580E0089580E059
:10338000089580E0089580E0089580E0089580E049
:10339000089580E0089580E0089580E0089580E039
:1033A000089580E0089580E0089580E0089580E029
:1033B000089580E0089580E0089580E0089580E019
:1033C000089580E00895CF93C82F84EA8093BC00CD
:1033D0000E94A318882369F08C2F880F8F5F0E94AA
:1033E000B618883429F484E98093BC0080E001C0D9
:1033F00081E0CF9108950F931F93CF93DF93CDB7C3
:10340000DEB760970FB6F894DEBF0FBECDBF8C015C
:10341000FE01319680E1DF011D928A95E9F788E58A
:103420000E94C318882309F469C086E30E94B61875
:10343000882309F465C084E98093BC00B8E0BA959C
:10344000F1F7000088E50E94E319882309F45AC0C7
:10345000BE016F5F7F4FAE01405F5F4FECEBF0E06E
:1034600084EC2BEB30E0808390819923ECF7D90139
:103470009C91DB019D93BD01A417B507A1F784E8DA
:103480008093BC00ECEBF0E080818823ECF7809126
:10349000BB00888B84E98093BC00BE016C5F7F4FCA
:1034A000F801085E1F4FDB012C91322F3073CB01E6
:1034B0000297DC018C9190E0B0E13B9F800D911D63
:1034C000112491838083422F407C50E0440F551F8C
:1034D000440F551FCB010197DC018C91480F511D02
:1034E000538342832F7030E0358324836D5F7F4F99
:1034F0003696E017F107B9F681E005C080E003C019
:1035000080E001C080E060960FB6F894DEBF0FBE89
:10351000CDBFDF91CF911F910F9108959F939F771A
:103520000E94F61B0F90002042F49058A2EA2AED68
:103530003FE049E450E40E94B71A0C94781C5058BC
:10354000BB27AA270E94B71A0C94781C0E946A1CF9
:1035500038F00E94711C20F039F49F3F19F426F4D2
:103560000C94401C0EF4E095E7FB0C943A1CE92FF8
:103570000E94891C58F3BA176207730784079507DE
:1035800020F079F4A6F50C94AB1C0EF4E0950B2E0C
:10359000BA2FA02D0B01B90190010C01CA01A001A5
:1035A0001124FF27591B99F0593F50F4503E68F100
:1035B0001A16F040A22F232F342F4427585FF3CF41
:1035C000469537952795A795F0405395C9F77EF412
:1035D0001F16BA0B620B730B840BBAF09150A1F05B
:1035E000FF0FBB1F661F771F881FC2F70EC0BA0FE1
:1035F000621F731F841F48F4879577956795B79569
:10360000F7959E3F08F0B0CF9395880F08F0992763
:10361000EE0F9795879508950E94161C08F481E097
:1036200008950E94251B0C94781C0E94711C58F070
:103630000E946A1C40F029F45F3F29F00C943A1C68
:1036400051110C94AC1C0C94401C0E94891C68F312
:103650009923B1F3552391F3951B550BBB27AA274B
:1036600062177307840738F09F5F5F4F220F331F85
:10367000441FAA1FA9F335D00E2E3AF0E0E832D04D
:1036800091505040E695001CCAF72BD0FE2F29D050
:10369000660F771F881FBB1F261737074807AB0722
:1036A000B0E809F0BB0B802DBF01FF2793585F4F97
:1036B0003AF09E3F510578F00C943A1C0C94AC1CE7
:1036C0005F3FE4F3983ED4F3869577956795B79579
:1036D000F7959F5FC9F7880F911D9695879597F984
:1036E0000895E1E0660F771F881FBB1F62177307FD
:1036F0008407BA0720F0621B730B840BBA0BEE1F12
:1037000088F7E09508950E948A1B6894B1110C9483
:10371000AC1C08950E94911C88F09F5798F0B92F17
:103720009927B751B0F0E1F0660F771F881F991FF6
:103730001AF0BA95C9F714C0B13091F00E94AB1CD1
:10374000B1E008950C94AB1C672F782F8827B85FE1
:1037500039F0B93FCCF3869577956795B395D9F74E
:103760003EF490958095709561957F4F8F4F9F4F58
:103770000895E89409C097FB3EF490958095709564
:1037800061957F4F8F4F9F4F9923A9F0F92F96E9AD
:10379000BB279395F695879577956795B795F11122
:1037A000F8CFFAF4BB0F11F460FF1BC06F5F7F4FBF
:1037B0008F4F9F4F16C0882311F096E911C07723D1
:1037C00021F09EE8872F762F05C0662371F096E8DA
:1037D000862F70E060E02AF09A95660F771F881FA9
:1037E000DAF7880F9695879597F90895DF93CF9329
:1037F0001F930F938B01EC01EAECF0E00E94431C55
:103800000E94781C9801AE018B01EC0160E070E031
:1038100080E89FE30E949F1A0E942A1D9801AE0132
:103820000F911F91CF91DF910C94CA1C990F000842
:10383000550FAA0BE0E8FEEF16161706E807F90782
:10384000C0F012161306E407F50798F0621B730B1D
:10385000840B950B39F40A2661F0232B242B252B9E
:1038600021F408950A2609F4A140A6958FEF811D41
:10387000811D089597F99F6780E870E060E00895E2
:103880009FEF80EC0895DF93CF931F930F93FF92E8
:10389000EF92DF927B018C01689406C0DA2EEF0173
:1038A0000E94CA1CFE01E894A5912591359145918D
:1038B0005591A6F3EF010E94B71AFE019701A801E6
:1038C000DA9469F7DF90EF90FF900F911F91CF91FD
:1038D000DF91089500240A941616170618060906A3
:1038E000089500240A941216130614060506089576
:1038F000092E0394000C11F4882352F0BB0F40F4FE
:10390000BF2B11F460FF04C06F5F7F4F8F4F9F4F3D
:10391000089557FD9058440F551F59F05F3F71F0BF
:103920004795880F97FB991F61F09F3F79F0879526
:103930000895121613061406551FF2CF4695F1DFAF
:1039400008C0161617061806991FF1CF869571053F
:10395000610508940895E894BB2766277727CB0173
:1039600097F908950E94161C08F48FEF08950E949D
:10397000CA1C0C94781C0E946A1C38F00E94711CAE
:1039800020F0952311F00C943A1C0C94401C112447
:103990000C94AC1C0E94891C70F3959FC1F3950F89
:1039A00050E0551F629FF001729FBB27F00DB11DC3
:1039B000639FAA27F00DB11DAA1F649F6627B00D53
:1039C000A11D661F829F2227B00DA11D621F739F3C
:1039D000B00DA11D621F839FA00D611D221F749F4A
:1039E0003327A00D611D231F849F600D211D822F91
:1039F000762F6A2F11249F5750409AF0F1F08823B8
:103A00004AF0EE0FFF1FBB1F661F771F881F9150E4
:103A10005040A9F79E3F510580F00C943A1C0C943D
:103A2000AC1C5F3FE4F3983ED4F386957795679599
:103A3000B795F795E7959F5FC1F7FE2B880F911D0E
:103A40009695879597F9089519F416F40C94401CEF
:103A50000C946A1D0E94911CB8F39923C9F3B6F324
:103A60009F57550B87FF0E94781D0024A0E640EA6F
:103A7000900180585695979528F4805C660F771FC3
:103A8000881F20F026173707480730F4621B730B96
:103A9000840B202931294A2BA695179407942025B9
:103AA00031254A2758F7660F771F881F20F0261701
:103AB0003707480730F4620B730B840B200D311D60
:103AC000411DA09581F7B901842F9158880F9695D3
:103AD000879508959F3F31F0915020F48795779511
:103AE0006795B795880F911D9695879597F90895D5
:103AF00091505040660F771F881FD2F7089597FBAB
:103B0000072E16F4009407D077FD09D00E94991D66
:103B100007FC05D03EF4909581959F4F08957095D0
:103B200061957F4F0895EE0FFF1F0590F491E02DF2
:103B30000994AA1BBB1B51E107C0AA1FBB1FA617F4
:103B4000B70710F0A61BB70B881F991F5A95A9F746
:103B500080959095BC01CD010895BB274A3031F482
:103B6000992322F4BDE2909581959F4F0C94B91D45
:103B7000BB27FB015527AA27880F991FAA1FA41747
:103B800010F0A41B83955051B9F7A05DAA3308F03B
:103B9000A95DA193009779F7B111B1931192CB016F
:103BA0000C94D21DDC01FC01672F71917723E1F7A2
:103BB000329704C07C916D9370836291AE17BF07FA
:083BC000C8F30895F894FFCF4B
:103BC8008A0298080000E84185EBCF41D7A3B841A5
:103BD800744B9C3E000000408A028A020040024466
:103BE8000080BE4300004843000000000000C843B6
:0C3BF8000000000000E1000000000800D8
:00000001FF
