:100000000C945D010C947A010C947A010C947A01A1
:100010000C947A010C947A010C947A010C947A0174
:100020000C947A010C947A010C947C0D0C94BA0D0A
:100030000C947A010C947A010C947A010C947A0154
:100040000C947A010C947A010C947A010C947A0144
:100050000C947A010C947A010C947A010C947A0134
:100060000C947A010C947A010C947A010C947A0124
:100070000C947A010C947A010C947A010C947A0114
:100080000C947A010C947A010C947A010C947A0104
:100090000C947A010C947A010C947A010C947A01F4
:1000A0000C947A010C947A010C947A01072C7AA5AD
:1000B000BA6CC590DA3B9365FC8BBC53F810FD3CE1
:1000C0005692834DBD879D3AB63DCBC9BF5BBE738B
:1000D000DA0FC93F7475726E206C6566740A00741D
:1000E00075726E2072696768740A000A00616C702C
:1000F00068613A20000A007369676E3A20000A00BE
:100100000900636F732C2073696E3A000A000900BE
:100110007265665F7663302C207265665F76633148
:1001200020286E6F726D616C697A65293A20000A29
:100130000009007265665F7663302C207265665F29
:100140007663312028756E6E6F726D616C697A65A9
:10015000293A20000A0009007265665F7063302C3E
:10016000207265665F7063313A20000A00090063FF
:100170006F696E5F696E642C206F746865725F6969
:100180006E643A0063616E6E6F742063616C6375B8
:100190006C6174650A006D69737320310A006D69C2
:1001A000737320340A006E6F74206D6973730A00D4
:1001B0000A0063617365203A000A00616374756127
:1001C0006C206D61783A000A00646D696E3A200017
:1001D0000A00646D61783A20000A000976793A20B5
:1001E000302E00446972656374696F6E2076783AC8
:1001F00020302E000A000909793A00506F736974A3
:10020000696F6E20783A00000100009E0212000221
:1002100000005B02430003000057020401030904CD
:10022000430212020309043B0206030309043102DC
:10023000080803340031003000000006034D00328E
:1002400000000012034A002E0020004600690065ED
:10025000006E006500000004030904090243000267
:100260000100C0320904000001020201000524005F
:1002700010010524010101042402060524060001E1
:100280000705820310004009040100020A00000073
:100290000705030240000007058402400000120128
:1002A000000202000010C0167A04000101020301DE
:1002B0000001C11201803601813611241FBECFEF2B
:1002C000DAE0DEBFCDBF11E0A0E0B1E0E6EFF8E29A
:1002D00002C005900D92A032B107D9F721E0A0E24B
:1002E000B1E001C01D92A137B207E1F70E94700C86
:1002F0000C9479140C940000209A289A219A299A37
:100300008AEF90E0909389008093880090938B000F
:1003100080938A0090938D0080938C00A1E8B0E0D8
:100320008C9180618C938C9188608C93E0E8F0E0F4
:10033000808182608083808181608083808180620F
:10034000808380818F7E80838081886080838081AC
:100350008B7F8083269A279A8C918B7F8C938C91AC
:100360008D7F8C938C9181608C9308954F925F92D6
:100370006F927F928F929F92AF92BF92CF92DF92B5
:10038000EF92FF920F931F93CF93DF93CDB7DEB71A
:1003900060970FB6F894DEBF0FBECDBF2B013C01B6
:1003A0002D833E834F83588758018701D501CD9017
:1003B000DD90ED90FC909B01AC01C701B6010E945D
:1003C0008A13F80120813181428153810E94921168
:1003D00069877A878B879C87D50114968D919D912B
:1003E0000D90BC91A02D89839A83AB83BC832D8112
:1003F0003E814F815885BC01CD010E948A136D87D3
:100400007E878F87988B9B01AC0169857A858B8568
:100410009C850E9492114B015C0129813A814B819C
:100420005C81C301B2010E948A13F80124813581E5
:10043000468157810E9492112B013C012D813E8102
:100440004F815885C701B6010E948A1369837A8358
:100450008B839C839B01AC01C301B2010E94931169
:100460006B017C012D853E854F85588969857A858C
:100470008B859C850E9493116D837E838F839887E3
:1004800029813A814B815C81C301B2010E949211A2
:100490002B013C01A5019401C501B4010E948A13FE
:1004A0004B015C01A7019601C701B6010E948A13A6
:1004B0009B01AC01C501B4010E9493116B017C0149
:1004C0002D813E814F815885CA01B9010E948A134E
:1004D0004B015C01A3019201C301B2010E948A1386
:1004E0009B01AC01C501B4010E9493119B01AC01B9
:1004F00001E010E0C701B6010E94F711882314F053
:1005000000E010E0C80160960FB6F894DEBF0FBEA1
:10051000CDBFDF91CF911F910F91FF90EF90DF90B2
:10052000CF90BF90AF909F908F907F906F905F9093
:100530004F9008954F925F926F927F928F929F9209
:10054000AF92BF92CF92DF92EF92FF92CF93DF9361
:1005500000D000D0CDB7DEB76B017C0129833A8390
:100560004B835C8340906D0150906E0160906F01F1
:100570007090700120912401309125014091260155
:1005800050912701C301B2010E949211609368014A
:100590007093690180936A0190936B01209120010F
:1005A000309121014091220150912301C301B201F8
:1005B0000E9493114B015C01609320017093210113
:1005C0008093220190932301A7019601C301B201F8
:1005D0000E948A136B017C0129813A814B815C81E5
:1005E000C501B4010E948A139B01AC01C701B60189
:1005F0000E9493119B01AC01C701B6010E949311A7
:100600006B017C01409224015092250160922601E9
:100610007092270120E030E0A9010E94861318168D
:10062000FCF48FED90E00E943F0FC701B6010E94DD
:1006300063129B01772324F422273327261B370BD1
:100640008AEF90E0AC01421B530BECE8F0E05183E1
:1006500040832081318190938B0080938A001FC05A
:1006600084ED90E00E943F0FC701B6010E94631223
:100670009B01772324F422273327261B370B8AEF8D
:1006800090E0FC01E21BF30B9F01EAE8F0E031830C
:1006900020832081318190938D0080938C000F9076
:1006A0000F900F900F90DF91CF91FF90EF90DF9020
:1006B000CF90BF90AF909F908F907F906F905F9002
:1006C0004F9008952F923F924F925F926F927F9238
:1006D0008F929F92AF92BF92CF92DF92EF92FF9252
:1006E0000F931F93CF93DF93CDB7DEB728970FB645
:1006F000F894DEBF0FBECDBF1C0149835A836B83C4
:100700007C830D831E832F83388760910001709155
:100710000101882777FD8095982F0E9496122091DD
:1007200040013091410140914201509143010E94AA
:1007300092114B015C0160910201709103018827C5
:1007400077FD8095982F0E94961220914401309158
:10075000450140914601509147010E9492116B0161
:100760007C01A5019401C501B4010E948A132B01EB
:100770003C01A7019601C701B6010E948A139B01A3
:10078000AC01C301B2010E9493110E94F1132B012D
:100790003C019B01AC01C501B4010E94FB114B015E
:1007A0005C01A3019201C701B6010E94FB116B011C
:1007B0007C01209138013091390140913A015091EA
:1007C0003B01C501B4010E948A132B013C01209119
:1007D0003C0130913D0140913E0150913F01C701E4
:1007E000B6010E948A139B01AC01C301B2010E94B1
:1007F00093110E9484112B013C012A942328C9F4EF
:100800002D813E814F815885C501B4010E948A1314
:100810004B015C0129813A814B815C81C701B601A2
:100820000E948A139B01AC01C501B4010E9493117F
:1008300018C02D813E814F815885C501B4010E94A9
:100840008A134B015C0129813A814B815C81C7018C
:10085000B6010E948A139B01AC01C501B4010E943C
:10086000921120E030E0A9010E94F71188234CF09A
:1008700040926D0150926E0160926F017092700112
:100880000CC077FA709477F8709440926D01509292
:100890006E0160926F01709270018DEE90E00E9487
:1008A0003F0F20E030E040E251E460916D01709133
:1008B0006E0180916F01909170010E948A130E94D5
:1008C0006312CB010E94590F8BEE90E00E943F0F04
:1008D000E12CF12C00E81FE320E030E0A901C80181
:1008E000B7010E949A0228960FB6F894DEBF0FBE99
:1008F000CDBFDF91CF911F910F91FF90EF90DF90CF
:10090000CF90BF90AF909F908F907F906F905F90AF
:100910004F903F902F9008958F929F92AF92BF92E9
:10092000CF92DF92EF92FF92CF93DF934B015C0166
:1009300069017A016091000170910101882777FDBA
:100940008095982F0E9496129B01AC01C501B401BD
:100950000E9492114B015C016091020170910301B0
:10096000882777FD8095982F0E9496129B01AC01F5
:10097000C701B6010E9492116B017C01A50194018F
:10098000C501B4010E948A134B015C01A7019601C5
:10099000C701B6010E948A139B01AC01C501B401D5
:1009A0000E949311C1E0D0E020E030E048EC52E436
:1009B0000E94F711882314F0C0E0D0E0CE01DF914F
:1009C000CF91FF90EF90DF90CF90BF90AF909F902E
:1009D0008F9008952F923F924F925F926F927F92E5
:1009E0008F929F92AF92BF92CF92DF92EF92FF923F
:1009F0000F931F93CF93DF93CDB7DEB7CC57D109B9
:100A00000FB6F894DEBF0FBECDBF6A9A72986091A0
:100A100048017091490180E090E00E94941269833E
:100A20007A838B839C8360914E0170914F0180E0AB
:100A300090E00E9494126D837E838F8398876091EB
:100A400054017091550180E090E00E9494126987F2
:100A50007A878B879C8760915A0170915B0180E057
:100A600090E00E9494126D877E878F87988B6091AB
:100A70004A0170914B0180E090E00E949412698BD2
:100A80007A8B8B8B9C8B609150017091510180E02F
:100A900090E00E9494126D8B7E8B8F8B988F60916B
:100AA00056017091570180E090E00E949412698F86
:100AB0007A8F8B8F9C8F60915C0170915D0180E0DB
:100AC00090E00E9494126D8F7E8F8F8F98A39E016D
:100AD0002F5F3F4FE9963FAF2EAFE997CE0141968A
:100AE000E3969FAF8EAFE397AB961FAE1EAEAB976C
:100AF000E7961FAE1EAEE797AB96AEADBFADAB9718
:100B00001196E596BFAFAEAFE59714970CF0BAC655
:100B1000E996EEADFFADE99781909190A190B190EB
:100B2000E7968EAD9FADE797880F991F29E330E0D8
:100B30002C0F3D1F280F391FA3963FAF2EAFA39751
:100B4000A5E4B0E0AC0FBD1FA80FB91FA796BFAFBB
:100B5000AEAFA797E7968EAD9FADE797880F991F29
:100B6000880F991F0F2EF1E26F2E712CF02D6C0E55
:100B70007D1E680E791EE3962EAD3FADE3972C5F88
:100B80003F4F1F01E5960EAD1FADE597E1968CAE88
:100B90009DAEAEAEBFAEE1975901430120E030EC0F
:100BA0004FE754E4E1966CAD7DAD8EAD9FADE1971E
:100BB0000E94F711882309F46CC0E396AEADBFAD77
:100BC000E397CD90DD90ED90FC9020E030EC4FE786
:100BD00054E4C701B6010E94F711882309F459C0F3
:100BE000F101408051806280738020E030EC4FE75B
:100BF00054E4C301B2010E94F711882309F449C0EB
:100C0000D5018D919D910D90BC91A02DED968CAF4D
:100C10009DAFAEAFBFAFED9720E030EC4FE754E4AF
:100C2000BC01CD010E94F711882399F1A301920123
:100C3000E1966CAD7DAD8EAD9FADE1970E949211B6
:100C40002B013C01ED962CAD3DAD4EAD5FADED976A
:100C5000C701B6010E9492116B017C01A3019201B0
:100C6000C301B2010E948A132B013C01A701960126
:100C7000C701B6010E948A139B01AC01C301B201F6
:100C80000E9493110E94F113F401608371838283A7
:100C90009383A396AEADBFADA397AB96EEADFFAD7C
:100CA000AB97ED93FD93A396BFAFAEAFA397A79677
:100CB000AEADBFADA7970D931D93A796BFAFAEAFD7
:100CC000A7970F5F1F4FB4E02B0E311CE4E0AE0E70
:100CD000B11CF4E08F0E911C0430110509F05ECFB9
:100CE000E7968EAD9FADE797E5962EAD3FADE597C4
:100CF000821B930BDC011496E796BFAFAEAFE7976C
:100D0000E996EEADFFADE9973496E996FFAFEEAF09
:100D1000E997E3962EAD3FADE3972C5F3F4FE39607
:100D20003FAF2EAFE397E5968EAD9FADE597039766
:100D300049F0E596AEADBFADE597AB96BFAFAEAFB0
:100D4000AB97DACEE796EEADFFADE7971E161F061E
:100D50007CF57E01F1E2EF0EF11C812C912CC12C6F
:100D6000D12C00E010E0E796AEACBFACE797D7011E
:100D70004D905D906D907D907D01B601882777FD47
:100D80008095982F0E9496129B01AC01C301B2017D
:100D90000E948613181634F4C301B2010E94631234
:100DA0006B0148010F5F1F4F0A151B0501F704C0B7
:100DB000812C912CC12CD12C82ED91E00E943F0F0F
:100DC000C6010E94590F80ED91E00E943F0FE79607
:100DD000EEADFFADE7971E161F06DCF57E01F1E2D2
:100DE000EF0EF11C212C312C0F2EF0E1AF2EF7E28B
:100DF000BF2EF02D00E010E0A396DFAECEAEA3979D
:100E0000E796CEACDFACE797D7014D905D906D9043
:100E10007D907D01B501882777FD8095982F0E94F0
:100E200096129B01AC01C301B2010E94F711882305
:100E300034F4C301B2010E9463125B0118010F5F19
:100E40001F4F0C151D0501F7A396CEACDFACA39781
:100E500008C0212C312C0F2EF0E1AF2EF7E2BF2E6F
:100E6000F02D89EC91E00E943F0FC5010E94590FBF
:100E700087EC91E00E943F0FB601882777FD8095AF
:100E8000982F0E94961220911001309111014091EB
:100E90001201509113010E948A136B017C018BEBAC
:100EA00091E00E943F0FC701B6010E946312CB017F
:100EB0000E94590F89EB91E00E943F0F409014016E
:100EC000509015016090160170901701E4E0F1E078
:100ED000A396FFAFEEAFA39700E010E0AA24A3947F
:100EE000B12CA7969FAE8EAEA7974F01D4012D913E
:100EF0003D914D915D914D01C701B6010E94921146
:100F00000E9463129B01772324F422273327261B98
:100F1000370BB901882777FD8095982F0E9496128C
:100F2000A30192010E94F71188230CF48501BFEF01
:100F3000AB1ABB0AE4E0AE16B104C1F6A7968EACBC
:100F40009FACA79765961CAE1DAE1EAE1FAE6597F3
:100F500080E090E0A0E8BFE369968CAF9DAFAEAFB4
:100F6000BFAF699782EB91E00E943F0FC8010E94DA
:100F7000590F80EB91E00E943F0F0230110549F1BB
:100F80000330110509F458C00130110509F091C072
:100F900065961CAE1DAE1EAE1FAE659780E090E05C
:100FA000A0E8BFE369968CAF9DAFAEAFBFAF6997C6
:100FB00086EA91E00E943F0FAD961CAE1DAE1EAEBC
:100FC0001FAEAD97E1961CAE1DAE1EAE1FAEE197F3
:100FD00084C0209110013091110140911201509173
:100FE000130160E070E088E691E40E94FB11AD9689
:100FF0006CAF7DAF8EAF9FAFAD9784E997E8A5EE5C
:10100000BEE365968CAF9DAFAEAFBFAF659781EA8B
:1010100096EDA4E6BFEB69968CAF9DAFAEAFBFAFC8
:1010200069978EE991E00E943F0FE1961CAE1DAEDC
:101030001EAE1FAEE19751C0C0901001D0901101BB
:10104000E0901201F0901301A701960161EE7AE79A
:101050008AE391E40E94FB11E1966CAF7DAF8EAF05
:101060009FAFE197A701960163E27BED8BE091ECE6
:101070000E94FB11AD966CAF7DAF8EAF9FAFAD9769
:1010800086E696E6A6E7BFEB65968CAF9DAFAEAF62
:10109000BFAF65978FE99DECAAE8BEE369968CAF78
:1010A0009DAFAEAFBFAF699786E991E00E943F0F59
:1010B00014C084E891E00E943F0F101611060CF056
:1010C0009EC3E1961CAE1DAE1EAE1FAEE197AD965F
:1010D0001CAE1DAE1EAE1FAEAD97F401EE0FFF1F8E
:1010E00021E030E02C0F3D1FE20FF31FE0ACF1AC2C
:1010F000F101EE0FFF1FE20FF31F80AD91AD8E15D2
:101100009F0571F0F101EE0FFF1F85E490E08C0F59
:101110009D1FE80FF91F80819181E816F90669F497
:10112000F401EE0FFF1FA5E4B0E0AC0FBD1FEA0F06
:10113000FB1F6701E080F1800BC0F401EE0FFF1F81
:1011400025E430E02C0F3D1FE20FF31FC080D1805B
:101150008FE691E00E943F0FC6010E94590F8DE675
:1011600091E00E943F0FC7010E94590F8BE691E06A
:101170000E943F0F0130110509F044C0CC0CDD1C6A
:10118000CC0CDD1C81E090E08C0F9D1FC80ED91E99
:101190008701000F111F000F111F080F191FD80121
:1011A0002D913D914D915C91F6016081718182811B
:1011B00093810E94931120E030E040E05FE30E94C1
:1011C0008A13A9966CAF7DAF8EAF9FAFA997D80158
:1011D00050962D913D914D915C915397F601608908
:1011E0007189828993890E94931120E030E040E068
:1011F0005FE30E948A13A5966CAF7DAF8EAF9FAF61
:10120000A5971FC0F601EE0FFF1FEE0FFF1F21E095
:1012100030E02C0F3D1FE20FF31F80819181A281EE
:10122000B381A9968CAF9DAFAEAFBFAFA9978089B0
:101230009189A289B389A5968CAF9DAFAEAFBFAFA0
:10124000A59788E591E00E943F0FA9966CAD7DAD12
:101250008EAD9FADA9970E946312CB010E94590FDA
:1012600086E591E00E943F0FA5966CAD7DAD8EADF9
:101270009FADA5970E946312CB010E94590F84E590
:1012800091E00E943F0FEE0CFF1CEE0CFF1CA1E052
:10129000B0E0AC0FBD1FEA0EFB1EA9962CAD3DAD14
:1012A0004EAD5FADA997F701608171818281938115
:1012B0000E9492116D966CAF7DAF8EAF9FAF6D9710
:1012C000A5962CAD3DAD4EAD5FADA597D70150961F
:1012D0006D917D918D919C9153970E949211A19651
:1012E0006CAF7DAF8EAF9FAFA19783E391E00E947B
:1012F0003F0F6D966CAD7DAD8EAD9FAD6D970E942D
:101300006312CB010E94590F81E391E00E943F0FCD
:10131000A1966CAD7DAD8EAD9FADA1970E9463127D
:10132000CB010E94590F8FE291E00E943F0F6D9612
:101330008CAC9DACAEACBFAC6D97A196CCACDDAC2B
:10134000EEACFFACA197A5019401C501B4010E94C8
:101350008A132B013C01A7019601C701B6010E9427
:101360008A139B01AC01C301B2010E9493110E9438
:10137000F1132B013C019B01AC01C501B4010E949A
:10138000FB116D966CAF7DAF8EAF9FAF6D97A301D4
:101390009201C701B6010E94FB11A1966CAF7DAF0F
:1013A0008EAF9FAFA19780E191E00E943F0F20E0B8
:1013B00030E04AE754E46D966CAD7DAD8EAD9FADE7
:1013C0006D970E948A130E946312CB010E94590FED
:1013D0008EE091E00E943F0F20E030E04AE754E4C5
:1013E000A1966CAD7DAD8EAD9FADA1970E948A1385
:1013F0000E946312CB010E94590F8CE091E00E9481
:101400003F0F65962CAD3DAD4EAD5FAD65976D96CA
:101410006CAD7DAD8EAD9FAD6D970E948A136B0153
:101420007C0169962CAD3DAD4EAD5FAD6997A1963F
:101430006CAD7DAD8EAD9FADA1970E948A139B01CF
:10144000AC01C701B6010E9493114B015C019B01E5
:10145000AC010E948A139B01AC0160E070E080E85F
:101460009FE30E9492110E94F1132B013C0182E044
:1014700091E00E943F0F20E030E04AE754E4C501CC
:10148000B4010E948A130E946312CB010E94590F7B
:1014900080E091E00E943F0F20E030E04AE754E412
:1014A000C301B2010E948A130E946312CB010E9401
:1014B000590F8EEF90E00E943F0FFE01EF5AFF4F51
:1014C0007F018E01075A1F4FA3019201C501B4018C
:1014D0000E94B6011C0187EF90E00E943F0FC101FE
:1014E0000E94590F85EF90E00E943F0FF1E02F1608
:1014F000310409F090C020E030E040E054E4A996C7
:101500006CAD7DAD8EAD9FADA9970E949211A9964D
:101510006CAF7DAF8EAF9FAFA99720E030E040EC7D
:1015200053E4A5966CAD7DAD8EAD9FADA5970E94A1
:1015300092116B017C01A5019401A9966CAD7DAD62
:101540008EAD9FADA9970E948A139B01AC01E196D5
:101550006CAD7DAD8EAD9FADE1970E949211A596C9
:101560006CAF7DAF8EAF9FAFA597A3019201C7016E
:10157000B6010E948A139B01AC01A5966CAD7DADAE
:101580008EAD9FADA5970E9493116093400170931B
:1015900041018093420190934301A7019601C50147
:1015A000B4010E948A139B01AC01AD966CAD7DAD78
:1015B0008EAD9FADAD970E9492116B017C01A996F3
:1015C0002CAD3DAD4EAD5FADA997C301B2010E94F8
:1015D0008A139B01AC01C701B6010E94921160936E
:1015E0004401709345018093460190934701D301D4
:1015F000C201B0588093380190933901A0933A0109
:10160000B0933B0180923C0190923D01A0923E013B
:10161000B0923F0194C020E030E040E054E4A9964D
:101620006CAD7DAD8EAD9FADA9970E9492116B01FF
:101630007C0120E030E040EC53E4A5966CAD7DAD3C
:101640008EAD9FADA5970E949211A5966CAF7DAF10
:101650008EAF9FAFA597A5019401C701B6010E9467
:101660008A139B01AC01E1966CAD7DAD8EAD9FAD53
:10167000E1970E949211A9966CAF7DAF8EAF9FAF9C
:10168000A997A3019201A5966CAD7DAD8EAD9FADDE
:10169000A5970E948A139B01AC01A9966CAD7DAD04
:1016A0008EAD9FADA9970E949211609340017093F7
:1016B00041018093420190934301A5962CAD3DAD2D
:1016C0004EAD5FADA597C501B4010E948A139B0181
:1016D000AC01AD966CAD7DAD8EAD9FADAD970E946A
:1016E0009211A5966CAF7DAF8EAF9FAFA597A70166
:1016F0009601C301B2010E948A139B01AC01A59619
:101700006CAD7DAD8EAD9FADA5970E94931160939A
:1017100044017093450180934601909347014092A4
:1017200038015092390160923A0170923B018092E7
:101730003C0190923D01A0923E01B0923F01609128
:101740004001709141018091420190914301609369
:1017500030017093310180933201909333012091D5
:101760004401309145014091460150914701209339
:101770003401309335014093360150933701C090C6
:101780003801D0903901E0903A01F0903B01C092CD
:101790002801D0922901E0922A01F0922B01C090F9
:1017A0003C01D0903D01E0903E01F0903F01C0929D
:1017B0002C01D0922D01E0922E01F0922F010E9477
:1017C0008C04892B99F495018401B301A201C10114
:1017D0000E946203E12CF12C00E81FE320E030E0DE
:1017E000A901C801B7010E949A0249C010928B005A
:1017F00010928A0010928D0010928C0040C080914F
:10180000300190913101A0913201B0913301809368
:10181000400190934101A0934201B0934301809114
:10182000340190913501A0913601B0913701809338
:10183000440190934501A0934601B09347018091E4
:10184000280190912901A0912A01B0912B01809348
:10185000380190933901A0933A01B0933B018091F4
:101860002C0190912D01A0912E01B0912F01809318
:101870003C0190933D01A0933E01B0933F016A9AD1
:10188000729A14C0E9962EAD3FADE9972C5F3F4F99
:10189000E9963FAF2EAFE997E3968EAD9FADE39704
:1018A0000496E3969FAF8EAFE39743CAC458DF4FC9
:1018B0000FB6F894DEBF0FBECDBFDF91CF911F9161
:1018C0000F91FF90EF90DF90CF90BF90AF909F90DF
:1018D0008F907F906F905F904F903F902F900895E2
:1018E000E1E6F0E080E8808310826E9A76980E94AC
:1018F000050D0E941E0D8823E1F36E9A769A6A9A6E
:1019000072980E94C40F8823E1F36A9A729A0E9427
:101910007C010F2EF0E4CF2EF1E0DF2EF02D0F2E04
:10192000F4E4EF2EF1E0FF2EF02D08E311E0CCE31C
:10193000D1E088E491E00E94E5100E94EA048BEF78
:1019400091E00E943F0FF601608171818281938155
:101950000E946312CB010E94590F86EF91E00E9412
:101960003F0FF70160817181828193810E94631230
:10197000CB010E94590F84EF91E00E943F0F83EE4C
:1019800091E00E943F0F20E030E04AE754E4F80184
:1019900060817181828193810E948A130E94631207
:1019A000CB010E94590F8BED91E00E943F0F20E088
:1019B00030E04AE754E4688179818A819B810E9402
:1019C0008A130E946312CB010E94590F89ED91E0A6
:1019D0000E943F0FFFE32DE083E0F1502040804064
:1019E000E1F700C00000A5CF589A599A5A9A8CE0A6
:1019F0008093B800E9E6F0E0808180628083808196
:101A00008F7E8083EA9A7894089581E08093D7004E
:101A100080EA8093D80082E189BD09B400FEFDCF41
:101A200080E98093D8001092E00010926301109238
:101A300060018CE08093E2007894089580916301C6
:101A40000895CF93DF9390916301992309F44CC0DB
:101A50009FB7F89424E02093E900209161012223AC
:101A600049F02091E80025FD03C09FBF8FEF41C0E2
:101A7000109261013091E400375E2091E80025FD6D
:101A800024C09FBF9091E400931781F0909163016F
:101A9000992361F1A9EEB0E044E0E8EEF0E0C4EE95
:101AA000D0E00DC09FBF9881931305C081E0809363
:101AB00061018FEF1EC0909163019923C9F09FB718
:101AC000F8944C93208125FFEDCF8093F100809115
:101AD000E80085FD03C08AE38093E80085E08093F9
:101AE00062019FBF80E005C08FEF03C08FEF01C090
:101AF0008FEFDF91CF9108951F920F920FB60F9243
:101B000011248F939F93EF93FF93E1EEF0E0808198
:101B1000108283FF11C01092E90091E09093EB00D6
:101B20001092EC0092E19093ED0098E09093F00019
:101B3000109263011092600182FF13C080916301D3
:101B4000882379F080916201882359F08150809335
:101B50006201811106C084E08093E9008AE38093EA
:101B6000E800FF91EF919F918F910F900FBE0F9022
:101B70001F9018951F920F920FB60F9211240F937A
:101B80001F932F933F934F935F936F937F938F9305
:101B90009F93AF93BF93CF93DF93EF93FF931092F5
:101BA000E9008091E80083FF4EC1E1EFF0E0C081E1
:101BB00040812081808130E0382B8081508190E00D
:101BC000BC01752BB081A08182EF8093E800463084
:101BD00009F058C004C081E28093EB003BC1C6E02D
:101BE00087E092E0FC01459154912417350711F0EC
:101BF000079623C0FC0132964591549164177507EE
:101C000011F007961AC0FC01349625913491FC011D
:101C1000369654918B2F90E09A2B8F3F910519F0B7
:101C200010F08FEF90E0851708F4582FA8EEB0E081
:101C300070E16EEFC1EFD0E003C0C15099F6CBCF99
:101C40008C91982F9570E1F382FD04C1452F51319D
:101C500008F0472F442309F4FAC0F901842F949126
:101C60009883815031968111FACF8FEF840F90E0E5
:101C70000196280F391F541B6C935111E1CF40314D
:101C8000F9F2E8C0453061F48EEF8093E800E8EEA9
:101C9000F0E0808180FFFDCF20682093E300DAC070
:101CA000493009F036C0C1115FC020936301109222
:101CB0006001109262018EEF8093E80011E080EBEA
:101CC00092E0C9EED0E0ABEEB0E06CEE70E04DEE2D
:101CD00050E018839C012F5F3F4FFC0104910C934F
:101CE000002361F0F9012491FB0120839C012D5F09
:101CF0003F4FFC0132968491FA0180831F5F1530BB
:101D000011F0C901E6CFEAEEF0E08EE180831082A7
:101D1000A1C0483081F4C03809F042C0E8EEF0E0DC
:101D2000808180FFFDCF809163018093F1008EEF71
:101D30008093E8008FC04132B9F4C13A09F040C045
:101D4000E8EEF0E0808180FFFDCFE8E1F1E08FE197
:101D500091E0A1EFB0E021912C93E817F907D9F7B2
:101D60008EEF8093E80076C04032D1F4C13209F0A2
:101D700043C0E8EEF0E0808182FFFDCFE8E1F1E0D2
:101D80008FE191E0A1EFB0E02C912193E817F907E2
:101D9000D9F7E8EEF0E08BEF80838EEF80835AC0B6
:101DA000423271F4C13209F04EC020936001E8EE76
:101DB000F0E0808180FFFDCF8EEF8093E8004AC085
:101DC00041111AC0E8EEF0E0808180FFFDCFC238FB
:101DD00051F4E9EEF0E060838091EB0085FB882709
:101DE00080F9108201C080E0E1EFF0E08083108292
:101DF0008EEF8093E8002EC0842F8D7F813019F5FF
:101E0000C23009F5232BF9F46F778FEF860F8430FA
:101E1000D0F48EEF8093E8006093E900433021F422
:101E200081E28093EB0016C089E18093EB0081E0B2
:101E300090E002C0880F991F6A95E2F7EAEEF0E0A1
:101E40008083108207C081E28093EB0003C06C9313
:101E50005111F6CEFF91EF91DF91CF91BF91AF91EC
:101E60009F918F917F916F915F914F913F912F91B2
:101E70001F910F910F900FBE0F901F9018951F93F9
:101E8000CF93DF93EC012196FC011491112369F0AB
:101E90001A3019F48DE00E94210D812F0E94210D2E
:101EA000FE01149121961111F3CFDF91CF911F9173
:101EB0000895EF92FF920F931F93CF93DF93CDB7C7
:101EC000DEB727970FB6F894DEBF0FBECDBF8E01E9
:101ED0000F5F1F4F27E0F80111922A95E9F74AE0BA
:101EE000B8010E9444147E01F8E0EF0EF11CF801E5
:101EF00081918F0181110E94210D0E151F05B9F7E7
:101F000027960FB6F894DEBF0FBECDBFDF91CF91FD
:101F10001F910F91FF90EF90089520E030E0ECEBDF
:101F2000F0E08081882334F02F5F3F4F293E83E02B
:101F30003807B9F781E0283E334009F480E008957E
:101F40008093BB0084E88093BC000E948D0F88239F
:101F500019F08091B900887F0895CF93C82F94EA33
:101F60009093BC000E948D0F882361F08C2F880F06
:101F70000E94A00F803229F484E98093BC0080E0A5
:101F800001C081E0CF9108950E94F40C88E50E9481
:101F9000AD0F882309F4CDC080E30E94A00F8823F1
:101FA00009F4C9C081E00E94A00F882309F4C5C0CC
:101FB00084E98093BC0083EC99E00197F1F700C0BD
:101FC000000088E50E94AD0F882309F4B8C080E0C6
:101FD0000E94A00F882309F4B4C080E00E94A00FE3
:101FE000882309F4B0C080E00E94A00F882309F480
:101FF000ACC080E00E94A00F882309F4A8C080E054
:102000000E94A00F882309F4A4C080E00E94A00FC2
:10201000882309F4A0C080E00E94A00F882309F45F
:102020009CC080E90E94A00F882309F498C084E92D
:102030008093BC0083EC99E00197F1F700C00000A9
:1020400088E50E94AD0F882309F48BC087E00E94C9
:10205000A00F882309F487C080E00E94A00F882386
:1020600009F483C081E40E94A00F882309F47FC093
:1020700084E98093BC0083EC99E00197F1F700C0FC
:10208000000088E50E94AD0F882309F472C08AE140
:102090000E94A00F882309F46EC080E40E94A00F64
:1020A000882309F46AC080E00E94A00F882309F405
:1020B00066C084E98093BC0083EC99E00197F1F756
:1020C00000C0000088E50E94AD0F882309F459C0C4
:1020D00083E30E94A00F882309F455C083E00E9487
:1020E000A00F882309F451C084E98093BC0083ECDD
:1020F00099E00197F1F700C0000088E50E94AD0F5C
:10210000882309F444C080E30E94A00F882309F4C7
:1021100040C088E00E94A00F8823E9F184E9809301
:10212000BC0083EC99E00197F1F700C0000081E06A
:10213000089580E0089580E0089580E0089580E0AB
:10214000089580E0089580E0089580E0089580E09B
:10215000089580E0089580E0089580E0089580E08B
:10216000089580E0089580E0089580E0089580E07B
:10217000089580E0089580E0089580E0089580E06B
:10218000089580E0089580E0089580E0089580E05B
:10219000089580E0089580E00895CF93C82F94EAD1
:1021A0009093BC000E948D0F882369F08C2F880FBC
:1021B0008F5F0E94A00F883429F484E98093BC00CB
:1021C00080E001C081E0CF910895EF92FF920F93DC
:1021D0001F93CF93DF93CDB7DEB760970FB6F89418
:1021E000DEBF0FBECDBF082F192FFE01319680E153
:1021F000DF011D928A95E9F788E50E94AD0F8823DB
:1022000009F46EC086E30E94A00F882309F46AC017
:1022100084E98093BC00B8E0BA95F1F7000088E546
:102220000E94CD10882309F45FC0BE016F5F7F4F0D
:102230009E01205F3F4FECEBF0E094EC4BEB50E065
:10224000908380818823ECF7DA018C91DB018D93F8
:10225000BD01A217B307A1F784E88093BC00ECEBA3
:10226000F0E080818823ECF78091BB00888B84E9C3
:102270008093BC00FE013496E02EF12E8081982FD1
:102280009073AF0142505109DA014C9150E0B0E136
:102290009B9F400D511D1124D7014D935C93482FF6
:1022A000407C50E0440F551F440F551FBF01615043
:1022B0007109DB019C91490F511DD70113965C9365
:1022C0004E9312978F7090E015969C938E9314976F
:1022D0003396B6E0EB0EF11C2E173F0779F606C0D9
:1022E00080E005C080E003C080E001C081E060962E
:1022F0000FB6F894DEBF0FBECDBFDF91CF911F9117
:102300000F91FF90EF9008959F939F774AD10F9080
:1023100000203AF49058A2EA2AED3FE049E450E464
:1023200013D0BAC15058BB27AA270ED0B5C1A6D129
:1023300030F0ABD120F031F49F3F11F41EF476C1A0
:102340000EF4E095E7FB6CC1E92FB7D180F3BA1723
:10235000620773078407950718F071F49EF5CFC1E3
:102360000EF4E0950B2EBA2FA02D0B01B9019001B0
:102370000C01CA01A0011124FF27591B99F0593FF4
:1023800050F4503E68F11A16F040A22F232F342F3C
:102390004427585FF3CF469537952795A795F0408A
:1023A0005395C9F77EF41F16BA0B620B730B840B9F
:1023B000BAF09150A1F0FF0FBB1F661F771F881F57
:1023C000C2F70EC0BA0F621F731F841F48F48795AF
:1023D00077956795B795F7959E3F08F0B3CF93959E
:1023E000880F08F09927EE0F979587950895F4D0F8
:1023F00008F481E008950CD04FC147D140F03ED1A0
:1024000030F021F45F3F19F00BC1511179C10EC1B9
:1024100054D198F39923C9F35523B1F3951B550B68
:10242000BB27AA2762177307840738F09F5F5F4FA7
:10243000220F331F441FAA1FA9F333D00E2E3AF0E8
:10244000E0E830D091505040E695001CCAF729D002
:10245000FE2F27D0660F771F881FBB1F2617370751
:102460004807AB07B0E809F0BB0B802DBF01FF2781
:1024700093585F4F2AF09E3F510568F0D1C040C18C
:102480005F3FECF3983EDCF3869577956795B795BB
:10249000F7959F5FC9F7880F911D9695879597F9D6
:1024A0000895E1E0660F771F881FBB1F621773074F
:1024B0008407BA0720F0621B730B840BBA0BEE1F64
:1024C00088F7E095089504D06894B11119C1089572
:1024D000FCD088F09F5790F0B92F9927B751A0F002
:1024E000D1F0660F771F881F991F1AF0BA95C9F7A8
:1024F00012C0B13081F003D1B1E0089500C1672F5F
:10250000782F8827B85F39F0B93FCCF38695779557
:102510006795B395D9F73EF4909580957095619540
:102520007F4F8F4F9F4F0895E89409C097FB3EF46B
:1025300090958095709561957F4F8F4F9F4F992310
:10254000A9F0F92F96E9BB279395F695879577958E
:102550006795B795F111F8CFFAF4BB0F11F460FF4E
:102560001BC06F5F7F4F8F4F9F4F16C0882311F0A6
:1025700096E911C0772321F09EE8872F762F05C0BA
:10258000662371F096E8862F70E060E02AF09A9555
:10259000660F771F881FDAF7880F9695879597F94A
:1025A0000895DF93CF931F930F938B01EC01ECEA17
:1025B000F0E03FD071D09801AE018B01EC0160E0FA
:1025C00070E080E89FE3AEDE0CD19801AE010F9180
:1025D0001F91CF91DF91AAC0990F0008550FAA0B48
:1025E000E0E8FEEF16161706E807F907C0F0121626
:1025F0001306E407F50798F0621B730B840B950B29
:1026000039F40A2661F0232B242B252B21F408957D
:102610000A2609F4A140A6958FEF811D811D08951A
:1026200097F99F6780E870E060E008959FEF80EC85
:102630000895DF93CF931F930F93FF92EF92DF9252
:102640007B018C01689405C0DA2EEF016FD0FE018A
:10265000E894A5912591359145915591AEF3EF01FF
:1026600073DEFE019701A801DA9479F7DF90EF900D
:10267000FF900F911F91CF91DF91089500240A944C
:102680001616170618060906089500240A9412164D
:102690001306140605060895092E0394000C11F480
:1026A000882352F0BB0F40F4BF2B11F460FF04C02D
:1026B0006F5F7F4F8F4F9F4F089557FD9058440F86
:1026C000551F59F05F3F71F04795880F97FB991F91
:1026D00061F09F3F79F0879508951216130614064E
:1026E000551FF2CF4695F1DF08C0161617061806DB
:1026F000991FF1CF86957105610508940895E894B6
:10270000BB2766277727CB0197F9089565DF08F483
:102710008FEF08950BD0C0CFB1DF28F0B6DF18F0EF
:10272000952309F07DCF82CF1124EACFC6DFA0F335
:10273000959FD1F3950F50E0551F629FF001729F56
:10274000BB27F00DB11D639FAA27F00DB11DAA1F75
:10275000649F6627B00DA11D661F829F2227B00DC2
:10276000A11D621F739FB00DA11D621F839FA00D4D
:10277000611D221F749F3327A00D611D231F849F9D
:10278000600D211D822F762F6A2F11249F575040F4
:102790008AF0E1F088234AF0EE0FFF1FBB1F661F8F
:1027A000771F881F91505040A9F79E3F510570F048
:1027B00037CFA6CF5F3FECF3983EDCF38695779555
:1027C0006795B795F795E7959F5FC1F7FE2B880F43
:1027D000911D9695879597F9089511F40EF426CFDB
:1027E0003EC073DFD0F39923D9F3CEF39F57550B37
:1027F00087FF43D00024A0E640EA90018058569518
:10280000979528F4805C660F771F881F20F02617A5
:102810003707480730F4621B730B840B20293129DA
:102820004A2BA69517940794202531254A2758F757
:10283000660F771F881F20F026173707480730F4E8
:10284000620B730B840B200D311D411DA09581F788
:10285000B901842F9158880F9695879508959F3FC9
:1028600031F0915020F4879577956795B795880F4B
:10287000911D9695879597F9089591505040660F50
:10288000771F881FD2F70895BB274A3031F4992368
:1028900022F4BDE2909581959F4F0C945014BB2774
:1028A000FB015527AA27880F991FAA1FA41710F00C
:1028B000A41B83955051B9F7A05DAA3308F0A95D18
:1028C000A193009779F7B111B1931192CB010C94B8
:1028D0006914DC01FC01672F71917723E1F73297CE
:1028E00004C07C916D9370836291AE17BF07C8F3EB
:0628F0000895F894FFCFEB
:1028F600540100000000E84185EBCF41D7A3B84161
:10290600AFAEAE3E0000004000E10000000008004F
:00000001FF
