S0130000726F626F636B65795F56332E73726563CB
S11300000C94CE010C94EB010C94EB010C947E1730
S11300100C94EB010C94EB010C94EB010C94EB01AC
S11300200C94EB010C94EB010C9476130C94B41324
S11300300C94EB010C94EB010C94EB010C94EB018C
S11300400C94EB010C94EB010C94EB010C94EB017C
S11300500C94EB010C94EB010C94EB010C94EB016C
S11300600C94EB010C94EB010C94EB010C94EB015C
S11300700C94EB010C9415050C94EB010C94EB011E
S11300800C94EB010C94EB010C94EB010C94EB013C
S11300900C94EB010C94EB010C94EB010C94EB012C
S11300A00C94EB010C94EB010C94EB018305940587
S11300B0A505B605C705D805E905A617B117CD17D7
S11300C0EC170B187D181C182D187D183E18072CDA
S11300D07AA5BA6CC590DA3B9365FC8BBC53F810D7
S11300E0FD3C5692834DBD879D3AB63DCBC9BF5B5F
S11300F0BE73DA0FC93F446F6E65200A000D0A0013
S11301006F75747075743D000D0A0073756D3D0054
S11301100D0A00496E7075743D005049440A00741C
S113012075726E2072696768740A005049440A0047
S11301307475726E206C6566740A000D0A000D0AEF
S11301400050686F5B365D000D0A0050686F5B35C8
S11301505D000D0A0050686F5B345D000D0A0050AD
S1130160686F5B335D000D0A0050686F5B325D00A1
S11301700D0A0050686F5B315D000D0A0050686F16
S11301805B305D000D0A000A00646973743A200054
S11301907475726E206C6566740A007475726E20D4
S11301A072696768740A000A006761696E2A3130EF
S11301B03A20000A00616C7068612A31303A2000EC
S11301C07475726E206C6566740A007475726E20A4
S11301D072696768740A000A006761696E2A3130BF
S11301E03A20000A00616C7068612A31303A2000BC
S11301F00A00616C7068613A20000A000976793A55
S113020020302E00446972656374696F6E207678BD
S11302103A20302E000A000909793A00506F7369B8
S113022074696F6E20783A000A00646D61783A0050
S113023000010000C7021200020000840243000310
S11302400000800204010309046C02120203090481
S1130250640206030309045A020808033400310047
S11302603000000006034D003200000012034A0073
S11302702E0020004600690065006E006500000045
S11302800403090409024300020100C03209040006
S113029000010202010005240010010524010101EE
S11302A00424020605240600010705820310004009
S11302B009040100020A00000007050302400000CF
S11302C0070584024000001201000202000010C071
S11302D0167A040001010203010001C112018036F3
S11302E00181360A000909793A00497473206C6F58
S11302F0636174696F6E2069733A2000676F7420BC
S1130300746865207075636B210A004E6F2E20009F
S113031047616D65206F7665720A0048616C66748A
S1130320696D650A0050617573650A00476F616CF9
S113033020420A00476F616C20410A00506C6179C9
S1130340200A00666C617368204C4544200A000A48
S1130350002C200031422C2031433A20000A002C8A
S1130360200044657369726520506F736974696F06
S11303706E203D20000A002C2000676F616C203D38
S1130380200073656E74206D657373736167652EE9
S11303900A000A0073746174653A200011241FBEB8
S11303A0CFEFDAE0DEBFCDBF11E0A0E0B1E0E8EBD3
S11303B0FAE302C005900D92AC33B107D9F721E0FE
S11303C0ACE3B1E001C01D92A83BB207E1F70E9483
S11303D0CC180C945A1D0C9400000F931F93CF93C8
S11303E0DF93EA0189010397B9F589EA8883698370
S11303F0F90160817181828193810E941B1B6A8350
S1130400F80160817181828193810E941B1B7B832F
S1130410F80164817581868197810E941B1B6C831E
S1130420F80164817581868197810E941B1B7D83FD
S11304304AE0BE018DE00E94AC1283EC99E0019782
S1130440F1F700C000004AE0BE018EE00E94AC1249
S113045086EF90E00E943915DF91CF911F910F91A3
S11304600895CF93DF93ACE7B0E08C918F778C93B2
S11304708C9180648C93EAE7F0E0808184608083CF
S1130480808182608083808181608083CEE7D0E038
S1130490888181608883888182608883CDE7D0E009
S11304A08881826088838881846088838881886069
S11304B08883888180618883888181608883CBE791
S11304C0D0E088818F7D88838C918B7F8C938C91F5
S11304D08D7F8C938C918E7F8C93808180628083BE
S11304E08081886080837894808180688083808123
S11304F080648083DF91CF9108954F925F926F92D1
S11305007F928F929F92AF92BF92CF92DF92EF929F
S1130510FF920F931F932B013C0149015A0167017C
S113052078012091440130914501809148019091D6
S11305304901820F931F4091460150914701209138
S11305404A0130914B01240F351F821B930B90936A
S1130550B5018093B40183E191E00E943915809143
S1130560B4019091B5010E94531580E191E00E947D
S113057039158091B4019091B501209140013091D9
S11305804101AC01421B530B50933D0140933C018C
S113059020913E0130913F01820F931F90933F01C0
S11305A080933E018BE091E00E94391580913E01D9
S11305B090913F010E94531588E091E00E94391503
S11305C06091B4017091B501882777FD8095982FCB
S11305D00E94491BA30192010E943D1C2B013C0176
S11305E060913E0170913F01882777FD8095982F97
S11305F00E94491BA50194010E943D1C9B01AC0172
S1130600C301B2010E94461A4B015C0160913C0196
S113061070913D01882777FD8095982F0E94491B92
S1130620A70196010E943D1C9B01AC01C501B401C8
S11306300E94461A0E94161B7093B3016093B20184
S113064080E091E00E9439158091B2019091B3014C
S11306500E9453158DEF90E00E9439158091B401EA
S11306609091B50190934101809340018091B20132
S11306709091B3011816190674F59C01992324F47A
S113068022273327281B390B8CEB92E0821B930B18
S113069090938D0080938C00209100013091010192
S11306A08091B2019091B30199231CF491958195A5
S11306B091092817390744F48CEB92E0821B930BC1
S11306C090938D0080938C008CEB92E090938B0040
S11306D080938A002DC09C01992324F42227332778
S11306E0281B390B8CEB92E0821B930B90938B00AD
S11306F080938A0020910001309101018091B20120
S11307009091B30199231CF491958195910928172F
S1130710390744F48CEB92E0821B930B90938B008B
S113072080938A008CEB92E090938D0080938C00F0
S11307301F910F91FF90EF90DF90CF90BF90AF90FB
S11307409F908F907F906F905F904F9008958F92BD
S11307509F92AF92BF92CF92DF92EF92FF920F934C
S11307601F93CF93DF9384E891E00E9439158DE7BE
S113077091E00E9439150F2EF4E4CF2EF1E0DF2E24
S1130780F02DD6018D919C910E9453158AE791E03A
S11307900E94391583E791E00E943915C6E4D1E03F
S11307A0888199810E94531580E791E00E94391550
S11307B089E691E00E9439150F2EF8E48F2EF1E0BE
S11307C09F2EF02DF401808191810E94531586E6BD
S11307D091E00E9439158FE591E00E9439150F2EA2
S11307E0FAE4EF2EF1E0FF2EF02DD7018D919C91CC
S11307F00E9453158CE591E00E94391585E591E03E
S11308000E9439150F2EFCE4AF2EF1E0BF2EF02D1F
S1130810F501808191810E94531582E591E00E9447
S113082039158BE491E00E9439150EE411E0D801EA
S11308308D919C910E94531588E491E00E94391592
S113084081E491E00E943915809150019091510109
S11308500E9453158EE391E00E9439158BE391E0D9
S11308600E943915F40180809180D501AD90BC902F
S1130870F60180819181880D991D8A0D9B1DE3E00D
S1130880F0E0BF010E94F71C9B016B01D701ED90C2
S1130890FC90D8010D911C91888199818E0D9F1D2A
S11308A0800F911FBF010E94F71CEB01C901861B39
S11308B0970BC39744F4621773070CF04BC08A1468
S11308C09B040CF047C080E391E00E943915B1EB22
S11308D0CB16B4E0DB066CF0289A29988CEB92E0F6
S11308E090938D0080938C0090938B0080938A006A
S11308F08FC0289A299A8CEB92E0209100013091C4
S11309000101FC01E21BF30BF0938D00E0938C00DA
S113091090938B0080938A00209148013091490183
S113092080914C0190914D01821793070CF070C097
S11309308BE291E00E943915E12CF12C00E010E4E7
S113094020E030E0A9016DEC7CEC8CE49EE30E9495
S11309507D025EC0621B730B6333710544F4CC16D5
S1130960DD060CF048C0E016F1060CF044C08FE13F
S113097091E00E943915C13BD4406CF0299A289823
S11309808CEB92E090938B0080938A0090938D007F
S113099080938C003DC0289A299A8CEB92E0209198
S11309A0000130910101AC01421B530B50938B00A9
S11309B040938A0090938D0080938C0020914A018B
S11309C030914B0180914E0190914F018217930712
S11309D0FCF48AE191E00E943915E12CF12C00E04D
S11309E010E420E030E0A9016DEC7CEC8CE49EE3A3
S11309F00E947D020DC0E12CF12C00E010E420E007
S1130A0030E0A9016DEC7CEC8CEC9EE30E947D024D
S1130A10DF91CF911F910F91FF90EF90DF90CF90D6
S1130A20BF90AF909F908F9008951F920F920FB632
S1130A300F921124AF92BF92CF92DF92EF92FF9266
S1130A400F931F932F933F934F935F936F937F93D2
S1130A508F939F93AF93BF93CF93DF93EF93FF93C2
S1130A60C0914201D0914301A0907800B0907900E8
S1130A708E01000F111F0C5B1E4FF8016081718104
S1130A80882777FD8095982F0E94491B2DEC3CEC1C
S1130A904CE45FE30E943D1C6B017C01B50180E0E6
S1130AA090E00E94471B2CEC3CEC4CE45EE30E947B
S1130AB03D1C9B01AC01C701B6010E94461A0E946D
S1130AC0161BF801718360832196C830D1052CF47C
S1130AD0D0934301C093420104C010924301109289
S1130AE04201EAE7F0E080818F77808380914201C0
S1130AF0909143018730910508F07BC0FC01EA5ACC
S1130B00FF4F0C940B1DEBE7F0E080818F7D808319
S1130B10ECE7F0E080818B7F808380818D7F808310
S1130B2080818E7F808365C0EBE7F0E080818F7DDC
S1130B308083ECE7F0E080818B7F808380818D7FF0
S1130B40808380818160808354C0EBE7F0E0808102
S1130B5080628083ECE7F0E080818B7F80838081FA
S1130B608D7F808380818160808343C0EBE7F0E0E8
S1130B70808180628083ECE7F0E080818B7F8083DA
S1130B8080818260808380818E7F808332C0EBE7A6
S1130B90F0E0808180628083ECE7F0E080818B7FED
S1130BA0808380818260808380818160808321C092
S1130BB0EBE7F0E0808180628083ECE7F0E0808105
S1130BC08460808380818D7F808380818E7F808319
S1130BD010C0EBE7F0E0808180628083ECE7F0E016
S1130BE080818B7F808380818D7F808380818E7FD5
S1130BF08083EAE7F0E0808180688083808180647C
S1130C008083FF91EF91DF91CF91BF91AF919F913D
S1130C108F917F916F915F914F913F912F911F9190
S1130C200F91FF90EF90DF90CF90BF90AF900F9017
S1130C300FBE0F901F9018954F925F926F927F9204
S1130C408F929F92AF92BF92CF92DF92EF92FF92D8
S1130C500F931F93CF93DF93CDB7DEB760970FB693
S1130C60F894DEBF0FBECDBF2B013C012D833E8324
S1130C704F83588758018701D501CD90DD90ED90C1
S1130C80FC909B01AC01C701B6010E943D1CF80118
S1130C9020813181428153810E94451A69877A8774
S1130CA08B879C87D50114968D919D910D90BC9155
S1130CB0A02D89839A83AB83BC832D813E814F8190
S1130CC05885BC01CD010E943D1C6D877E878F87AE
S1130CD0988B9B01AC0169857A858B859C850E94E4
S1130CE0451A4B015C0129813A814B815C81C30126
S1130CF0B2010E943D1CF80124813581468157814F
S1130D000E94451A2B013C012D813E814F8158855B
S1130D10C701B6010E943D1C69837A838B839C833F
S1130D209B01AC01C301B2010E94461A6B017C0114
S1130D302D853E854F85588969857A858B859C8567
S1130D400E94461A6D837E838F83988729813A8116
S1130D504B815C81C301B2010E94451A2B013C0105
S1130D60A5019401C501B4010E943D1C4B015C0125
S1130D70A7019601C701B6010E943D1C9B01AC016D
S1130D80C501B4010E94461A6B017C012D813E818C
S1130D904F815885CA01B9010E943D1C4B015C0179
S1130DA0A3019201C301B2010E943D1C9B01AC014D
S1130DB0C501B4010E94461A9B01AC0101E010E098
S1130DC0C701B6010E94AA1A882314F000E010E0BB
S1130DD0C80160960FB6F894DEBF0FBECDBFDF9199
S1130DE0CF911F910F91FF90EF90DF90CF90BF9024
S1130DF0AF909F908F907F906F905F904F900895E9
S1130E002F923F924F925F926F927F928F929F9216
S1130E10AF92BF92CF92DF92EF92FF920F931F9304
S1130E20CF93DF93CDB7DEB728970FB6F894DEBF24
S1130E300FBECDBF1C0149835A836B837C830D8312
S1130E401E832F8338878501F601208131814281F9
S1130E505381F70160817181828193810E94451AD7
S1130E604B015C01F6012481358146815781F701EC
S1130E7064817581868197810E94451A6B017C018A
S1130E80A5019401C501B4010E943D1C2B013C0144
S1130E90A7019601C701B6010E943D1C9B01AC014C
S1130EA0C301B2010E94461A0E94A41C2B013C01FA
S1130EB09B01AC01C501B4010E94AE1A4B015C0157
S1130EC0A3019201C701B6010E94AE1A6B017C0115
S1130ED0F8012081318142815381C501B4010E940E
S1130EE03D1C2B013C01F801248135814681578149
S1130EF0C701B6010E943D1C9B01AC01C301B201B4
S1130F000E94461A0E94371A2B013C012A94232876
S1130F10D1F42D813E814F8158855058C701B601C7
S1130F200E943D1C6B017C0129813A814B815C81CB
S1130F30C501B4010E943D1C9B01AC01C701B6016F
S1130F400E94461A19C02D813E814F815885505800
S1130F50C701B6010E943D1C6B017C0129813A81C5
S1130F604B815C81C501B4010E943D1C9B01AC0115
S1130F70C701B6010E94451A20E030E0A9010E9491
S1130F80AA1A88234CF040925E0150925F0160924D
S1130F906001709261010CC077FA709477F87094D4
S1130FA040925E0150925F01609260017092610113
S1130FB082EF91E00E94391520E030E040E251E4F4
S1130FC060915E0170915F01809160019091610177
S1130FD00E943D1C0E94161BCB010E94531580EFFA
S1130FE091E00E94391528960FB6F894DEBF0FBE23
S1130FF0CDBFDF91CF911F910F91FF90EF90DF90C4
S1131000CF90BF90AF909F908F907F906F905F90A4
S11310104F903F902F9008954F925F926F927F92DE
S11310208F929F92AF92BF92CF92DF92EF92FF92F4
S1131030CF93DF9300D000D0CDB7DEB74B015C0176
S113104029833A834B835C8340905E0150905F0117
S1131050609060017090610120915A0130915B01B0
S113106040915C0150915D01C301B2010E94451A97
S11310706B017C0160935601709357018093580172
S113108090935901A5019401C301B2010E943D1C32
S11310904B015C0129813A814B815C81C701B60116
S11310A00E943D1C9B01AC01C501B4010E94461A7B
S11310B060935201709353018093540190935501AE
S11310C040925A0150925B0160925C0170925D0102
S11310D085EE91E00E94391520E030E040E251E4D1
S11310E060915E0170915F01809160019091610156
S11310F00E943D1C0E94161BCB010E94531583EED7
S113110091E00E94391589ED91E00E94391520E0A3
S113111030E040E251E460915201709153018091BA
S11311205401909155010E943D1C0E94161BCB0155
S11311300E94531587ED91E00E94391520E030E0BC
S1131140A9016091520170915301809154019091D1
S113115055010E94AA1A88230CF044C08BEC91E03C
S11311600E9439156091520170915301809154018C
S1131170909155010E94161B9B01772324F422278A
S11311803327261B370B8CEB92E0821B930B909337
S11311908B0080938A00E0901801F090190160910F
S11311A052017091530180915401909155010E9414
S11311B0161B9B01772324F422273327261B370B86
S11311C0E216F30644F48CEB92E08E199F09909397
S11311D08B0080938A008CEB92E090938D00809337
S11311E08C0043C080EC91E00E943915609152015B
S11311F07091530180915401909155010E94161BE6
S11312009B01772324F422273327261B370B8CEBEF
S113121092E0821B930B90938D0080938C00E0905E
S11312201801F0901901609152017091530180915D
S11312305401909155010E94161B9B01772324F4BD
S113124022273327261B370BE216F30644F48CEBD4
S113125092E08E199F0990938D0080938C008CEB03
S113126092E090938B0080938A000F900F900F90E0
S11312700F90DF91CF91FF90EF90DF90CF90BF90D0
S1131280AF909F908F907F906F905F904F90089554
S11312904F925F926F927F928F929F92AF92BF9282
S11312A0CF92DF92EF92FF92CF93DF9300D000D0E2
S11312B0CDB7DEB74B015C0129833A834B835C8352
S11312C040905E0150905F016090600170906101F8
S11312D020915A0130915B0140915C0150915D0174
S11312E0C301B2010E94451A6B017C01609356014F
S11312F0709357018093580190935901A50194016B
S1131300C301B2010E943D1C4B015C0129813A8159
S11313104B815C81C701B6010E943D1C9B01AC015D
S1131320C501B4010E94461A60935201709353019F
S1131330809354019093550140925A0150925B015D
S113134060925C0170925D0185EB91E00E94391519
S113135020E030E040E251E460915E0170915F0171
S113136080916001909161010E943D1C0E94161BB6
S1131370CB010E94531583EB91E00E94391589EA51
S113138091E00E94391520E030E040E251E46091A0
S113139052017091530180915401909155010E9422
S11313A03D1C0E94161BCB010E94531587EA91E055
S11313B00E94391520E030E0A9016091520170913A
S11313C0530180915401909155010E94AA1A8823D7
S11313D00CF044C08BE991E00E94391560915201F0
S11313E07091530180915401909155010E94161BF4
S11313F09B01772324F422273327261B370B8CEBFE
S113140092E0821B930B90938B0080938A00E09070
S11314101601F0901701609152017091530180916F
S11314205401909155010E94161B9B01772324F4CB
S113143022273327261B370BE216F30644F48CEBE2
S113144092E08E199F0990938B0080938A008CEB15
S113145092E090938D0080938C0043C080E991E0EA
S11314600E94391560915201709153018091540189
S1131470909155010E94161B9B01772324F4222787
S11314803327261B370B8CEB92E0821B930B909334
S11314908D0080938C00E0901601F090170160910C
S11314A052017091530180915401909155010E9411
S11314B0161B9B01772324F422273327261B370B83
S11314C0E216F30644F48CEB92E08E199F09909394
S11314D08D0080938C008CEB92E090938B00809332
S11314E08A000F900F900F900F90DF91CF91FF9093
S11314F0EF90DF90CF90BF90AF909F908F907F90B0
S11315006F905F904F9008950F931F93CF93DF9345
S1131510F80120813181428153810E94451A0E9441
S1131520161BEB01DD2324F4CC27DD27C61BD70BC8
S113153089E891E00E943915CE010E94531587E88D
S113154091E00E94391581E090E020911A013091D8
S11315501B01C217D30710F080E090E0DF91CF9118
S11315601F910F9108952F923F924F925F926F9225
S11315707F928F929F92AF92BF92CF92DF92EF921F
S1131580FF920F931F93CF93DF93CDB7DEB7C65867
S1131590D1090FB6F894DEBF0FBECDBFCD57DF4FD4
S11315A099838883C358D040CB57DF4F79836883AE
S11315B0C558D040ED965FAF4EAFED97EF963FAF75
S11315C02EAFEF9782E791E00E94DF1660917201DF
S11315D07091730180E090E00E94471B69837A83D5
S11315E08B839C83609178017091790180E090E015
S11315F00E94471B6D837E838F83988760917E0151
S113160070917F0180E090E00E94471B69877A8790
S11316108B879C87609184017091850180E090E0C4
S11316200E94471B6D877E878F87988B609174011A
S11316307091750180E090E00E94471B698B7A8B62
S11316408B8B9C8B60917A0170917B0180E090E0A0
S11316500E94471B6D8B7E8B8F8B988F60918001CE
S11316607091810180E090E00E94471B698F7A8F1E
S11316708B8F9C8F609186017091870180E090E050
S11316800E94471B6D8F7E8F8F8F98A39E012F5FC3
S11316903F4FEB963FAF2EAFEB97CE014196E396CB
S11316A09FAF8EAFE397AB961FAE1EAEAB97E99696
S11316B01FAE1EAEE997AB96AEADBFADAB9711961C
S11316C0E796BFAFAEAFE79714970CF048C6EB961A
S11316D0EEADFFADEB9781909190A190B190E9961A
S11316E08EAD9FADE997880F991F29E330E02C0F49
S11316F03D1F280F391FA3963FAF2EAFA397A5E434
S1131700B0E0AC0FBD1FA80FB91FA796BFAFAEAF17
S1131710A797E9968EAD9FADE997880F991F880F1B
S1131720991F0F2EF1E26F2E712CF02D6C0E7D1E81
S1131730680E791EE3962EAD3FADE3972C5F3F4FC5
S11317401F01E7960EAD1FADE797E1968CAE9DAEF7
S1131750AEAEBFAEE1975901430120E030EC4FE754
S113176054E4E1966CAD7DAD8EAD9FADE1970E94E2
S1131770AA1A882309F470C0E396AEADBFADE3970F
S1131780CD90DD90ED90FC9020E030EC4FE754E4F8
S1131790C701B6010E94AA1A882309F45DC0F101A9
S11317A0408051806280738020E030EC4FE754E445
S11317B0C301B2010E94AA1A882309F44DC0D501BD
S11317C08D919D910D90BC91A02DC158DF4F8883C0
S11317D09983AA83BB83CF57D04020E030EC4FE7F6
S11317E054E4BC01CD010E94AA1A8823A9F1A301E3
S11317F09201E1966CAD7DAD8EAD9FADE1970E94F7
S1131800451A2B013C01C158DF4F288139814A8197
S11318105B81CF57D040C701B6010E94451A6B01C6
S11318207C01A3019201C301B2010E943D1C2B0162
S11318303C01A7019601C701B6010E943D1C9B0112
S1131840AC01C301B2010E94461A0E94A41CF40117
S11318506083718382839383A396AEADBFADA39758
S1131860AB96EEADFFADAB97ED93FD93A396BFAFF3
S1131870AEAFA397A796AEADBFADA7970D931D933B
S1131880A796BFAFAEAFA7970F5F1F4FB4E02B0E65
S1131890311CE4E0AE0EB11CF4E08F0E911C043058
S11318A0110509F05ACFE9968EAD9FADE997E796F9
S11318B02EAD3FADE797821B930BDC011496E9969E
S11318C0BFAFAEAFE997EB96EEADFFADEB973496B5
S11318D0EB96FFAFEEAFEB97E3962EAD3FADE397FC
S11318E02C5F3F4FE3963FAF2EAFE397E7968EAD65
S11318F09FADE797039749F0E796AEADBFADE79785
S1131900AB96BFAFAEAFAB97D6CEE996EEADFFAD1B
S1131910E9971E161F0684F56E01F1E2CF0ED11C65
S1131920212C312C00E010E0E12CF12CE996AEAC36
S1131930BFACE997D6014D905D906D907D906D019F
S1131940B801882777FD8095982F0E94491B9B0139
S1131950AC01C301B2010E94391C181634F4C3014E
S1131960B2010E94161B8B011701BFEFEB1AFB0A91
S1131970EA14FB04F9F604C0212C312C00E010E039
S11319808AE292E00E943915C8010E94531588E248
S113199092E00E943915E996EEADFFADE9971E1667
S11319A01F06DCF56E01F1E2CF0ED11CA3961FAE2B
S11319B01EAEA3970F2EF0E1AF2EF7E2BF2EF02D4F
S11319C0E12CF12C4801E9960EAD1FADE997D60143
S11319D04D905D906D907D906D01B501882777FDE8
S11319E08095982F0E94491B9B01AC01C301B20151
S11319F00E94AA1A88234CF4C301B2010E94161B48
S1131A005B01A396FFAEEEAEA397BFEFEB1AFB0A02
S1131A10E016F106E1F6840104C0A3961FAE1EAEE3
S1131A20A39780900E0190900F01A0901001B090A8
S1131A301101B801882777FD8095982F0E94491BD2
S1131A40A50194010E943D1C2B013C01C090120190
S1131A50D0901301E0901401F0901501E2E0F1E060
S1131A60AB96FFAFEEAFAB97A7961FAE1EAEA79790
S1131A7001E010E0AF963FAE2EAEAF971F01D1014B
S1131A802D913D914D915D911D01C301B2010E94C3
S1131A90451A0E94161B9B01772324F4222733271F
S1131AA0261B370BB901882777FD8095982F0E9454
S1131AB0491BA70196010E94AA1A882324F4A79619
S1131AC01FAF0EAFA7970F5F1F4F04301105B9F674
S1131AD0AF962EAC3FACAF9765961CAE1DAE1EAE56
S1131AE01FAE659780E090E0A0E8BFE369968CAFF5
S1131AF09DAFAEAFBFAF6997A796EEADFFADA79709
S1131B00E230F10519F0339751F15AC0A50194015F
S1131B1060E070E088E691E40E94AE1AE1966CAF52
S1131B207DAF8EAF9FAFE19784E997E8A5EEBEE362
S1131B3065968CAF9DAFAEAFBFAF659781EA96ED6A
S1131B40A4E6BFEB69968CAF9DAFAEAFBFAF69970C
S1131B50E5961CAE1DAE1EAE1FAEE59745C0A501B1
S1131B60940161EE7AE78AE391E40E94AE1AE59665
S1131B706CAF7DAF8EAF9FAFE597A501940163E293
S1131B807BED8BE091EC0E94AE1AE1966CAF7DAFD9
S1131B908EAF9FAFE19786E696E6A6E7BFEB659624
S1131BA08CAF9DAFAEAFBFAF65978FE99DECAAE850
S1131BB0BEE369968CAF9DAFAEAFBFAF699714C05B
S1131BC0A7962EAD3FADA797121613060CF036C399
S1131BD0E5961CAE1DAE1EAE1FAEE597E1961CAE9B
S1131BE01DAE1EAE1FAEE197F101EE0FFF1F81E0A7
S1131BF090E08C0F9D1FE80FF91F00AD11ADA39667
S1131C00EEADFFADA397EE0FFF1FE80FF91F80ADF8
S1131C1091AD8017910789F0A396EEADFFADA39720
S1131C20EE0FFF1FA5E4B0E0AC0FBD1FEA0FFB1FD2
S1131C30808191810817190769F4D101AA0FBB1F8C
S1131C40E5E4F0E0EC0FFD1FAE0FBF1FF8010D91AE
S1131C501C910CC0F101EE0FFF1F25E430E02C0FA6
S1131C603D1FE20FF31F0190F081E02DA7968EAD8A
S1131C709FADA797019709F045C06F01CC0CDD1CFF
S1131C80CC0CDD1CA1E0B0E0AC0FBD1FCA0EDB1E06
S1131C907801EE0CFF1CEE0CFF1CEA0EFB1EF70194
S1131CA02081318142815381D6016D917D918D9145
S1131CB09C910E94461A20E030E040E05FE30E94DD
S1131CC03D1CAD966CAF7DAF8EAF9FAFAD97F70166
S1131CD02089318942895389D60150966D917D912D
S1131CE08D919C9153970E94461A20E030E040E089
S1131CF05FE30E943D1CA9966CAF7DAF8EAF9FAF92
S1131D00A9971EC0EE0FFF1FEE0FFF1F21E030E06A
S1131D102C0F3D1FE20FF31F80819181A281B381BB
S1131D20AD968CAF9DAFAEAFBFAFAD9780899189B3
S1131D30A289B389A9968CAF9DAFAEAFBFAFA99767
S1131D40000F111F000F111FA1E0B0E0AC0FBD1F69
S1131D500A0F1B1FAD962CAD3DAD4EAD5FADAD97DB
S1131D60F80160817181828193810E94451A4B013F
S1131D705C01A9962CAD3DAD4EAD5FADA997D801E0
S1131D8050966D917D918D919C9153970E94451A27
S1131D906B017C01A5019401C501B4010E943D1CA5
S1131DA02B013C01A7019601C701B6010E943D1C0D
S1131DB09B01AC01C301B2010E94461A0E94A41CFB
S1131DC02B013C019B01AC01C501B4010E94AE1A78
S1131DD04B015C016D966CAF7DAF8EAF9FAF6D977D
S1131DE0A3019201C701B6010E94AE1A6B017C01E6
S1131DF0A1966CAF7DAF8EAF9FAFA19765962CADCA
S1131E003DAD4EAD5FAD6597C501B4010E943D1C6B
S1131E104B015C0169962CAD3DAD4EAD5FAD69974C
S1131E20C701B6010E943D1C9B01AC01C501B40170
S1131E300E94461A2B013C019B01AC010E943D1CEF
S1131E409B01AC0160E070E080E89FE30E94451ACA
S1131E500E94A41CA5966CAF7DAF8EAF9FAFA597D3
S1131E60FE01EF5AFF4F7F018E01075A1F4F9B015E
S1131E70AC01C301B2010E941C064C0181309105E2
S1131E8009F0A1C00F2EFCE1AF2EF1E0BF2EF02D22
S1131E90D5012D913D914D915C91AD966CAD7DAD8B
S1131EA08EAD9FADAD970E94451AA30192010E9489
S1131EB03D1C9B01AC01E5966CAD7DAD8EAD9FAD37
S1131EC0E5970E94451A6B017C0100E211E0F801DC
S1131ED02081318142815381A9966CAD7DAD8EAD57
S1131EE09FADA9970E94451AA5962CAD3DAD4EAD68
S1131EF05FADA5970E943D1C9B01AC01C701B601D3
S1131F000E94461AED96AEADBFADED976D937D93ED
S1131F108D939C931397F8012081318142815381E1
S1131F20A9966CAD7DAD8EAD9FADA9970E94451A63
S1131F30A30192010E943D1C9B01AC01E1966CAD92
S1131F407DAD8EAD9FADE1970E94451A6B017C017A
S1131F50D5012D913D914D915C91AD966CAD7DADCA
S1131F608EAD9FADAD970E94451AA5962CAD3DADA3
S1131F704EAD5FADA5970E943D1C9B01AC01C7010E
S1131F80B6010E94451AED96EEADFFADED97648360
S1131F90758386839783EF96AEADBFADEF974D9271
S1131FA05D926D927C921397A5968CAD9DADAEAD6E
S1131FB0BFADA597EF96EEADFFADEF978483958304
S1131FC0A683B783A1C00F2EFCE1AF2EF1E0BF2E94
S1131FD0F02DD5012D913D914D915C91AD966CAD57
S1131FE07DAD8EAD9FADAD970E94451AA3019201C0
S1131FF00E943D1C9B01AC01E5966CAD7DAD8EADA0
S11320009FADE5970E94451A6B017C0100E211E047
S1132010F8012081318142815381A9966CAD7DAD57
S11320208EAD9FADA9970E94451AA5962CAD3DADE6
S11320304EAD5FADA5970E943D1C9B01AC01C7014D
S1132040B6010E94451AED96AEADBFADED976D9306
S11320507D938D939C931397F80120813181428164
S11320605381A9966CAD7DAD8EAD9FADA9970E94AD
S1132070451AA30192010E943D1C9B01AC01E1960B
S11320806CAD7DAD8EAD9FADE1970E94451A6B019D
S11320907C01D5012D913D914D915C91AD966CAD36
S11320A07DAD8EAD9FADAD970E94451AA5962CAD22
S11320B03DAD4EAD5FADA5970E943D1C9B01AC01AB
S11320C0C701B6010E94461AED96EEADFFADED973D
S11320D06483758386839783EF96AEADBFADEF9728
S11320E04D925D926D927C921397A5968CAD9DADA9
S11320F0AEADBFADA597B058EF96EEADFFADEF977F
S113210084839583A683B783ED96EEADFFADED97FB
S113211080819181A281B38180936A0190936B0144
S1132120A0936C01B0936D0184819581A681B781E0
S113213080936E0190936F01A0937001B09371012D
S1132140EF96EEADFFADEF9780819181A281B381CF
S11321508093620190936301A0936401B09365013D
S113216084819581A681B7818093660190936701EC
S1132170A0936801B0936901CD57DF4F888199819D
S1132180C358D0400397029708F090C0ED96AEADC7
S1132190BFADED9714962D913D914D915C9117979C
S11321A06D917D918D919C91CB57DF4F0881198161
S11321B0C558D0400E94840A892BB9F5EF96AEAC7D
S11321C0BFACEF97ED96CEACDFACED97CB57DF4FBE
S11321D0E880F980C558D04093018201A5964CADA2
S11321E05DAD6EAD7FADA597C4010E940007CD57CC
S11321F0DF4FE881F981C358D040339759F420E088
S113220030E048EC52E460E070E086E993E40E9438
S11322100C084CC020E030E048EC53E460E070E08F
S11322208AEF93E40E94480941C010928B001092F7
S11322308A0010928D0010928C0038C080916A013F
S113224090916B01A0916C01B0916D01ED96EEAD92
S1132250FFADED9780839183A283B38380916E0158
S113226090916F01A0917001B09171018483958365
S1132270A683B7838091620190916301A091640168
S1132280B0916501EF96EEADFFADEF97808391833A
S1132290A283B3838091660190916701A091680144
S11322A0B091690184839583A683B7838CE192E01E
S11322B00E943915ED96AEADBFADED976D917D9150
S11322C08D919C910E94161BCB010E94531587E1AE
S11322D092E00E943915ED96EEADFFADED97648165
S11322E07581868197810E94161BCB010E9453152C
S11322F085E192E00E94391584E092E00E9439154C
S113230020E030E04AE754E4EF96AEADBFADEF977E
S11323106D917D918D919C910E943D1C0E94161B94
S1132320CB010E9453158CEF91E00E94391520E0F7
S113233030E04AE754E4EF96EEADFFADEF976481E9
S11323407581868197810E943D1C0E94161BCB01DA
S11323500E9453158AEF91E00E94391514C0EB9640
S11323602EAD3FADEB972C5F3F4FEB963FAF2EAFBB
S1132370EB97E3968EAD9FADE3970496E3969FAFFC
S11323808EAFE397B9CACA57DF4F0FB6F894DEBFD2
S11323900FBECDBFDF91CF911F910F91FF90EF90B2
S11323A0DF90CF90BF90AF909F908F907F906F9071
S11323B05F904F903F902F900895589A599A5A9A47
S11323C08CE08093B800E9E6F0E08081806280834D
S11323D080818F7E8083EA9A789408951F93CF93A7
S11323E0DF93182FD62FC42F0E94DD1194EA909307
S11323F0BC00ECEBF0E090819923ECF790E590932E
S1132400BB0094E89093BC00ECEBF0E0908199233E
S1132410ECF79091B900987F903229F484E9809385
S1132420BC0080E02DC081E08093BB0084E88093F1
S1132430BC00ECEBF0E090819923ECF71093BB0027
S113244084E88093BC00ECEBF0E080818823ECF717
S1132450D093BB0084E88093BC00ECEBF0E0808177
S11324608823ECF7C093BB0084E88093BC00ECEBBA
S1132470F0E080818823ECF784E98093BC0081E05C
S1132480DF91CF911F9108951F93CF93DF9324EA97
S11324902093BC00ECEBF0E020812223ECF721E553
S11324A02093BB0024E82093BC00ECEBF0E02081F7
S11324B02223ECF72091B900287F283429F484E9F9
S11324C08093BC0080E044C024EC2093BC00ECEB7F
S11324D0F0E020812223ECF71091BB0016130AC010
S11324E0412F50E0415051091416150644F020E0E4
S11324F030E01CC084E98093BC0080E029C0DC018A
S113250020E030E0ECEBF0E074ECCBEBD0E0708357
S113251060816623ECF768816D932F5F3F4F24172A
S11325203507ACF3212F30E02150310944E84093C2
S1132530BC00ECEBF0E040814423ECF74091BB009D
S1132540FC01E20FF31F408384E98093BC0081E027
S1132550DF91CF911F910895CF93DF93F89494EA7C
S11325609093BC00ECEBF0E090819923ECF790E5BC
S11325709093BB0094E89093BC00ECEBF0E0908166
S11325809923ECF79091B900987F903231F484E963
S11325908093BC00789480E032C093E09093BB00B9
S11325A094E89093BC00ECEBF0E090819923ECF775
S11325B08093BB0084E88093BC00ECEBF0E0808166
S11325C08823ECF7242F30E0121613069CF4A62F70
S11325D0B72F80E090E0CBEBD0E0ECEBF0E054E8F8
S11325E04D914883508340814423ECF70196821730
S11325F09307B4F384E98093BC00789481E0DF917D
S1132600CF91089581E08093D70080EA8093D80029
S113261082E189BD09B400FEFDCF80E98093D80032
S11326201092E00010928D0110928A018CE0809348
S1132630E20078940895CF93DF9390918D019923CC
S113264009F44CC09FB7F89424E02093E90020914A
S11326508B01222349F02091E80025FD03C09FBF90
S11326608FEF41C010928B013091E400375E2091CE
S1132670E80025FD24C09FBF9091E400931781F0EA
S113268090918D01992361F1A9EEB0E044E0E8EE68
S1132690F0E0C4EED0E00DC09FBF9881931305C055
S11326A081E080938B018FEF1EC090918D0199235F
S11326B0C9F09FB7F8944C93208125FFEDCF809308
S11326C0F1008091E80085FD03C08AE38093E8006F
S11326D085E080938C019FBF80E005C08FEF03C02D
S11326E08FEF01C08FEFDF91CF9108951F920F926A
S11326F00FB60F9211248F939F93EF93FF93E1EE04
S1132700F0E08081108283FF11C01092E90091E013
S11327109093EB001092EC0092E19093ED0098E01E
S11327209093F00010928D0110928A0182FF13C0E1
S113273080918D01882379F080918C01882359F050
S1132740815080938C01811106C084E08093E9005C
S11327508AE38093E800FF91EF919F918F910F900E
S11327600FBE0F901F9018951F920F920FB60F92E5
S113277011240F931F932F933F934F935F936F9362
S11327807F938F939F93AF93BF93CF93DF93EF93F5
S1132790FF931092E9008091E80083FF4EC1E1EFBE
S11327A0F0E0C08140812081808130E0382B80813D
S11327B0508190E0BC01752BB081A08182EF8093A1
S11327C0E800463009F058C004C081E28093EB0071
S11327D03BC1C6E080E392E0FC014591549124178B
S11327E0350711F0079623C0FC01329645915491A8
S11327F06417750711F007961AC0FC0134962591E9
S11328003491FC01369654918B2F90E09A2B8F3F94
S1132810910519F010F08FEF90E0851708F4582F08
S1132820A8EEB0E070E16EEFC1EFD0E003C0C1509C
S113283099F6CBCF8C91982F9570E1F382FD04C16A
S1132840452F513108F0472F442309F4FAC0F90108
S1132850842F94919883815031968111FACF8FEF10
S1132860840F90E00196280F391F541B6C9351116B
S1132870E1CF4031F9F2E8C0453061F48EEF809346
S1132880E800E8EEF0E0808180FFFDCF206820932F
S1132890E300DAC0493009F036C0C1115FC02093AB
S11328A08D0110928A0110928C018EEF8093E800C2
S11328B011E089ED92E0C9EED0E0ABEEB0E06CEE51
S11328C070E04DEE50E018839C012F5F3F4FFC01F8
S11328D004910C93002361F0F9012491FB012083FE
S11328E09C012D5F3F4FFC0132968491FA01808355
S11328F01F5F153011F0C901E6CFEAEEF0E08EE17A
S113290080831082A1C0483081F4C03809F042C0ED
S1132910E8EEF0E0808180FFFDCF80918D0180930F
S1132920F1008EEF8093E8008FC04132B9F4C13AD0
S113293009F040C0E8EEF0E0808180FFFDCFE4E2E2
S1132940F1E08BE291E0A1EFB0E021912C93E81744
S1132950F907D9F78EEF8093E80076C04032D1F4BE
S1132960C13209F043C0E8EEF0E0808182FFFDCF80
S1132970E4E2F1E08BE291E0A1EFB0E02C9121934D
S1132980E817F907D9F7E8EEF0E08BEF80838EEFD4
S113299080835AC0423271F4C13209F04EC0209390
S11329A08A01E8EEF0E0808180FFFDCF8EEF809316
S11329B0E8004AC041111AC0E8EEF0E0808180FFCF
S11329C0FDCFC23851F4E9EEF0E060838091EB0072
S11329D085FB882780F9108201C080E0E1EFF0E0F8
S11329E0808310828EEF8093E8002EC0842F8D7F29
S11329F0813019F5C23009F5232BF9F46F778FEF85
S1132A00860F8430D0F48EEF8093E8006093E90061
S1132A10433021F481E28093EB0016C089E1809376
S1132A20EB0081E090E002C0880F991F6A95E2F7FD
S1132A30EAEEF0E08083108207C081E28093EB002D
S1132A4003C06C935111F6CEFF91EF91DF91CF91BA
S1132A50BF91AF919F918F917F916F915F914F91B2
S1132A603F912F911F910F910F900FBE0F901F90C8
S1132A7018951F93CF93DF93EC012196FC011491D9
S1132A80112369F01A3019F48DE00E941B13812F71
S1132A900E941B13FE01149121961111F3CFDF91B3
S1132AA0CF911F910895EF92FF920F931F93CF93AD
S1132AB0DF93CDB7DEB727970FB6F894DEBF0FBE0E
S1132AC0CDBF8E010F5F1F4F27E0F80111922A95A9
S1132AD0E9F74AE0B8010E94251D7E01F8E0EF0EF7
S1132AE0F11CF80181918F0181110E941B130E15B5
S1132AF01F05B9F727960FB6F894DEBF0FBECDBFFA
S1132B00DF91CF911F910F91FF90EF90089520E0F6
S1132B1030E0ECEBF0E08081882334F02F5F3F4F0E
S1132B20293E83E03807B9F781E0283E334009F4B1
S1132B3080E008958093BB0084E88093BC000E94E9
S1132B408715882319F08091B900887F0895CF9361
S1132B50C82F94EA9093BC000E948715882361F0E3
S1132B608C2F880F0E949A15803229F484E980936F
S1132B70BC0080E001C081E0CF9108950E94DD1186
S1132B8088E50E94A715882309F4CDC080E30E943C
S1132B909A15882309F4C9C081E00E949A158823F4
S1132BA009F4C5C084E98093BC0083EC99E00197E3
S1132BB0F1F700C0000088E50E94A715882309F4F6
S1132BC0B8C080E00E949A15882309F4B4C080E05C
S1132BD00E949A15882309F4B0C080E00E949A15D7
S1132BE0882309F4ACC080E00E949A15882309F474
S1132BF0A8C080E00E949A15882309F4A4C080E04C
S1132C000E949A15882309F4A0C080E00E949A15B6
S1132C10882309F49CC080E90E949A15882309F44A
S1132C2098C084E98093BC0083EC99E00197F1F7A4
S1132C3000C0000088E50E94A715882309F48BC012
S1132C4087E00E949A15882309F487C080E00E94D7
S1132C509A15882309F483C081E40E949A15882375
S1132C6009F47FC084E98093BC0083EC99E0019768
S1132C70F1F700C0000088E50E94A715882309F435
S1132C8072C08AE10E949A15882309F46EC080E418
S1132C900E949A15882309F46AC080E00E949A155C
S1132CA0882309F466C084E98093BC0083EC99E02E
S1132CB00197F1F700C0000088E50E94A71588235A
S1132CC009F459C083E30E949A15882309F455C076
S1132CD083E00E949A15882309F451C084E9809303
S1132CE0BC0083EC99E00197F1F700C0000088E58F
S1132CF00E94A715882309F444C080E30E949A1512
S1132D00882309F440C088E00E949A158823E9F1D9
S1132D1084E98093BC0083EC99E00197F1F700C04B
S1132D20000081E0089580E0089580E0089580E047
S1132D30089580E0089580E0089580E0089580E09B
S1132D40089580E0089580E0089580E0089580E08B
S1132D50089580E0089580E0089580E0089580E07B
S1132D60089580E0089580E0089580E0089580E06B
S1132D70089580E0089580E0089580E0089580E05B
S1132D80089580E0089580E0089580E00895CF9349
S1132D90C82F94EA9093BC000E948715882369F099
S1132DA08C2F880F8F5F0E949A15883429F484E948
S1132DB08093BC0080E001C081E0CF910895EF9240
S1132DC0FF920F931F93CF93DF93CDB7DEB7609736
S1132DD00FB6F894DEBF0FBECDBF082F192FFE012A
S1132DE0319680E1DF011D928A95E9F788E50E941A
S1132DF0A715882309F46EC086E30E949A158823D8
S1132E0009F46AC084E98093BC00B8E0BA95F1F78C
S1132E10000088E50E94C716882309F45FC0BE013C
S1132E206F5F7F4F9E01205F3F4FECEBF0E094EC2F
S1132E304BEB50E0908380818823ECF7DA018C918E
S1132E40DB018D93BD01A217B307A1F784E880933A
S1132E50BC00ECEBF0E080818823ECF78091BB00B0
S1132E60888B84E98093BC00FE013496E02EF12E19
S1132E708081982F9073AF0142505109DA014C912F
S1132E8050E0B0E19B9F400D511D1124D7014D939B
S1132E905C93482F407C50E0440F551F440F551F4E
S1132EA0BF0161507109DB019C91490F511DD7018C
S1132EB013965C934E9312978F7090E015969C93A3
S1132EC08E9314973396B6E0EB0EF11C2E173F0742
S1132ED079F606C080E005C080E003C080E001C050
S1132EE081E060960FB6F894DEBF0FBECDBFDF91D0
S1132EF0CF911F910F91FF90EF9008951F920F9221
S1132F000FB60F9211240F931F932F933F934F9358
S1132F105F936F937F938F939F93AF93BF93CF935D
S1132F20DF93EF93FF936AE088EA91E00E944412F2
S1132F308091A80190E0FC01E05AF109EA30F10522
S1132F4008F0DBC0E35AFF4F0C940B1D83E493E0BD
S1132F500E94391581E090E09093B7018093B60107
S1132F60CCC08CE393E00E943915369B03C02A9AA7
S1132F702B9802C02B9A2A9882E090E09093B70194
S1132F808093B6018CEB92E090938B0080938A003F
S1132F9090938D0080938C00B0C084E393E00E94F2
S1132FA039158091A90190E09093A7018093A6011F
S1132FB08091AA0190E09093A5018093A4011092BE
S1132FC08B0010928A0010928D0010928C00109247
S1132FD0B7011092B60191C08CE293E00E943915BA
S1132FE08091A90190E09093A7018093A60180911C
S1132FF0AA0190E09093A5018093A40110928B0004
S113300010928A0010928D0010928C001092B701D9
S11330101092B60172C085E293E00E9439151092B5
S1133020B7011092B60110928B0010928A00109290
S11330308D0010928C0061C08BE193E00E943915E1
S11330401092B7011092B60110928B0010928A0070
S113305010928D0010928C0050C080E193E00E9489
S113306039151092B7011092B60110928B0010928C
S11330708A0010928D0010928C003FC08091A901AB
S113308090E090939301809392010EE811E0E8EAB6
S1133090F1E082819381D8018D939C93C0E9D1E0C2
S11330A084819581998388838BE093E00E9439150C
S11330B080919201909193010E9453158CEF92E0BC
S11330C00E9439158AEE92E00E943915F801808138
S11330D091810E94531585EE92E00E9439158881F2
S11330E099810E94531583EE92E00E94391584E081
S11330F090E09093B7018093B601FF91EF91DF9137
S1133100CF91BF91AF919F918F917F916F915F917B
S11331104F913F912F911F910F910F900FBE0F90E0
S11331201F901895209A289A219A299A80E293E070
S1133130909389008093880010928B0010928A00EB
S113314010928D0010928C00A1E8B0E08C91806107
S11331508C938C9188608C93E0E8F0E080818260AD
S1133160808380818160808380818062808380818C
S11331708F7E808380818860808380818B7F808341
S1133180269A279A8C918B7F8C938C918D7F8C932C
S11331908C9181608C930895E1E6F0E080E880836F
S11331A010820E9402136E9A76980E94BE1588239C
S11331B0E1F36E9A769A6E9A76980E94DD114AE04F
S11331C06CE081E00E94EE116E9A769A0E94921849
S11331D00E9431023E98229A239A83E090E09093D1
S11331E0B7018093B601369B34C02A9A2B9880E0AD
S11331F090E0A9EBB3EC8093330190933401A09356
S11332003501B093360180E090E0A8E4B3EC8093FC
S11332102B0190932C01A0932D01B0932E0168945F
S1133220BB24B6F86894AA24A2F80F2EF7E3CF2E95
S1133230F1E0DF2EF02D0F2EFFE2EF2EF1E0FF2E56
S1133240F02D0AE810E0CCE8D0E06894992493F8D3
S11332501BC02B9A2A9880E090E0A9EBB3E48093FA
S1133260330190933401A0933501B093360180E08B
S113327090E0A8E4B3E480932B0190932C01A093F5
S11332802D01B0932E01CBCF84E993E00E94391530
S11332908091B6019091B7010E94531582E993E0A1
S11332A00E9439158091B6019091B7018230910541
S11332B061F12CF4009751F0019771F0BCC0833098
S11332C09105E1F1049709F47FC0B5C0F8011182BA
S11332D0108219821882AFC0369B05C085B18A2539
S11332E085B92B9804C085B1892585B92A986E9A29
S11332F08EB18B258EB9FFE32DE083E0F1502040A1
S11333008040E1F700C0000096C06E9A8EB18B2514
S11333108EB96A9A729A8091B6019091B7010E940F
S1133320A70324E931E04CE951E063E371E08091C3
S1133330B6019091B7010E94B30A7DC06A9A8EB11A
S11333408A258EB96E9A769A24E931E04CE951E0E7
S113335063E371E08091B6019091B7010E94B30AD2
S11333602CE931E048EA51E061E070E08091B60177
S11333709091B7010E94ED0182E893E00E94391513
S11333808AE793E00E94391560913301709134010A
S113339080913501909136010E94161BCB010E9449
S11333A0531587E793E00E943915F6016081718116
S11333B0828193810E94161BCB010E94531585E7DD
S11333C093E00E94391537C06A9A8EB18A258EB966
S11333D06E9A8EB18B258EB924E931E04CE951E027
S11333E06BE271E08091B6019091B7010E94B30A3B
S11333F082E693E00E94391560912B0170912C01B3
S113340080912D0190912E010E94161BCB010E94E8
S113341053158FE593E00E943915F701608171819E
S1133420828193810E94161BCB010E9453158DE566
S113343093E00E94391584E593E00E943915F80160
S1133440808191810E94531581E593E00E94391592
S1133450888199810E9453158FE493E00E94391565
S113346085EA9EE00197F1F700C000000DCF9F931D
S11334709F774AD10F9000203AF49058A2EA2AED9F
S11334803FE049E450E413D0BAC15058BB27AA27FF
S11334900ED0B5C1A6D130F0ABD120F031F49F3FAE
S11334A011F41EF476C10EF4E095E7FB6CC1E92F2C
S11334B0B7D180F3BA17620773078407950718F02A
S11334C071F49EF5CFC10EF4E0950B2EBA2FA02D0A
S11334D00B01B90190010C01CA01A0011124FF27BD
S11334E0591B99F0593F50F4503E68F11A16F040B8
S11334F0A22F232F342F4427585FF3CF46953795B7
S11335002795A795F0405395C9F77EF41F16BA0B7B
S1133510620B730B840BBAF09150A1F0FF0FBB1F29
S1133520661F771F881FC2F70EC0BA0F621F731F72
S1133530841F48F4879577956795B795F7959E3FCF
S113354008F0B3CF9395880F08F09927EE0F97955D
S113355087950895F4D008F481E008950CD04FC104
S113356047D140F03ED130F021F45F3F19F00BC158
S1133570511179C10EC154D198F39923C9F355233C
S1133580B1F3951B550BBB27AA2762177307840752
S113359038F09F5F5F4F220F331F441FAA1FA9F308
S11335A033D00E2E3AF0E0E830D091505040E695FA
S11335B0001CCAF729D0FE2F27D0660F771F881F5B
S11335C0BB1F261737074807AB07B0E809F0BB0B4A
S11335D0802DBF01FF2793585F4F2AF09E3F51056E
S11335E068F0D1C040C15F3FECF3983EDCF38695B0
S11335F077956795B795F7959F5FC9F7880F911DE4
S11336009695879597F90895E1E0660F771F881FCF
S1133610BB1F621773078407BA0720F0621B730B82
S1133620840BBA0BEE1F88F7E095089504D06894D4
S1133630B11119C10895FCD088F09F5790F0B92FAB
S11336409927B751A0F0D1F0660F771F881F991FF3
S11336501AF0BA95C9F712C0B13081F003D1B1E0C4
S1133660089500C1672F782F8827B85F39F0B93FD4
S1133670CCF3869577956795B395D9F73EF49095F5
S11336808095709561957F4F8F4F9F4F0895E89473
S113369009C097FB3EF490958095709561957F4F96
S11336A08F4F9F4F9923A9F0F92F96E9BB27939544
S11336B0F695879577956795B795F111F8CFFAF454
S11336C0BB0F11F460FF1BC06F5F7F4F8F4F9F4F85
S11336D016C0882311F096E911C0772321F09EE8E3
S11336E0872F762F05C0662371F096E8862F70E049
S11336F060E02AF09A95660F771F881FDAF7880F23
S11337009695879597F90895DF93CF931F930F9319
S11337108B01EC01EEECF0E03FD071D09801AE01EA
S11337208B01EC0160E070E080E89FE3AEDE0CD139
S11337309801AE010F911F91CF91DF91AAC0990F0B
S11337400008550FAA0BE0E8FEEF16161706E80767
S1133750F907C0F012161306E407F50798F0621B88
S1133760730B840B950B39F40A2661F0232B242B5D
S1133770252B21F408950A2609F4A140A6958FEF7C
S1133780811D811D089597F99F6780E870E060E0CE
S113379008959FEF80EC0895DF93CF931F930F93C9
S11337A0FF92EF92DF927B018C01689405C0DA2EC0
S11337B0EF016FD0FE01E894A591259135914591D3
S11337C05591AEF3EF0173DEFE019701A801DA947F
S11337D079F7DF90EF90FF900F911F91CF91DF91D8
S11337E0089500240A941616170618060906089563
S11337F000240A9412161306140605060895092EC9
S11338000394000C11F4882352F0BB0F40F4BF2B37
S113381011F460FF04C06F5F7F4F8F4F9F4F089577
S113382057FD9058440F551F59F05F3F71F047956D
S1133830880F97FB991F61F09F3F79F08795089552
S1133840121613061406551FF2CF4695F1DF08C071
S1133850161617061806991FF1CF8695710561058E
S113386008940895E894BB2766277727CB0197F936
S1133870089565DF08F48FEF08950BD0C0CFB1DF52
S113388028F0B6DF18F0952309F07DCF82CF1124FC
S1133890EACFC6DFA0F3959FD1F3950F50E0551FF3
S11338A0629FF001729FBB27F00DB11D639FAA2791
S11338B0F00DB11DAA1F649F6627B00DA11D661FE0
S11338C0829F2227B00DA11D621F739FB00DA11D01
S11338D0621F839FA00D611D221F749F3327A00DBB
S11338E0611D231F849F600D211D822F762F6A2F57
S11338F011249F5750408AF0E1F088234AF0EE0FDC
S1133900FF1FBB1F661F771F881F91505040A9F7E8
S11339109E3F510570F037CFA6CF5F3FECF3983E42
S1133920DCF3869577956795B795F795E7959F5F4F
S1133930C1F7FE2B880F911D9695879597F90895E9
S113394011F40EF426CF3EC073DFD0F39923D9F3DC
S1133950CEF39F57550B87FF43D00024A0E640EADF
S1133960900180585695979528F4805C660F771FD0
S1133970881F20F026173707480730F4621B730BA3
S1133980840B202931294A2BA695179407942025C6
S113399031254A2758F7660F771F881F20F026170E
S11339A03707480730F4620B730B840B200D311D6D
S11339B0411DA09581F7B901842F9158880F9695E0
S11339C0879508959F3F31F0915020F4879577951E
S11339D06795B795880F911D9695879597F90895E2
S11339E091505040660F771F881FD2F7089597FBB8
S11339F0072E16F4009407D077FD09D00E94111DFC
S1133A0007FC05D03EF4909581959F4F08957095DD
S1133A1061957F4F0895EE0FFF1F0590F491E02DFF
S1133A200994AA1BBB1B51E107C0AA1FBB1FA61701
S1133A30B70710F0A61BB70B881F991F5A95A9F753
S1133A4080959095BC01CD010895BB274A3031F48F
S1133A50992322F4BDE2909581959F4F0C94311DDA
S1133A60BB27FB015527AA27880F991FAA1FA41754
S1133A7010F0A41B83955051B9F7A05DAA3308F048
S1133A80A95DA193009779F7B111B1931192CB017C
S1133A900C944A1DDC01FC01672F71917723E1F737
S1133AA0329704C07C916D9370836291AE17BF0707
S10B3AB0C8F30895F894FFCF58
S1133AB8BC020000E84185EBCF41D7A3B841744B61
S1133AC89C3E00000040BC025802460000000C4422
S1133AD80080C24300E100000000080000484300E1
S10F3AE80000000000B9430000000000D2
S9030000FC
