S0110000446972656374696F6E2E7372656372
S11300000C94EE000C940B010C940B010C940B015A
S11300100C940B010C940B010C940B010C940B012C
S11300200C940B010C940B010C949B040C94D904B8
S11300300C940B010C940B010C940B010C940B010C
S11300400C940B010C940B010C940B010C940B01FC
S11300500C940B010C940B010C940B010C940B01EC
S11300600C940B010C940B010C940B010C940B01DC
S11300700C940B010C940D010C940B010C940B01CA
S11300800C940B010C940B010C940B010C940B01BC
S11300900C940B010C940B010C940B010C940B01AC
S11300A00C940B010C940B010C940B010D0A004FE2
S11300B075747075743D000D0A0053756D3D000D27
S11300C00A00496E7075743D000D0A0050686F5B3C
S11300D0355D000D0A0050686F5B345D000D0A0049
S11300E050686F5B335D000D0A0050686F5B325DD2
S11300F0000D0A0050686F5B315D000D0A00506806
S11301006F5B305D000D0A005049440A007475723B
S11301106E2072696768740A005049440A00747555
S1130120726E206C6566740A0000010000C0011242
S1130130000200007D014300030000790104010373
S11301400904650112020309045D0106030309049D
S11301505301080803340031003000000006034D49
S1130160003200000012034A002E002000460069FD
S11301700065006E006500000004030904090243E1
S113018000020100C032090400000102020100055E
S1130190240010010524010101042402060524069B
S11301A000010705820310004009040100020A004F
S11301B00000070503024000000705840240000018
S11301C01201000202000010C0167A0400010102AC
S11301D003010001C11201803601813611241FBEC2
S11301E0CFEFDAE0DEBFCDBF11E0A0E0B1E0E6EC96
S11301F0FDE002C005900D92AC30B107D9F721E0C3
S1130200ACE0B1E001C01D92A633B207E1F70E9451
S113021019030C94E1060C9400001F920F920FB680
S11302200F9211242F933F938F939F93EF93FF93F8
S11302306A9A9EB184E098279EB995B1892785B9B9
S113024080911201909113012091780030917900EE
S1130250FC01EE0FFF1FEC5EFE4F318320830196FD
S1130260873091052CF4909313018093120104C0FC
S11302701092130110921201EAE7F0E080818F7767
S1130280808380911201909113018230910589F14C
S11302902CF4009761F00197D9F06EC08430910579
S11302A009F449C0BCF1059709F456C065C0EBE7F1
S11302B0F0E080818F7D8083ECE7F0E080818B7FAC
S11302C0808380818D7F808380818E7F808354C0F2
S11302D0EBE7F0E080818F7D8083ECE7F0E08081C4
S11302E08B7F808380818D7F808380818160808308
S11302F043C0EBE7F0E0808180628083ECE7F0E0CC
S113030080818B7F808380818D7F808380818160E9
S1130310808332C0EBE7F0E0808180628083ECE789
S1130320F0E080818B7F8083808182608083808104
S11303308E7F808321C0EBE7F0E080818062808340
S1130340ECE7F0E080818B7F808380818260808312
S113035080818160808310C0EBE7F0E0808180625F
S11303608083ECE7F0E080818460808380818D7FEE
S1130370808380818E7F8083EAE7F0E080818068DB
S11303808083808180648083FF91EF919F918F911E
S11303903F912F910F900FBE0F901F901895209AA8
S11303A0289A219A299A8AEF90E090938900809361
S11303B0880090938B0080938A0090938D008093A3
S11303C08C00A1E8B0E08C9180618C938C91886062
S11303D08C93E0E8F0E0808182608083808181609A
S11303E0808380818062808380818F7E808380810E
S11303F08860808380818B7F8083269A279A8C9162
S11304008B7F8C938C918D7F8C938C9181608C935A
S11304100895CF93DF93CCE7D0E088818F778883EA
S1130420888180648883AAE7B0E08C9184608C938F
S11304308C9182608C938C9181608C93EEE7F0E0D8
S113044080818160808380818260808380818061FB
S113045080838081806280838081806480838081C6
S113046080688083EDE7F0E0808181608083808113
S113047082608083EBE7F0E080818F7D80838881D8
S11304808B7F888388818D7F888388818E7F888312
S11304908C9180628C938C9188608C937894EAE739
S11304A0F0E0808180688083808180648083DF9134
S11304B0CF91089580911401909115012091160116
S11304C030911701821B930B909335018093340173
S11304D082EC90E00E945E06809134019091350197
S11304E00E9478068FEB90E00E945E0680913401B2
S11304F0909135012091100130911101AC01421B02
S1130500530B50932F0140932E0120910E013091F3
S11305100F01820F931F90930F0180930E018AEBBA
S113052090E00E945E0680910E0190910F010E945E
S1130530780687EB90E00E945E064091020150919C
S113054003018091340190913501489F9001499FA6
S1130550300D589F300D112460910C0170910D01E4
S113056040910E0150910F01649FC001659F900D51
S1130570749F900D1124820F931F6091000170915C
S1130580010140912E0150912F01649F9001659FBC
S1130590300D749F300D1124820F931F90932D0101
S11305A080932C018FEA90E00E945E0680912C01DA
S11305B090912D010E9478068CEA90E00E945E06DC
S11305C08091340190913501909311018093100131
S11305D080912C0190912D0118161906ACF49C0100
S11305E0992324F422273327281B390B8AEF90E020
S11305F0AC01421B530B50938B0040938A009093A1
S11306008D0080938C0008959C01992324F4222763
S11306103327281B390B8AEF90E0AC01421B530BA4
S113062050938D0040938C0090938B0080938A00AC
S11306300895E1E6F0E080E8808310826A9A729877
S11306406E9A76980E9424040E943D048823E1F364
S11306506E9A769A0E94CF010E940902229A04E1BE
S113066011E0C8E1D1E00F2EF6E1CF2EF1E0DF2E4C
S1130670F02D0F2EFAE1EF2EF1E0FF2EF02D0F2ECC
S1130680FAE84F2E512CF02D0F2EFAEFAF2EB12C8D
S1130690F02D0F2EFCE82F2E312CF02D0F2EFCE127
S11306A08F2EF1E09F2EF02D0F2EFEE16F2EF1E044
S11306B07F2EF02DF8012081318188819981820F6C
S11306C0931F99230CF40196959587959093330184
S11306D080933201F60140815181F70120813181FB
S11306E0240F351F332314F42F5F3F4F359527957F
S11306F030932B0120932A01AC01421B530B43334B
S11307005105DCF08EE191E00E945E0684E690E003
S1130710F20191838083F101B182A082F8012081EA
S11307203181888199818217930774F589E191E079
S11307300E945E060E945A0227C0281B390B2333ED
S11307403105E4F08DE091E00E945E06F201B18291
S1130750A08284E690E0F10191838083F6012081F8
S11307603181F70180819181821793076CF488E0CD
S113077091E00E945E060E945A0206C0F201B18214
S1130780A082F101B182A0826E9A8EB1F0E48F272B
S11307908EB985E091E00E945E068EEF90E00E94A3
S11307A05E06F801808191810E9478068BEF90E0CB
S11307B00E945E0684EF90E00E945E06F60180814E
S11307C091810E94780681EF90E00E945E068AEE95
S11307D090E00E945E06888199810E94780687EEE7
S11307E090E00E945E0680EE90E00E945E06F701B3
S11307F0808191810E9478068DED90E00E945E06D2
S113080086ED90E00E945E06F401808191810E9451
S1130810780683ED90E00E945E068CEC90E00E94E6
S11308205E06F301808191810E94780689EC90E054
S11308300E945E06FFE926E881E0F15020408040F6
S1130840E1F700C0000036CF81E08093D70080EA52
S11308508093D80082E189BD09B400FEFDCF80E910
S11308608093D8001092E00010922301109220018E
S11308708CE08093E2007894089580912301089598
S1130880CF93DF9390912301992309F44CC09FB730
S1130890F89424E02093E90020912101222349F0D7
S11308A02091E80025FD03C09FBF8FEF41C0109247
S11308B021013091E400375E2091E80025FD24C039
S11308C09FBF9091E400931781F0909123019923A5
S11308D061F1A9EEB0E044E0E8EEF0E0C4EED0E06F
S11308E00DC09FBF9881931305C081E080932101BF
S11308F08FEF1EC0909123019923C9F09FB7F894FC
S11309004C93208125FFEDCF8093F1008091E80086
S113091085FD03C08AE38093E80085E0809322018B
S11309209FBF80E005C08FEF03C08FEF01C08FEF42
S1130930DF91CF9108951F920F920FB60F92112459
S11309408F939F93EF93FF93E1EEF0E08081108209
S113095083FF11C01092E90091E09093EB00109294
S1130960EC0092E19093ED0098E09093F0001092E7
S113097023011092200182FF13C080912301882358
S113098079F080912201882359F0815080932201CB
S1130990811106C084E08093E9008AE38093E80033
S11309A0FF91EF919F918F910F900FBE0F901F9029
S11309B018951F920F920FB60F9211240F931F9345
S11309C02F933F934F935F936F937F938F939F9353
S11309D0AF93BF93CF93DF93EF93FF931092E9000C
S11309E08091E80083FF4EC1E1EFF0E0C0814081D7
S11309F02081808130E0382B8081508190E0BC01DF
S1130A00752BB081A08182EF8093E800463009F015
S1130A1058C004C081E28093EB003BC1C6E089E288
S1130A2091E0FC01459154912417350711F0079684
S1130A3023C0FC013296459154916417750711F057
S1130A4007961AC0FC01349625913491FC01369620
S1130A5054918B2F90E09A2B8F3F910519F010F051
S1130A608FEF90E0851708F4582FA8EEB0E070E1FE
S1130A706EEFC1EFD0E003C0C15099F6CBCF8C919B
S1130A80982F9570E1F382FD04C1452F513108F090
S1130A90472F442309F4FAC0F901842F94919883D1
S1130AA0815031968111FACF8FEF840F90E0019637
S1130AB0280F391F541B6C935111E1CF4031F9F2C7
S1130AC0E8C0453061F48EEF8093E800E8EEF0E092
S1130AD0808180FFFDCF20682093E300DAC0493095
S1130AE009F036C0C1115FC0209323011092200188
S1130AF0109222018EEF8093E80011E082ED91E0E4
S1130B00C9EED0E0ABEEB0E06CEE70E04DEE50E03C
S1130B1018839C012F5F3F4FFC0104910C93002329
S1130B2061F0F9012491FB0120839C012D5F3F4F6B
S1130B30FC0132968491FA0180831F5F153011F015
S1130B40C901E6CFEAEEF0E08EE180831082A1C015
S1130B50483081F4C03809F042C0E8EEF0E080810A
S1130B6080FFFDCF809123018093F1008EEF80936D
S1130B70E8008FC04132B9F4C13A09F040C0E8EE50
S1130B80F0E0808180FFFDCFE4E0F1E08BE091E0D4
S1130B90A1EFB0E021912C93E817F907D9F78EEF74
S1130BA08093E80076C04032D1F4C13209F043C0EA
S1130BB0E8EEF0E0808182FFFDCFE4E0F1E08BE03D
S1130BC091E0A1EFB0E02C912193E817F907D9F750
S1130BD0E8EEF0E08BEF80838EEF80835AC04232E0
S1130BE071F4C13209F04EC020932001E8EEF0E028
S1130BF0808180FFFDCF8EEF8093E8004AC04111D1
S1130C001AC0E8EEF0E0808180FFFDCFC23851F4D5
S1130C10E9EEF0E060838091EB0085FB882780F9A2
S1130C20108201C080E0E1EFF0E0808310828EEF5B
S1130C308093E8002EC0842F8D7F813019F5C23057
S1130C4009F5232BF9F46F778FEF860F8430D0F4F6
S1130C508EEF8093E8006093E900433021F481E251
S1130C608093EB0016C089E18093EB0081E090E073
S1130C7002C0880F991F6A95E2F7EAEEF0E08083DC
S1130C80108207C081E28093EB0003C06C93511182
S1130C90F6CEFF91EF91DF91CF91BF91AF919F91EC
S1130CA08F917F916F915F914F913F912F911F9100
S1130CB00F910F900FBE0F901F9018951F93CF9315
S1130CC0DF93EC012196FC011491112369F01A3091
S1130CD019F48DE00E944004812F0E944004FE011B
S1130CE0149121961111F3CFDF91CF911F910895A3
S1130CF0EF92FF920F931F93CF93DF93CDB7DEB79D
S1130D0027970FB6F894DEBF0FBECDBF8E010F5FDD
S1130D101F4F27E0F80111922A95E9F74AE0B8013C
S1130D200E94AC067E01F8E0EF0EF11CF8018191FF
S1130D308F0181110E9440040E151F05B9F72796F3
S1130D400FB6F894DEBF0FBECDBFDF91CF911F91D8
S1130D500F91FF90EF900895BB274A3031F4992307
S1130D6022F4BDE2909581959F4F0C94B806BB2761
S1130D70FB015527AA27880F991FAA1FA41710F053
S1130D80A41B83955051B9F7A05DAA3308F0A95D5F
S1130D90A193009779F7B111B1931192CB010C94FF
S1130DA0D106DC01FC01672F71917723E1F73297BB
S1130DB004C07C916D9370836291AE17BF07C8F332
S1090DC00895F894FFCF32
S10F0DC60100010000E100000000080032
S9030000FC
