:100000000C94C2010C94DF010C94DF010C94C71610
:100010000C94DF010C94DF010C94DF010C94DF01E0
:100020000C94DF010C94DF010C94BF120C94FD12B0
:100030000C94DF010C94DF010C94DF010C94DF01C0
:100040000C94DF010C94DF010C94DF010C94DF01B0
:100050000C94DF010C94DF010C94DF010C94DF01A0
:100060000C94DF010C94DF010C94DF010C94DF0190
:100070000C94DF010C9403050C94DF010C94DF0158
:100080000C94DF010C94DF010C94DF010C94DF0170
:100090000C94DF010C94DF010C94DF010C94DF0160
:1000A0000C94DF010C94DF010C94DF0171058205D3
:1000B0009305A405B505C605D705EF16FA1605176D
:1000C00018172B177F1734173D177F174617072C64
:1000D0007AA5BA6CC590DA3B9365FC8BBC53F810DB
:1000E000FD3C5692834DBD879D3AB63DCBC9BF5B63
:1000F000BE73DA0FC93F446F6E65200A006C6F73E0
:100100007420746865207075636B210A00676F74D2
:1001100020746865207075636B210A000D0A006FFA
:1001200075747075743D000D0A0073756D3D000D9A
:100130000A00496E7075743D005049440A00747598
:10014000726E2072696768740A005049440A00742C
:1001500075726E206C6566740A000D0A000D0A0047
:1001600050686F5B365D000D0A0050686F5B355D4F
:10017000000D0A0050686F5B345D000D0A00506886
:100180006F5B335D000D0A0050686F5B325D000DE0
:100190000A0050686F5B315D000D0A0050686F5BAC
:1001A000305D000D0A000A00646973743A2000741F
:1001B00075726E206C6566740A007475726E2072BA
:1001C000696768740A000A006761696E2A31303A0B
:1001D00020000A00616C7068612A31303A20000A00
:1001E00000616C7068613A20000A000976793A2053
:1001F000302E00446972656374696F6E2076783AB8
:1002000020302E000A000909793A00506F73697492
:10021000696F6E20783A000A00646D61783A000ACE
:1002200000200020002000200020002000200000EE
:10023000010000C602120002000083024300030016
:10024000007F0204010309046B0212020309046324
:100250000206030309045902080803340031003080
:1002600000000006034D003200000012034A002E79
:100270000020004600690065006E00650000000473
:1002800003090409024300020100C032090400000E
:1002900001020201000524001001052401010104EE
:1002A0002402060524060001070582031000400908
:1002B000040100020A0000000705030240000007D5
:1002C0000584024000001201000202000010C01666
:1002D0007A040001010203010001C112018036010C
:1002E00081360A000909793A00497473206C6F63FA
:1002F0006174696F6E2069733A2000676F742074AF
:100300006865207075636B210A004E6F2E200047D0
:10031000616D65206F7665720A0048616C6674696C
:100320006D650A0050617573650A00476F616C2046
:10033000420A00476F616C20410A00506C617920CD
:100340000A00666C617368204C4544200A000A006C
:100350002C200031422C2031433A20000A002C206E
:1003600000676F616C203D200073656E74206D65C1
:100370007373736167652E0A000A00737461746594
:100380003A20000011241FBECFEFDAE0DEBFCDBF60
:1003900011E0A0E0B1E0E4E7F8E302C005900D92BF
:1003A000A033B107D9F721E0A0E3B1E001C01D926D
:1003B000AE3AB207E1F70E94CE170C94381C0C94A9
:1003C00000000F931F93CF93DF93EA0189010397F6
:1003D000B9F589EA88836983F90160817181828135
:1003E00093810E94F9196A83F80160817181828189
:1003F00093810E94F9197B83F8016481758186815C
:1004000097810E94F9196C83F80164817581868156
:1004100097810E94F9197D834AE0BE018DE00E9418
:10042000F51183EC99E00197F1F700C000004AE074
:10043000BE018EE00E94F51186EF90E00E948214CA
:10044000DF91CF911F910F910895CF93DF93ACE788
:10045000B0E08C918F778C938C9180648C93EAE7D9
:10046000F0E08081846080838081826080838081ED
:1004700081608083CEE7D0E0888181608883888135
:1004800082608883CDE7D0E088818260888388811C
:10049000846088838881886088838881806188837C
:1004A000888181608883CBE7D0E088818F7D8883D5
:1004B0008C918B7F8C938C918D7F8C938C918E7F84
:1004C0008C9380818062808380818860808378942F
:1004D000808180688083808180648083DF91CF9178
:1004E00008954F925F926F927F928F929F92AF92F8
:1004F000BF92CF92DF92EF92FF920F931F932B0147
:100500003C0149015A01670178012091380130917D
:10051000390180913C0190913D01820F931F4091E0
:100520003A0150913B0120913E0130913F01240F4F
:10053000351F821B930B9093AB018093AA0182E33A
:1005400091E00E9482148091AA019091AB010E94D7
:100550009C148FE291E00E9482148091AA019091F4
:10056000AB012091340130913501AC01421B530B9A
:100570005093310140933001209132013091330189
:10058000820F931F90933301809332018AE291E0AE
:100590000E94821480913201909133010E949C1438
:1005A00087E291E00E9482146091AA017091AB01F0
:1005B000882777FD8095982F0E94271AA301920122
:1005C0000E941B1B2B013C01609132017091330191
:1005D000882777FD8095982F0E94271AA5019401FE
:1005E0000E941B1B9B01AC01C301B2010E94241994
:1005F0004B015C016091300170913101882777FDDA
:100600008095982F0E94271AA70196010E941B1B14
:100610009B01AC01C501B4010E9424190E94F41988
:100620007093A9016093A8018FE191E00E94821468
:100630008091A8019091A9010E949C148CE191E005
:100640000E9482148091AA019091AB019093350190
:10065000809334018091A8019091A9011816190680
:1006600074F59C01992324F422273327281B390B86
:1006700088E592E0821B930B90938D0080938C0011
:1006800020910001309101018091A8019091A90170
:1006900099231CF49195819591092817390744F401
:1006A00088E592E0821B930B90938D0080938C00E1
:1006B00088E592E090938B0080938A002DC09C0186
:1006C000992324F422273327281B390B88E592E04D
:1006D000821B930B90938B0080938A0020910001E2
:1006E000309101018091A8019091A90199231CF4F6
:1006F0009195819591092817390744F488E592E08E
:10070000821B930B90938B0080938A0088E592E084
:1007100090938D0080938C001F910F91FF90EF902C
:10072000DF90CF90BF90AF909F908F907F906F9011
:100730005F904F9008958F929F92AF92BF92CF9209
:10074000DF92EF92FF920F931F93CF93DF9383EA91
:1007500091E00E9482148CE991E00E9482140F2E95
:10076000F8E3CF2EF1E0DF2EF02DD6018D919C9194
:100770000E949C1489E991E00E94821482E991E030
:100780000E948214CAE3D1E0888199810E949C145E
:100790008FE891E00E94821488E891E00E94821420
:1007A0000F2EFCE38F2EF1E09F2EF02DF4018081BF
:1007B00091810E949C1485E891E00E9482148EE74A
:1007C00091E00E9482140F2EFEE3EF2EF1E0FF2E47
:1007D000F02DD7018D919C910E949C148BE791E0A4
:1007E0000E94821484E791E00E9482140F2EF0E4AC
:1007F000AF2EF1E0BF2EF02DF501808191810E9496
:100800009C1481E791E00E9482148AE691E00E94A4
:10081000821402E411E0D8018D919C910E949C14F5
:1008200087E691E00E94821480E691E00E948214A3
:1008300080914401909145010E949C148DE591E0C6
:100840000E9482148AE591E00E948214F401808063
:100850009180D501AD90BC90F60180819181880D89
:10086000991D8A0D9B1DE3E0F0E0BF010E94D51B9E
:100870009B016B01D701ED90FC90D8010D911C916B
:10088000888199818E0D9F1D800F911FBF010E944D
:10089000D51BEB01C901861B970BC39744F4621764
:1008A00073070CF049C08A149B040CF045C08FE418
:1008B00091E00E948214B1EBCB16B4E0DB066CF041
:1008C000289A299888E592E090938D0080938C0077
:1008D00090938B0080938A0089C0289A299A88E592
:1008E00092E02091000130910101FC01E21BF30B29
:1008F000F0938D00E0938C0090938B0080938A009E
:1009000020913C0130913D01809140019091410145
:10091000821793070CF06AC08AE491E00E94821467
:10092000E12CF12C8701A80197016AE979E989E9AD
:100930009EE30E9471025AC0621B730B6333710500
:1009400044F4CC16DD060CF046C0E016F1060CF0BF
:1009500042C08EE391E00E948214C13BD4406CF00F
:10096000299A289888E592E090938B0080938A00DA
:1009700090938D0080938C0039C0289A299A88E53D
:1009800092E02091000130910101AC01421B530B18
:1009900050938B0040938A0090938D0080938C003D
:1009A00020913E0130913F0180914201909143019D
:1009B00082179307DCF489E391E00E948214E12C12
:1009C000F12C8701A80197016AE979E989E99EE399
:1009D0000E9471020BC0E12CF12C8701A801970144
:1009E0006AE979E989E19FE30E947102DF91CF9181
:1009F0001F910F91FF90EF90DF90CF90BF90AF903D
:100A00009F908F9008951F920F920FB60F9211240E
:100A1000AF92BF92CF92DF92EF92FF920F931F930C
:100A20002F933F934F935F936F937F938F939F93F6
:100A3000AF93BF93CF93DF93EF93FF93C0913601B2
:100A4000D0913701A0907800B09079008E01000F0E
:100A5000111F085C1E4FF80160817181882777FDA6
:100A60008095982F0E94271A2DEC3CEC4CE45FE314
:100A70000E941B1B6B017C01B50180E090E00E948D
:100A8000251A2CEC3CEC4CE45EE30E941B1B9B0102
:100A9000AC01C701B6010E9424190E94F419F801A3
:100AA000718360832196C830D1052CF4D09337012F
:100AB000C093360104C01092370110923601EAE764
:100AC000F0E080818F7780838091360190913701AB
:100AD0008730910508F07BC0FC01EA5AFF4F0C9467
:100AE000E91BEBE7F0E080818F7D8083ECE7F0E0AD
:100AF00080818B7F808380818D7F808380818E7FCA
:100B0000808365C0EBE7F0E080818F7D8083ECE738
:100B1000F0E080818B7F808380818D7F80838081E6
:100B20008160808354C0EBE7F0E080818062808345
:100B3000ECE7F0E080818B7F808380818D7F8083F4
:100B400080818160808343C0EBE7F0E08081806238
:100B50008083ECE7F0E080818B7F808380818260FE
:100B6000808380818E7F808332C0EBE7F0E08081DC
:100B700080628083ECE7F0E080818B7F80838081DE
:100B80008260808380818160808321C0EBE7F0E018
:100B9000808180628083ECE7F0E0808184608083E4
:100BA00080818D7F808380818E7F808310C0EBE782
:100BB000F0E0808180628083ECE7F0E080818B7FD1
:100BC000808380818D7F808380818E7F8083EAE730
:100BD000F0E0808180688083808180648083FF91E1
:100BE000EF91DF91CF91BF91AF919F918F917F91C5
:100BF0006F915F914F913F912F911F910F91FF90B6
:100C0000EF90DF90CF90BF90AF900F900FBE0F90FE
:100C10001F90189520914401309145012D3241E0FB
:100C20003407A4F023E030E0FC013183208388E521
:100C300092E090938B0080938A0090938D00809334
:100C40008C008DE091E00E948214089524363105D5
:100C50004CF422E030E0FC01318320838DEF90E002
:100C60000E94821408954F925F926F927F928F92AA
:100C70009F92AF92BF92CF92DF92EF92FF920F932B
:100C80001F93CF93DF93CDB7DEB760970FB6F8947D
:100C9000DEBF0FBECDBF2B013C012D833E834F83B2
:100CA000588758018701D501CD90DD90ED90FC90DB
:100CB0009B01AC01C701B6010E941B1BF8012081FA
:100CC0003181428153810E94231969877A878B87FA
:100CD0009C87D50114968D919D910D90BC91A02D6E
:100CE00089839A83AB83BC832D813E814F81588554
:100CF000BC01CD010E941B1B6D877E878F87988B5F
:100D00009B01AC0169857A858B859C850E9423199E
:100D10004B015C0129813A814B815C81C301B201A5
:100D20000E941B1BF80124813581468157810E9456
:100D300023192B013C012D813E814F815885C7012C
:100D4000B6010E941B1B69837A838B839C839B0162
:100D5000AC01C301B2010E9424196B017C012D85F5
:100D60003E854F85588969857A858B859C850E944B
:100D700024196D837E838F83988729813A814B81E3
:100D80005C81C301B2010E9423192B013C01A50122
:100D90009401C501B4010E941B1B4B015C01A7011A
:100DA0009601C701B6010E941B1B9B01AC01C50146
:100DB000B4010E9424196B017C012D813E814F8179
:100DC0005885CA01B9010E941B1B4B015C01A3019C
:100DD0009201C301B2010E941B1B9B01AC01C50122
:100DE000B4010E9424199B01AC0101E010E0C7018D
:100DF000B6010E948819882314F000E010E0C801B1
:100E000060960FB6F894DEBF0FBECDBFDF91CF91D5
:100E10001F910F91FF90EF90DF90CF90BF90AF9018
:100E20009F908F907F906F905F904F9008952F923A
:100E30003F924F925F926F927F928F929F92AF926A
:100E4000BF92CF92DF92EF92FF920F931F93CF93B7
:100E5000DF93CDB7DEB728970FB6F894DEBF0FBE8D
:100E6000CDBF1C0149835A836B837C830D831E8312
:100E70002F8338878501F60120813181428153819A
:100E8000F70160817181828193810E9423194B0156
:100E90005C01F6012481358146815781F701648127
:100EA0007581868197810E9423196B017C01A501C0
:100EB0009401C501B4010E941B1B2B013C01A70139
:100EC0009601C701B6010E941B1B9B01AC01C30127
:100ED000B2010E9424190E94821B2B013C019B013C
:100EE000AC01C501B4010E948C194B015C01A30146
:100EF0009201C701B6010E948C196B017C01F801B7
:100F00002081318142815381C501B4010E941B1BA4
:100F10002B013C01F8012481358146815781C701AD
:100F2000B6010E941B1B9B01AC01C301B2010E94D0
:100F300024190E9415192B013C012A942328D1F46D
:100F40002D813E814F8158855058C701B6010E94BE
:100F50001B1B6B017C0129813A814B815C81C5019E
:100F6000B4010E941B1B9B01AC01C701B6010E948A
:100F7000241919C02D813E814F8158855058C701D1
:100F8000B6010E941B1B6B017C0129813A814B81B8
:100F90005C81C501B4010E941B1B9B01AC01C70110
:100FA000B6010E94231920E030E0A9010E948819AF
:100FB00088234CF0409252015092530160925401A8
:100FC000709255010CC077FA709477F87094409243
:100FD000520150925301609254017092550181EE7A
:100FE00091E00E94821420E030E040E251E4609100
:100FF00052017091530180915401909155010E94CA
:101000001B1B0E94F419CB010E949C148FED91E0F0
:101010000E94821428960FB6F894DEBF0FBECDBF93
:10102000DF91CF911F910F91FF90EF90DF90CF90C4
:10103000BF90AF909F908F907F906F905F904F90F8
:101040003F902F9008954F925F926F927F928F9270
:101050009F92AF92BF92CF92DF92EF92FF920F9347
:101060001F93CF93DF9300D000D0CDB7DEB74B01F5
:101070005C01E982FA820B831C83409052015090FC
:101080005301609054017090550120914E013091B0
:101090004F014091500150915101C301B2010E9492
:1010A00023196B017C0160934A0170934B0180937B
:1010B0004C0190934D01A5019401C301B2010E941E
:1010C0001B1B4B015C0129813A814B815C81C7016B
:1010D000B6010E941B1B9B01AC01C501B4010E941B
:1010E00024196093460170934701809348019093BF
:1010F000490140924E0150924F016092500170920E
:10110000510184ED91E00E94821420E030E040E241
:1011100051E460915201709153018091540190917A
:1011200055010E941B1B0E94F419CB010E949C14C4
:1011300082ED91E00E94821488EC91E00E9482147A
:1011400020E030E040E251E46091460170914701B7
:1011500080914801909149010E941B1B0E94F41943
:10116000CB010E949C1486EC91E00E94821420E046
:1011700030E0A901609146017091470180914801DA
:10118000909149010E94881988230CF044C08AEB91
:1011900091E00E9482146091460170914701809114
:1011A0004801909149010E94F4199B01772324F48E
:1011B00022273327261B370B88E592E0821B930BEF
:1011C00090938B0080938A00E0901601F0901701B5
:1011D00060914601709147018091480190914901C9
:1011E0000E94F4199B01772324F422273327261B1E
:1011F000370BE216F30644F488E592E08E199F0956
:1012000090938B0080938A0088E592E090938D0004
:1012100080938C0043C08FEA91E00E948214609119
:1012200046017091470180914801909149010E94C7
:10123000F4199B01772324F422273327261B370B2D
:1012400088E592E0821B930B90938D0080938C0035
:10125000E0901601F09017016091460170914701EE
:1012600080914801909149010E94F4199B017723D4
:1012700024F422273327261B370BE216F30644F407
:1012800088E592E08E199F0990938D0080938C00E1
:1012900088E592E090938B0080938A000F900F90E6
:1012A0000F900F90DF91CF911F910F91FF90EF90D2
:1012B000DF90CF90BF90AF909F908F907F906F9076
:1012C0005F904F900895CF92DF92EF92FF920F932D
:1012D0001F93F80120813181428153810E9423199B
:1012E0009B01AC010E941B1B6B017C0188EA91E011
:1012F0000E948214C701B6010E94F4196B017C019F
:10130000CB010E949C1486EA91E00E94821496010F
:10131000DD2024F4222733272C193D0981E090E0B9
:1013200040917E0150917F012417350714F080E031
:1013300090E01F910F91FF90EF90DF90CF90089574
:101340002F923F924F925F926F927F928F929F92D5
:10135000AF92BF92CF92DF92EF92FF920F931F93C3
:10136000CF93DF93CDB7DEB7C658D1090FB6F89447
:10137000DEBF0FBECDBFCD57DF4F99838883C358E3
:10138000D040CB57DF4F79836883C558D040ED9666
:101390005FAF4EAFED97EF963FAF2EAFEF9786E67C
:1013A00091E00E9428160F2EF6E68F2EF1E09F2E78
:1013B000F02DD4018D919C910E949C148DE292E0BD
:1013C0000E94821408E611E0F801808191810E9458
:1013D0009C148BE292E00E9482140F2EFCE6AF2E4A
:1013E000F1E0BF2EF02DD5018D919C910E949C14AF
:1013F00089E292E00E9482140F2EFEE66F2EF1E049
:101400007F2EF02DF301808191810E949C1487E250
:1014100092E00E9482140F2EF2E7CF2EF1E0DF2E31
:10142000F02DD6018D919C910E949C1485E292E052
:101430000E9482140F2EF4E74F2EF1E05F2EF02D64
:10144000F201808191810E949C1483E292E00E94CB
:1014500082140F2EF8E7EF2EF1E0FF2EF02DD701CA
:101460008D919C910E949C1481E292E00E948214D2
:101470000F2EFAE72F2EF1E03F2EF02DF1018081A3
:1014800091810E949C148FE192E00E948214D40109
:101490006D917C9180E090E00E94251A69837A83A7
:1014A0008B839C83F5016081718180E090E00E94D4
:1014B000251A6D837E838F839887D6016D917C91E9
:1014C00080E090E00E94251A69877A878B879C8745
:1014D000F7016081718180E090E00E94251A6D879C
:1014E0007E878F87988BD8016D917C9180E090E00A
:1014F0000E94251A698B7A8B8B8B9C8BF301608100
:10150000718180E090E00E94251A6D8B7E8B8F8B1D
:10151000988FD2016D917C9180E090E00E94251A15
:10152000698F7A8F8B8F9C8FF1016081718180E050
:1015300090E00E94251A6D8F7E8F8F8F98A39E0159
:101540002F5F3F4FEB963FAF2EAFEB97CE0141960B
:10155000E3969FAF8EAFE397AB961FAE1EAEAB97F1
:10156000E9961FAE1EAEE997AB96AEADBFADAB9799
:101570001196E796BFAFAEAFE79714970CF038C659
:10158000EB96EEADFFADEB9781909190A190B1906D
:10159000E9968EAD9FADE997880F991F29E330E05A
:1015A0002C0F3D1F280F391FA3963FAF2EAFA397D7
:1015B000A5E4B0E0AC0FBD1FA80FB91FA796BFAF41
:1015C000AEAFA797E9968EAD9FADE997880F991FAB
:1015D000880F991F0F2EF1E26F2E712CF02D6C0EDB
:1015E0007D1E680E791EE3962EAD3FADE3972C5F0E
:1015F0003F4F1F01E7960EAD1FADE797E1968CAE0A
:101600009DAEAEAEBFAEE1975901430120E030EC94
:101610004FE754E4E1966CAD7DAD8EAD9FADE197A3
:101620000E948819882309F470C0E396AEADBFAD5F
:10163000E397CD90DD90ED90FC9020E030EC4FE70B
:1016400054E4C701B6010E948819882309F45DC0DB
:10165000F101408051806280738020E030EC4FE7E0
:1016600054E4C301B2010E948819882309F44DC0D3
:10167000D5018D919D910D90BC91A02DC158DF4F4A
:1016800088839983AA83BB83CF57D04020E030EC76
:101690004FE754E4BC01CD010E9488198823A9F1C9
:1016A000A3019201E1966CAD7DAD8EAD9FADE1974A
:1016B0000E9423192B013C01C158DF4F2881398139
:1016C0004A815B81CF57D040C701B6010E942319E0
:1016D0006B017C01A3019201C301B2010E941B1B9B
:1016E0002B013C01A7019601C701B6010E941B1BFB
:1016F0009B01AC01C301B2010E9424190E94821B0C
:10170000F4016083718382839383A396AEADBFADF2
:10171000A397AB96EEADFFADAB97ED93FD93A3967C
:10172000BFAFAEAFA397A796AEADBFADA7970D93D2
:101730001D93A796BFAFAEAFA7970F5F1F4FB4E043
:101740002B0E311CE4E0AE0EB11CF4E08F0E911CA8
:101750000430110509F05ACFE9968EAD9FADE99797
:10176000E7962EAD3FADE797821B930BDC011496F5
:10177000E996BFAFAEAFE997EB96EEADFFADEB9755
:101780003496EB96FFAFEEAFEB97E3962EAD3FAD01
:10179000E3972C5F3F4FE3963FAF2EAFE397E7967B
:1017A0008EAD9FADE797039749F0E796AEADBFAD1D
:1017B000E797AB96BFAFAEAFAB97D6CEE996EEAD9F
:1017C000FFADE9971E161F0684F56E01F1E2CF0EFC
:1017D000D11C212C312C00E010E0E12CF12CE996F9
:1017E000AEACBFACE997D6014D905D906D907D9009
:1017F0006D01B801882777FD8095982F0E94271AE0
:101800009B01AC01C301B2010E94171B181634F4EE
:10181000C301B2010E94F4198B011701BFEFEB1A4B
:10182000FB0AEA14FB04F9F604C0212C312C00E079
:1018300010E089E192E00E948214C8010E949C1489
:1018400087E192E00E948214E996EEADFFADE99740
:101850001E161F06DCF56E01F1E2CF0ED11CA39619
:101860001FAE1EAEA3970F2EF0E1AF2EF7E2BF2EF4
:10187000F02DE12CF12C4801E9960EAD1FADE99752
:10188000D6014D905D906D907D906D01B5018827DA
:1018900077FD8095982F0E94271A9B01AC01C30108
:1018A000B2010E94881988234CF4C301B2010E943E
:1018B000F4195B01A396FFAEEEAEA397BFEFEB1A50
:1018C000FB0AE016F106E1F6840104C0A3961FAE00
:1018D0001EAEA39780900E0190900F01A090100172
:1018E000B0901101B801882777FD8095982F0E944C
:1018F000271AA50194010E941B1B2B013C01C090DB
:101900001201D0901301E0901401F0901501E2E073
:10191000F1E0AB96FFAFEEAFAB97A7961FAE1EAE52
:10192000A79701E010E0AF963FAE2EAEAF971F0134
:10193000D1012D913D914D915D911D01C301B201E8
:101940000E9423190E94F4199B01772324F4222773
:101950003327261B370BB901882777FD8095982FF1
:101960000E94271AA70196010E948819882324F44F
:10197000A7961FAF0EAFA7970F5F1F4F043011053B
:10198000B9F6AF962EAC3FACAF9765961CAE1DAEC8
:101990001EAE1FAE659780E090E0A0E8BFE36996B9
:1019A0008CAF9DAFAEAFBFAF6997A796EEADFFAD61
:1019B000A797E230F10519F0339751F15AC0A5010C
:1019C000940160E070E088E691E40E948C19E19651
:1019D0006CAF7DAF8EAF9FAFE19784E997E8A5EE3E
:1019E000BEE365968CAF9DAFAEAFBFAF659781EAA2
:1019F00096EDA4E6BFEB69968CAF9DAFAEAFBFAFDF
:101A00006997E5961CAE1DAE1EAE1FAEE59745C0AC
:101A1000A501940161EE7AE78AE391E40E948C19B2
:101A2000E5966CAF7DAF8EAF9FAFE597A5019401B2
:101A300063E27BED8BE091EC0E948C19E1966CAF38
:101A40007DAF8EAF9FAFE19786E696E6A6E7BFEB48
:101A500065968CAF9DAFAEAFBFAF65978FE99DEC3C
:101A6000AAE8BEE369968CAF9DAFAEAFBFAF6997F2
:101A700014C0A7962EAD3FADA797121613060CF013
:101A800026C3E5961CAE1DAE1EAE1FAEE597E196D1
:101A90001CAE1DAE1EAE1FAEE197F101EE0FFF1F93
:101AA00081E090E08C0F9D1FE80FF91F00AD11AD94
:101AB000A396EEADFFADA397EE0FFF1FE80FF91F42
:101AC00080AD91AD8017910789F0A396EEADFFAD83
:101AD000A397EE0FFF1FA5E4B0E0AC0FBD1FEA0F08
:101AE000FB1F808191810817190769F4D101AA0FA2
:101AF000BB1FE5E4F0E0EC0FFD1FAE0FBF1FF801C8
:101B00000D911C910CC0F101EE0FFF1F25E430E098
:101B10002C0F3D1FE20FF31F0190F081E02DA796DF
:101B20008EAD9FADA797019709F045C06F01CC0C12
:101B3000DD1CCC0CDD1CA1E0B0E0AC0FBD1FCA0E5B
:101B4000DB1E7801EE0CFF1CEE0CFF1CEA0EFB1EE8
:101B5000F7012081318142815381D6016D917D91C0
:101B60008D919C910E94241920E030E040E05FE3D9
:101B70000E941B1BAD966CAF7DAF8EAF9FAFAD9734
:101B8000F7012089318942895389D60150966D9198
:101B90007D918D919C9153970E94241920E030E013
:101BA00040E05FE30E941B1BA9966CAF7DAF8EAF38
:101BB0009FAFA9971EC0EE0FFF1FEE0FFF1F21E082
:101BC00030E02C0F3D1FE20FF31F80819181A28135
:101BD000B381AD968CAF9DAFAEAFBFAFAD978089EF
:101BE0009189A289B389A9968CAF9DAFAEAFBFAFE3
:101BF000A997000F111F000F111FA1E0B0E0AC0F5B
:101C0000BD1F0A0F1B1FAD962CAD3DAD4EAD5FAD98
:101C1000AD97F80160817181828193810E942319BF
:101C20004B015C01A9962CAD3DAD4EAD5FADA997C2
:101C3000D80150966D917D918D919C9153970E9402
:101C400023196B017C01A5019401C501B4010E9417
:101C50001B1B2B013C01A7019601C701B6010E9485
:101C60001B1B9B01AC01C301B2010E9424190E94FD
:101C7000821B2B013C019B01AC01C501B4010E94F8
:101C80008C194B015C016D966CAF7DAF8EAF9FAF31
:101C90006D97A3019201C701B6010E948C196B01D7
:101CA0007C01A1966CAF7DAF8EAF9FAFA19765967B
:101CB0002CAD3DAD4EAD5FAD6597C501B4010E9441
:101CC0001B1B4B015C0169962CAD3DAD4EAD5FAD6C
:101CD0006997C701B6010E941B1B9B01AC01C5019E
:101CE000B4010E9424192B013C019B01AC010E940C
:101CF0001B1B9B01AC0160E070E080E89FE30E9449
:101D000023190E94821BA5966CAF7DAF8EAF9FAF4B
:101D1000A597FE01EF5AFF4F7F018E01075A1F4F13
:101D20009B01AC01C301B2010E9433064C0181301A
:101D3000910509F0A1C00F2EF8E1AF2EF1E0BF2E02
:101D4000F02DD5012D913D914D915C91AD966CADED
:101D50007DAD8EAD9FADAD970E942319A301920179
:101D60000E941B1B9B01AC01E5966CAD7DAD8EAD59
:101D70009FADE5970E9423196B017C010CE111E0F6
:101D8000F8012081318142815381A9966CAD7DADEE
:101D90008EAD9FADA9970E942319A5962CAD3DADA0
:101DA0004EAD5FADA5970E941B1B9B01AC01C70107
:101DB000B6010E942419ED96AEADBFADED976D93BF
:101DC0007D938D939C931397F801208131814281FB
:101DD0005381A9966CAD7DAD8EAD9FADA9970E9444
:101DE0002319A30192010E941B1B9B01AC01E196E8
:101DF0006CAD7DAD8EAD9FADE1970E9423196B0157
:101E00007C01D5012D913D914D915C91AD966CADCC
:101E10007DAD8EAD9FADAD970E942319A5962CADDB
:101E20003DAD4EAD5FADA5970E941B1B9B01AC0164
:101E3000C701B6010E942319ED96EEADFFADED97F7
:101E40006483758386839783EF96AEADBFADEF97BE
:101E50004D925D926D927C921397A5968CAD9DAD3F
:101E6000AEADBFADA597EF96EEADFFADEF97848316
:101E70009583A683B783A1C00F2EF8E1AF2EF1E0C2
:101E8000BF2EF02DD5012D913D914D915C91AD96D8
:101E90006CAD7DAD8EAD9FADAD970E942319A301B2
:101EA00092010E941B1B9B01AC01E5966CAD7DADC0
:101EB0008EAD9FADE5970E9423196B017C010CE16B
:101EC00011E0F8012081318142815381A9966CADE6
:101ED0007DAD8EAD9FADA9970E942319A5962CAD1F
:101EE0003DAD4EAD5FADA5970E941B1B9B01AC01A4
:101EF000C701B6010E942319ED96AEADBFADED97B7
:101F00006D937D938D939C931397F801208131817C
:101F100042815381A9966CAD7DAD8EAD9FADA997E1
:101F20000E942319A30192010E941B1B9B01AC017B
:101F3000E1966CAD7DAD8EAD9FADE1970E9423190A
:101F40006B017C01D5012D913D914D915C91AD9638
:101F50006CAD7DAD8EAD9FADAD970E942319A5965A
:101F60002CAD3DAD4EAD5FADA5970E941B1B9B01F7
:101F7000AC01C701B6010E942419ED96EEADFFAD8C
:101F8000ED976483758386839783EF96AEADBFAD7F
:101F9000EF974D925D926D927C921397A5968CADC2
:101FA0009DADAEADBFADA597B058EF96EEADFFAD10
:101FB000EF9784839583A683B783ED96EEADFFAD4F
:101FC000ED9780819181A281B38180935E0190938E
:101FD0005F01A0936001B093610184819581A68126
:101FE000B7818093620190936301A0936401B093E1
:101FF0006501EF96EEADFFADEF9780819181A281F3
:10200000B3818093560190935701A0935801B093E8
:10201000590184819581A681B78180935A0190935B
:102020005B01A0935C01B0935D01CD57DF4F288128
:102030003981C358D0402330310509F080C0ED9676
:10204000AEADBFADED9714962D913D914D915C9144
:1020500017976D917D918D919C91CB57DF4F0881A2
:102060001981C558D0400E946309892B39F5EF9634
:10207000AEACBFACEF97ED96CEACDFACED97CB57E7
:10208000DF4FE880F980C558D04093018201A596C2
:102090004CAD5DAD6EAD7FADA597C4010E94170735
:1020A000E12CF12C08EC12E420E030E0A90160E022
:1020B00070E086E993E40E94230841C010928B00EF
:1020C00010928A0010928D0010928C0038C080917E
:1020D0005E0190915F01A0916001B0916101ED9668
:1020E000EEADFFADED9780839183A283B3838091A2
:1020F000620190916301A0916401B09165018483B4
:102100009583A683B7838091560190915701A09142
:102110005801B0915901EF96EEADFFADEF97808376
:102120009183A283B38380915A0190915B01A09126
:102130005C01B0915D0184839583A683B7838BE0B6
:1021400092E00E948214ED96AEADBFADED976D9119
:102150007D918D919C910E94F419CB010E949C1459
:1021600086E092E00E948214ED96EEADFFADED9711
:1021700064817581868197810E94F419CB010E9448
:102180009C1484E092E00E94821483EF91E00E940C
:10219000821420E030E04AE754E4EF96AEADBFADE4
:1021A000EF976D917D918D919C910E941B1B0E94D8
:1021B000F419CB010E949C148BEE91E00E948214D2
:1021C00020E030E04AE754E4EF96EEADFFADEF9744
:1021D00064817581868197810E941B1B0E94F4197E
:1021E000CB010E949C1489EE91E00E94821414C0DD
:1021F000EB962EAD3FADEB972C5F3F4FEB963FAF8D
:102200002EAFEB97E3968EAD9FADE3970496E396E2
:102210009FAF8EAFE397C9CACA57DF4F0FB6F89486
:10222000DEBF0FBECDBFDF91CF911F910F91FF9009
:10223000EF90DF90CF90BF90AF909F908F907F9066
:102240006F905F904F903F902F900895589A599AB1
:102250005A9A8CE08093B800E9E6F0E080818062D1
:10226000808380818F7E8083EA9A789408951F937B
:10227000CF93DF93182FD62FC42F0E94261194EAF4
:102280009093BC00ECEBF0E090819923ECF790E5A3
:102290009093BB0094E89093BC00ECEBF0E090814D
:1022A0009923ECF79091B900987F903229F484E952
:1022B0008093BC0080E02DC081E08093BB0084E867
:1022C0008093BC00ECEBF0E090819923ECF7109345
:1022D000BB0084E88093BC00ECEBF0E080818823B5
:1022E000ECF7D093BB0084E88093BC00ECEBF0E00B
:1022F00080818823ECF7C093BB0084E88093BC0006
:10230000ECEBF0E080818823ECF784E98093BC005B
:1023100081E0DF91CF911F9108951F93CF93DF93B9
:1023200024EA2093BC00ECEBF0E020812223ECF7C0
:1023300021E52093BB0024E82093BC00ECEBF0E007
:1023400020812223ECF72091B900287F283429F43A
:1023500084E98093BC0080E044C024EC2093BC005E
:10236000ECEBF0E020812223ECF71091BB00161378
:102370000AC0412F50E0415051091416150644F08F
:1023800020E030E01CC084E98093BC0080E029C0DC
:10239000DC0120E030E0ECEBF0E074ECCBEBD0E0E3
:1023A000708360816623ECF768816D932F5F3F4FE8
:1023B00024173507ACF3212F30E02150310944E8D0
:1023C0004093BC00ECEBF0E040814423ECF74091FB
:1023D000BB00FC01E20FF31F408384E98093BC0043
:1023E00081E0DF91CF911F910895CF93DF93F8940F
:1023F00094EA9093BC00ECEBF0E090819923ECF729
:1024000090E59093BB0094E89093BC00ECEBF0E077
:1024100090819923ECF79091B900987F903231F434
:1024200084E98093BC00789480E032C093E090937C
:10243000BB0094E89093BC00ECEBF0E09081992312
:10244000ECF78093BB0084E88093BC00ECEBF0E0F9
:1024500080818823ECF7242F30E0121613069CF4B9
:10246000A62FB72F80E090E0CBEBD0E0ECEBF0E0D4
:1024700054E84D914883508340814423ECF7019602
:1024800082179307B4F384E98093BC00789481E0C9
:10249000DF91CF91089581E08093D70080EA809307
:1024A000D80082E189BD09B400FEFDCF80E98093A8
:1024B000D8001092E00010928301109280018CE00D
:1024C0008093E20078940895CF93DF9390918301F5
:1024D000992309F44CC09FB7F89424E02093E900B5
:1024E00020918101222349F02091E80025FD03C0BD
:1024F0009FBF8FEF41C0109281013091E400375EA1
:102500002091E80025FD24C09FBF9091E40093171F
:1025100081F090918301992361F1A9EEB0E044E04C
:10252000E8EEF0E0C4EED0E00DC09FBF98819313B9
:1025300005C081E0809381018FEF1EC090918301DF
:102540009923C9F09FB7F8944C93208125FFEDCFD4
:102550008093F1008091E80085FD03C08AE38093B9
:10256000E80085E0809382019FBF80E005C08FEF87
:1025700003C08FEF01C08FEFDF91CF9108951F92BD
:102580000F920FB60F9211248F939F93EF93FF93A7
:10259000E1EEF0E08081108283FF11C01092E9002B
:1025A00091E09093EB001092EC0092E19093ED009B
:1025B00098E09093F000109283011092800182FFC6
:1025C00013C080918301882379F080918201882350
:1025D00059F0815080938201811106C084E080937C
:1025E000E9008AE38093E800FF91EF919F918F913A
:1025F0000F900FBE0F901F9018951F920F920FB65D
:102600000F9211240F931F932F933F934F935F9338
:102610006F937F938F939F93AF93BF93CF93DF93EA
:10262000EF93FF931092E9008091E80083FF4EC181
:10263000E1EFF0E0C08140812081808130E0382BE3
:102640008081508190E0BC01752BB081A08182EF28
:102650008093E800463009F058C004C081E28093BE
:10266000EB003BC1C6E08FE292E0FC014591549142
:102670002417350711F0079623C0FC0132964591C7
:1026800054916417750711F007961AC0FC0134962F
:1026900025913491FC01369654918B2F90E09A2B22
:1026A0008F3F910519F010F08FEF90E0851708F437
:1026B000582FA8EEB0E070E16EEFC1EFD0E003C09C
:1026C000C15099F6CBCF8C91982F9570E1F382FD94
:1026D00004C1452F513108F0472F442309F4FAC0B3
:1026E000F901842F94919883815031968111FACF0A
:1026F0008FEF840F90E00196280F391F541B6C93C5
:102700005111E1CF4031F9F2E8C0453061F48EEF6C
:102710008093E800E8EEF0E0808180FFFDCF206844
:102720002093E300DAC0493009F036C0C1115FC020
:102730002093830110928001109282018EEF80938A
:10274000E80011E088ED92E0C9EED0E0ABEEB0E039
:102750006CEE70E04DEE50E018839C012F5F3F4F10
:10276000FC0104910C93002361F0F9012491FB0119
:1027700020839C012D5F3F4FFC0132968491FA012A
:1027800080831F5F153011F0C901E6CFEAEEF0E05B
:102790008EE180831082A1C0483081F4C03809F0F6
:1027A00042C0E8EEF0E0808180FFFDCF80918301A0
:1027B0008093F1008EEF8093E8008FC04132B9F42E
:1027C000C13A09F040C0E8EEF0E0808180FFFDCF23
:1027D000E0E2F1E087E291E0A1EFB0E021912C93FB
:1027E000E817F907D9F78EEF8093E80076C04032FA
:1027F000D1F4C13209F043C0E8EEF0E0808182FFFD
:10280000FDCFE0E2F1E087E291E0A1EFB0E02C91B2
:102810002193E817F907D9F7E8EEF0E08BEF808312
:102820008EEF80835AC0423271F4C13209F04EC03B
:1028300020938001E8EEF0E0808180FFFDCF8EEFF5
:102840008093E8004AC041111AC0E8EEF0E08081B0
:1028500080FFFDCFC23851F4E9EEF0E06083809153
:10286000EB0085FB882780F9108201C080E0E1EF52
:10287000F0E0808310828EEF8093E8002EC0842FDA
:102880008D7F813019F5C23009F5232BF9F46F776C
:102890008FEF860F8430D0F48EEF8093E800609342
:1028A000E900433021F481E28093EB0016C089E116
:1028B0008093EB0081E090E002C0880F991F6A9539
:1028C000E2F7EAEEF0E08083108207C081E28093B5
:1028D000EB0003C06C935111F6CEFF91EF91DF91A5
:1028E000CF91BF91AF919F918F917F916F915F91A8
:1028F0004F913F912F911F910F910F900FBE0F900D
:102900001F9018951F93CF93DF93EC012196FC0144
:102910001491112369F01A3019F48DE00E946412A9
:10292000812F0E946412FE01149121961111F3CFA0
:10293000DF91CF911F910895EF92FF920F931F9314
:10294000CF93DF93CDB7DEB727970FB6F894DEBFEE
:102950000FBECDBF8E010F5F1F4F27E0F801119210
:102960002A95E9F74AE0B8010E94031C7E01F8E0CD
:10297000EF0EF11CF80181918F0181110E94641208
:102980000E151F05B9F727960FB6F894DEBF0FBED8
:10299000CDBFDF91CF911F910F91FF90EF900895E0
:1029A00020E030E0ECEBF0E08081882334F02F5F12
:1029B0003F4F293E83E03807B9F781E0283E334096
:1029C00009F480E008958093BB0084E88093BC0004
:1029D0000E94D014882319F08091B900887F08954F
:1029E000CF93C82F94EA9093BC000E94D014882300
:1029F00061F08C2F880F0E94E314803229F484E95F
:102A00008093BC0080E001C081E0CF9108950E94D6
:102A1000261188E50E94F014882309F4CDC080E3D4
:102A20000E94E314882309F4C9C081E00E94E314E2
:102A3000882309F4C5C084E98093BC0083EC99E045
:102A40000197F1F700C0000088E50E94F014882388
:102A500009F4B8C080E00E94E314882309F4B4C0EC
:102A600080E00E94E314882309F4B0C080E00E9453
:102A7000E314882309F4ACC080E00E94E3148823A7
:102A800009F4A8C080E00E94E314882309F4A4C0DC
:102A900080E00E94E314882309F4A0C080E00E9433
:102AA000E314882309F49CC080E90E94E31488237E
:102AB00009F498C084E98093BC0083EC99E0019705
:102AC000F1F700C0000088E50E94F014882309F4A3
:102AD0008BC087E00E94E314882309F487C080E05C
:102AE0000E94E314882309F483C081E40E94E31464
:102AF000882309F47FC084E98093BC0083EC99E0CB
:102B00000197F1F700C0000088E50E94F0148823C7
:102B100009F472C08AE10E94E314882309F46EC0AC
:102B200080E40E94E314882309F46AC080E00E94D4
:102B3000E314882309F466C084E98093BC0083EC25
:102B400099E00197F1F700C0000088E50E94F014B9
:102B5000882309F459C083E30E94E314882309F40D
:102B600055C083E00E94E314882309F451C084E92E
:102B70008093BC0083EC99E00197F1F700C000005E
:102B800088E50E94F014882309F444C080E30E9481
:102B9000E314882309F440C088E00E94E3148823EA
:102BA000E9F184E98093BC0083EC99E00197F1F7A7
:102BB00000C0000081E0089580E0089580E008955D
:102BC00080E0089580E0089580E0089580E0089511
:102BD00080E0089580E0089580E0089580E0089501
:102BE00080E0089580E0089580E0089580E00895F1
:102BF00080E0089580E0089580E0089580E00895E1
:102C000080E0089580E0089580E0089580E00895D0
:102C100080E0089580E0089580E0089580E00895C0
:102C2000CF93C82F94EA9093BC000E94D0148823BD
:102C300069F08C2F880F8F5F0E94E314883429F489
:102C400084E98093BC0080E001C081E0CF910895C9
:102C5000EF92FF920F931F93CF93DF93CDB7DEB721
:102C600060970FB6F894DEBF0FBECDBF082F192FA7
:102C7000FE01319680E1DF011D928A95E9F788E532
:102C80000E94F014882309F46EC086E30E94E314C6
:102C9000882309F46AC084E98093BC00B8E0BA953F
:102CA000F1F7000088E50E941016882309F45FC040
:102CB000BE016F5F7F4F9E01205F3F4FECEBF0E066
:102CC00094EC4BEB50E0908380818823ECF7DA01A1
:102CD0008C91DB018D93BD01A217B307A1F784E8A6
:102CE0008093BC00ECEBF0E080818823ECF78091CE
:102CF000BB00888B84E98093BC00FE013496E02EF3
:102D0000F12E8081982F9073AF0142505109DA0162
:102D10004C9150E0B0E19B9F400D511D1124D70113
:102D20004D935C93482F407C50E0440F551F440F57
:102D3000551FBF0161507109DB019C91490F511D65
:102D4000D70113965C934E9312978F7090E015966F
:102D50009C938E9314973396B6E0EB0EF11C2E17CE
:102D60003F0779F606C080E005C080E003C080E040
:102D700001C081E060960FB6F894DEBF0FBECDBFF4
:102D8000DF91CF911F910F91FF90EF9008951F92C7
:102D90000F920FB60F9211240F931F932F933F930F
:102DA0004F935F936F937F938F939F93AF93BF9353
:102DB000CF93DF93EF93FF936AE08EE991E00E9457
:102DC0008D1180919E0190E0FC01E05AF109EA30FA
:102DD000F10508F094C0E35AFF4F0C94E91B82E41C
:102DE00093E00E94821481E090E09093AD01809383
:102DF000AC0185C08BE393E00E94821482E090E0F6
:102E00009093AD018093AC017AC083E393E00E947C
:102E1000821480919F0190E090939D0180939C018A
:102E20008091A00190E090939B0180939A0167C0EC
:102E30008BE293E00E94821480919F0190E0909336
:102E40009D0180939C018091A00190E090939B0153
:102E500080939A0154C084E293E00E9482141092FD
:102E6000AD011092AC014BC08AE193E00E94821444
:102E70001092AD011092AC0142C08FE093E00E942D
:102E800082141092AD011092AC0139C080919F0163
:102E900090E0909389018093880104E811E0EEE9C5
:102EA000F1E082819381D8018D939C93C6E8D1E0B3
:102EB00084819581998388838AE093E00E948214BB
:102EC00080918801909189010E949C148BEF92E07F
:102ED0000E94821489EE92E00E948214F80180819F
:102EE00091810E949C1484EE92E00E948214888159
:102EF00099810E949C1482EE92E00E948214FF91BC
:102F0000EF91DF91CF91BF91AF919F918F917F9181
:102F10006F915F914F913F912F911F910F910F9062
:102F20000FBE0F901F901895209A289A219A299ADF
:102F300080E293E0909389008093880010928B0048
:102F400010928A0010928D0010928C00A1E8B0E0DF
:102F50008C9180618C938C9188608C93E0E8F0E098
:102F600080818260808380818160808380818062B3
:102F7000808380818F7E8083808188608083808150
:102F80008B7F8083269A279A8C918B7F8C938C9150
:102F90008D7F8C938C9181608C930895E1E6F0E0B5
:102FA00080E8808310820E944B126E9A76980E946D
:102FB00007158823E1F36E9A769A6E9A76980E94A6
:102FC00026114AE06CE081E00E9437116E9A769AF1
:102FD0000E9494170E9425023E98229A239A82E02A
:102FE00090E09093AD018093AC01C7E2D1E00F2E49
:102FF000C12CD12CFFEAEF2EF3E4FF2EF02D0F2E83
:10300000812C912CFFEAAF2EF3ECBF2EF02D0F2E6A
:10301000FBE22F2EF1E03F2EF02D0CE810E0369B66
:1030200007C02A9A2B9888829982AA82BB8206C0FE
:103030002B9A2A98C882D982EA82FB828BE793E096
:103040000E9482148091AC019091AD010E949C1469
:1030500089E793E00E9482148091AC019091AD01C8
:103060008130910599F01CF4892B41F0C0C0823069
:10307000910541F1039709F442C0B9C0EAE8F0E0D4
:1030800011821082F80111821082B1C0369B06C0F5
:1030900085B1F4E08F2785B92B9805C085B128E06C
:1030A000822785B92A986E9A8EB190E489278EB9C5
:1030B000EFE3FDE023E0E150F0402040E1F700C005
:1030C000000095C06E9A8EB190E489278EB96A9AF5
:1030D000729A8091AC019091AD010E949B032AE805
:1030E00031E042E951E0BE018091AC019091AD0127
:1030F0000E94A0098CEA91E00E940A0678C06A9AB0
:103100008EB1E4E08E278EB96E9A769AE6E9F1E008
:10311000408051806280738020E030E048E452ECCF
:10312000C301B2010E948819882354F480E090E022
:10313000A8E4B2ECF10180839183A283B38319C028
:1031400020E030E048E452E4C301B2010E94171BC2
:10315000181654F480E090E0A8E4B2E4F101808312
:103160009183A283B38305C0F101408251826282C0
:1031700073822AE831E042E951E0BE018091AC015E
:103180009091AD010E94A00922E931E04EE951E0A1
:1031900061E070E08091AC019091AD010E94E1018D
:1031A00089E693E00E9482148CEA91E00E940A066C
:1031B00081E693E00E948214688179818A819B81F3
:1031C0000E94F419CB010E949C148EE593E00E94AA
:1031D0008214F10160817181828193810E94F419CE
:1031E000CB010E949C148CE593E00E94821483E53D
:1031F00093E00E948214EAE8F0E0808191810E94CD
:103200009C1480E593E00E948214F80180819181F2
:103210000E949C148EE493E00E94821485EA9EE052
:103220000197F1F700C00000FACE9F939F774AD133
:103230000F9000203AF49058A2EA2AED3FE049E4CA
:1032400050E413D0BAC15058BB27AA270ED0B5C13D
:10325000A6D130F0ABD120F031F49F3F11F41EF431
:1032600076C10EF4E095E7FB6CC1E92FB7D180F38E
:10327000BA17620773078407950718F071F49EF573
:10328000CFC10EF4E0950B2EBA2FA02D0B01B90182
:1032900090010C01CA01A0011124FF27591B99F0CC
:1032A000593F50F4503E68F11A16F040A22F232FD8
:1032B000342F4427585FF3CF469537952795A79528
:1032C000F0405395C9F77EF41F16BA0B620B730BCF
:1032D000840BBAF09150A1F0FF0FBB1F661F771F40
:1032E000881FC2F70EC0BA0F621F731F841F48F4F5
:1032F000879577956795B795F7959E3F08F0B3CF7B
:103300009395880F08F09927EE0F97958795089564
:10331000F4D008F481E008950CD04FC147D140F0BB
:103320003ED130F021F45F3F19F00BC1511179C14A
:103330000EC154D198F39923C9F35523B1F3951BCA
:10334000550BBB27AA2762177307840738F09F5FC6
:103350005F4F220F331F441FAA1FA9F333D00E2E35
:103360003AF0E0E830D091505040E695001CCAF7A2
:1033700029D0FE2F27D0660F771F881FBB1F261767
:1033800037074807AB07B0E809F0BB0B802DBF013A
:10339000FF2793585F4F2AF09E3F510568F0D1C038
:1033A00040C15F3FECF3983EDCF3869577956795D7
:1033B000B795F7959F5FC9F7880F911D96958795EB
:1033C00097F90895E1E0660F771F881FBB1F62170A
:1033D00073078407BA0720F0621B730B840BBA0BC8
:1033E000EE1F88F7E095089504D06894B11119C1D3
:1033F0000895FCD088F09F5790F0B92F9927B751C6
:10340000A0F0D1F0660F771F881F991F1AF0BA95A8
:10341000C9F712C0B13081F003D1B1E0089500C105
:10342000672F782F8827B85F39F0B93FCCF386959E
:1034300077956795B395D9F73EF4909580957095FB
:1034400061957F4F8F4F9F4F0895E89409C097FB78
:103450003EF490958095709561957F4F8F4F9F4F6B
:103460009923A9F0F92F96E9BB279395F6958795AF
:1034700077956795B795F111F8CFFAF4BB0F11F472
:1034800060FF1BC06F5F7F4F8F4F9F4F16C0882319
:1034900011F096E911C0772321F09EE8872F762F4F
:1034A00005C0662371F096E8862F70E060E02AF090
:1034B0009A95660F771F881FDAF7880F969587957C
:1034C00097F90895DF93CF931F930F938B01EC012E
:1034D000EEECF0E03FD071D09801AE018B01EC0131
:1034E00060E070E080E89FE3AEDE0CD19801AE01B1
:1034F0000F911F91CF91DF91AAC0990F0008550F2E
:10350000AA0BE0E8FEEF16161706E807F907C0F069
:1035100012161306E407F50798F0621B730B840B71
:10352000950B39F40A2661F0232B242B252B21F44B
:1035300008950A2609F4A140A6958FEF811D811DEB
:10354000089597F99F6780E870E060E008959FEF25
:1035500080EC0895DF93CF931F930F93FF92EF9228
:10356000DF927B018C01689405C0DA2EEF016FD0E9
:10357000FE01E894A5912591359145915591AEF3C1
:10358000EF0173DEFE019701A801DA9479F7DF906D
:10359000EF90FF900F911F91CF91DF91089500243C
:1035A0000A941616170618060906089500240A94A8
:1035B00012161306140605060895092E0394000C2E
:1035C00011F4882352F0BB0F40F4BF2B11F460FFBD
:1035D00004C06F5F7F4F8F4F9F4F089557FD9058E6
:1035E000440F551F59F05F3F71F04795880F97FBC7
:1035F000991F61F09F3F79F0879508951216130681
:103600001406551FF2CF4695F1DF08C016161706AF
:103610001806991FF1CF86957105610508940895E4
:10362000E894BB2766277727CB0197F9089565DFD4
:1036300008F48FEF08950BD0C0CFB1DF28F0B6DFCC
:1036400018F0952309F07DCF82CF1124EACFC6DF91
:10365000A0F3959FD1F3950F50E0551F629FF001A5
:10366000729FBB27F00DB11D639FAA27F00DB11DFE
:10367000AA1F649F6627B00DA11D661F829F222787
:10368000B00DA11D621F739FB00DA11D621F839F0E
:10369000A00D611D221F749F3327A00D611D231FE4
:1036A000849F600D211D822F762F6A2F11249F5732
:1036B00050408AF0E1F088234AF0EE0FFF1FBB1F55
:1036C000661F771F881F91505040A9F79E3F5105F4
:1036D00070F037CFA6CF5F3FECF3983EDCF38695D2
:1036E00077956795B795F795E7959F5FC1F7FE2B9F
:1036F000880F911D9695879597F9089511F40EF40A
:1037000026CF3EC073DFD0F39923D9F3CEF39F5772
:10371000550B87FF43D00024A0E640EA9001805873
:103720005695979528F4805C660F771F881F20F0C8
:1037300026173707480730F4621B730B840B2029C8
:1037400031294A2BA69517940794202531254A271D
:1037500058F7660F771F881F20F02617370748078E
:1037600030F4620B730B840B200D311D411DA095AD
:1037700081F7B901842F9158880F96958795089500
:103780009F3F31F0915020F4879577956795B795D5
:10379000880F911D9695879597F9089591505040FF
:1037A000660F771F881FD2F7089597FB072E16F430
:1037B000009407D077FD09D00E94EF1B07FC05D0CD
:1037C0003EF4909581959F4F0895709561957F4F38
:1037D0000895EE0FFF1F0590F491E02D0994AA1BA8
:1037E000BB1B51E107C0AA1FBB1FA617B70710F0EC
:1037F000A61BB70B881F991F5A95A9F7809590951E
:10380000BC01CD010895BB274A3031F4992322F43D
:10381000BDE2909581959F4F0C940F1CBB27FB0137
:103820005527AA27880F991FAA1FA41710F0A41BB9
:1038300083955051B9F7A05DAA3308F0A95DA19313
:10384000009779F7B111B1931192CB010C94281C18
:10385000DC01FC01672F71917723E1F7329704C0F7
:103860007C916D9370836291AE17BF07C8F3089582
:04387000F894FFCFFA
:10387400F4010000E84185EBCF41D7A3B841744B74
:103884009C3E00000040640000000C440080C243E1
:1038940000E100000000080000AF43000000000049
:00000001FF
