S00E00006D75736963352E73726563C0
S11300000C94C0000C94DD000C94DD000C942002D0
S11300100C94DD000C94DD000C94DD000C94DD00E8
S11300200C94DD000C94DD000C94DF030C941D048F
S11300300C94DD000C94DD000C94DD000C94DD00C8
S11300400C94DD000C944D020C94DD000C94DD0046
S11300500C94DD000C9464020C94DD000C94DD001F
S11300600C94DD000C94DD000C94DD000C94DD0098
S11300700C94DD000C94DD000C94DD000C94DD0088
S11300800C94DD000C94DD000C94DD000C94DD0078
S11300900C94DD000C94DD000C94DD000C94DD0068
S11300A00C94DD000C94DD000C94DD0005A84CCD0F
S11300B0B2D44EB93836A9020C50B9918688083C9E
S11300C0A6AAAA2ABE000000803F0D0A0000010073
S11300D00064011200020000210143000300001D1E
S11300E001040103090409011202030904010106C0
S11300F003030904F700080803340031003000004A
S11301000006034D003200000012034A002E0020B6
S1130110004600690065006E0065000000040309E4
S11301200409024300020100C03209040000010274
S11301300201000524001001052401010104240228
S11301400605240600010705820310004009040186
S113015000020A00000007050302400000070584AE
S1130160024000001201000202000010C0167A04CE
S11301700001010203010001C11201803601813630
S113018011241FBECFEFDAE0DEBFCDBF11E0A0E047
S1130190B1E0EAE7F1E102C005900D92A830B107A1
S11301A0D9F721E0A8E0B1E001C01D92AF31B20758
S11301B0E1F70E94DF000C94BB080C940000CF937D
S11301C0DF9300D0CDB7DEB7E1E6F0E080E88083CE
S11301D083E080830E946B030E949C0243E067E4F7
S11301E081E00E94AD02E1E8F0E080818B7F8083B2
S11301F0808182608083808181608083808180614E
S11302008083808188608083E0E8F0E08081826080
S1130210808380818160808380818062808380810B
S113022080618083EFE6F0E080818260808378944F
S113023085B5886085BD84B5826084BD84B58160E0
S113024084BD84B5806284BD84B5806184BD85B578
S1130250846085BD85B58D7F85BD85B5816085BD8F
S1130260EEE6F0E08081826080838AE087BD269A92
S113027001E010E00F2EFAE02F2E312CF02D0F2E7E
S1130280F0E8CF2EF4E8DF2EFEE1EF2EF12CF02D76
S113029080911701909118010E94BC058AEC90E0AE
S11302A00E94A20510921A011092190110931A01CA
S11302B000931901EEE0F1E02081EFE0F1E08081AC
S11302C090E0982F8827820F911D909316018093B8
S11302D015018091150190911601B1010E94310818
S11302E07093180160931701209117013091180140
S11302F00024369527950794369527950794322F31
S1130300202D442737FD4095542FC701B6010E9484
S11303104508E8E8F0E031832083269A6A9A8EB192
S1130320F4E08F278EB916BC1092080110920901CF
S113033010920A0110920B01E0E1F1E060818090DB
S1130340080190900901A0900A01B0900B0170E09F
S113035080E090E00E9487062AE939E949EF5FE3EB
S11303600E943707A50194010E94550688234CF486
S11303702698109208011092090110920A01109215
S11303800B0120910C0130910D01E8E8F0E080812F
S113039091812817390708F04EC0808091808091A0
S11303A00C0190910D01608171810E941D08660FFE
S11303B0771F80E090E00E9485062AED3FE049E443
S11303C050E40E9437070E949A072B013C01E8E899
S11303D0F0E00190F081E02DFA83E983B40180E03C
S11303E090E00E94850620E030E040E05FE30E9458
S11303F037074B015C0129813A81B90180E090E023
S11304000E9485069B01AC01C301B2010E9437071B
S113041020E030E040E05FE30E9437079B01AC013D
S1130420C501B4010E94F1050E945906EAE8F0E012
S1130430718360832DCF10920D0110920C0128CF8F
S11304401F920F920FB60F9211242F933F934F9345
S11304505F936F937F938F939F93AF93BF93EF9328
S1130460FF9363E08EE091E00E94030381E090E05B
S113047090931A0180931901FF91EF91BF91AF916D
S11304809F918F917F916F915F914F913F912F91A8
S11304900F900FBE0F901F9018951F920F920FB6DA
S11304A00F9211248F939F9380910C0190910D01D1
S11304B0019690930D0180930C019F918F910F9061
S11304C00FBE0F901F9018951F920F920FB60F92A8
S11304D011242F933F934F935F936F937F938F9345
S11304E09F93AF93BF93EF93FF9360910801709133
S11304F0090180910A0190910B0120E030E040E86D
S11305005FE30E94F10560930801709309018093F1
S11305100A0190930B01FF91EF91BF91AF919F91CD
S11305208F917F916F915F914F913F912F910F9098
S11305300FBE0F901F901895589A599A5A9A8CE0AA
S11305408093B800E9E6F0E0808180628083808156
S11305508F7E8083EA9A789408951F93CF93DF93D4
S1130560182FD62FC42F0E949C0294EA9093BC00AB
S1130570ECEBF0E090819923ECF790E59093BB00CD
S113058094E89093BC00ECEBF0E090819923ECF7B5
S11305909091B900987F903229F484E98093BC004B
S11305A080E02DC081E08093BB0084E88093BC0090
S11305B0ECEBF0E090819923ECF71093BB0084E816
S11305C08093BC00ECEBF0E080818823ECF7D093BF
S11305D0BB0084E88093BC00ECEBF0E080818823CE
S11305E0ECF7C093BB0084E88093BC00ECEBF0E034
S11305F080818823ECF784E98093BC0081E0DF915B
S1130600CF911F9108951F93CF93DF9324EA2093F2
S1130610BC00ECEBF0E020812223ECF721E52093F1
S1130620BB0024E82093BC00ECEBF0E02081222303
S1130630ECF72091B900287F283429F484E98093C9
S1130640BC0080E044C024EC2093BC00ECEBF0E060
S113065020812223ECF71091BB0016130AC0412F0E
S113066050E0415051091416150644F020E030E0E2
S11306701CC084E98093BC0080E029C0DC0120E038
S113068030E0ECEBF0E074ECCBEBD0E07083608115
S11306906623ECF768816D932F5F3F4F241735076E
S11306A0ACF3212F30E02150310944E84093BC00E1
S11306B0ECEBF0E040814423ECF74091BB00FC01FB
S11306C0E20FF31F408384E98093BC0081E0DF9153
S11306D0CF911F91089581E08093D70080EA8093A1
S11306E0D80082E189BD09B400FEFDCF80E9809382
S11306F0D8001092E00010921401109211018CE0C5
S11307008093E20078940895CF93DF93909114013D
S1130710992309F44CC09FB7F89424E02093E9008E
S113072020911201222349F02091E80025FD03C005
S11307309FBF8FEF41C0109212013091E400375EE9
S11307402091E80025FD24C09FBF9091E4009317F9
S113075081F090911401992361F1A9EEB0E044E095
S1130760E8EEF0E0C4EED0E00DC09FBF9881931393
S113077005C081E0809312018FEF1EC09091140197
S11307809923C9F09FB7F8944C93208125FFEDCFAE
S11307908093F1008091E80085FD03C08AE3809393
S11307A0E80085E0809313019FBF80E005C08FEFD0
S11307B003C08FEF01C08FEFDF91CF9108951F9297
S11307C00F920FB60F9211248F939F93EF93FF9381
S11307D0E1EEF0E08081108283FF11C01092E90005
S11307E091E09093EB001092EC0092E19093ED0075
S11307F098E09093F000109214011092110182FF7E
S113080013C080911401882379F080911301882307
S113081059F0815080931301811106C084E08093C4
S1130820E9008AE38093E800FF91EF919F918F9113
S11308300F900FBE0F901F9018951F920F920FB636
S11308400F9211240F931F932F933F934F935F9312
S11308506F937F938F939F93AF93BF93CF93DF93C4
S1130860EF93FF931092E9008091E80083FF4EC15B
S1130870E1EFF0E0C08140812081808130E0382BBD
S11308808081508190E0BC01752BB081A08182EF02
S11308908093E800463009F058C004C081E2809398
S11308A0EB003BC1C6E08DEC90E0FC014591549116
S11308B02417350711F0079623C0FC0132964591A1
S11308C054916417750711F007961AC0FC01349609
S11308D025913491FC01369654918B2F90E09A2BFC
S11308E08F3F910519F010F08FEF90E0851708F411
S11308F0582FA8EEB0E070E16EEFC1EFD0E003C076
S1130900C15099F6CBCF8C91982F9570E1F382FD6D
S113091004C1452F513108F0472F442309F4FAC08C
S1130920F901842F94919883815031968111FACFE3
S11309308FEF840F90E00196280F391F541B6C939E
S11309405111E1CF4031F9F2E8C0453061F48EEF46
S11309508093E800E8EEF0E0808180FFFDCF20681E
S11309602093E300DAC0493009F036C0C1115FC0FA
S11309702093140110921101109213018EEF8093B1
S1130980E80011E086E791E0C9EED0E0ABEEB0E01C
S11309906CEE70E04DEE50E018839C012F5F3F4FEA
S11309A0FC0104910C93002361F0F9012491FB01F3
S11309B020839C012D5F3F4FFC0132968491FA0104
S11309C080831F5F153011F0C901E6CFEAEEF0E035
S11309D08EE180831082A1C0483081F4C03809F0D0
S11309E042C0E8EEF0E0808180FFFDCF80911401E9
S11309F08093F1008EEF8093E8008FC04132B9F408
S1130A00C13A09F040C0E8EEF0E0808180FFFDCFFC
S1130A10E0E0F1E087E091E0A1EFB0E021912C93D8
S1130A20E817F907D9F78EEF8093E80076C04032D3
S1130A30D1F4C13209F043C0E8EEF0E0808182FFD6
S1130A40FDCFE0E0F1E087E091E0A1EFB0E02C9190
S1130A502193E817F907D9F7E8EEF0E08BEF8083EC
S1130A608EEF80835AC0423271F4C13209F04EC015
S1130A7020931101E8EEF0E0808180FFFDCF8EEF3E
S1130A808093E8004AC041111AC0E8EEF0E080818A
S1130A9080FFFDCFC23851F4E9EEF0E0608380912D
S1130AA0EB0085FB882780F9108201C080E0E1EF2C
S1130AB0F0E0808310828EEF8093E8002EC0842FB4
S1130AC08D7F813019F5C23009F5232BF9F46F7746
S1130AD08FEF860F8430D0F48EEF8093E80060931C
S1130AE0E900433021F481E28093EB0016C089E1F0
S1130AF08093EB0081E090E002C0880F991F6A9513
S1130B00E2F7EAEEF0E08083108207C081E280938E
S1130B10EB0003C06C935111F6CEFF91EF91DF917E
S1130B20CF91BF91AF919F918F917F916F915F9181
S1130B304F913F912F911F910F910F900FBE0F90E6
S1130B401F9018951F93CF93DF93EC012196FC011E
S1130B501491112369F01A3019F48DE00E94840372
S1130B60812F0E948403FE01149121961111F3CF69
S1130B70DF91CF911F910895EF92FF920F931F93EE
S1130B80CF93DF93CDB7DEB727970FB6F894DEBFC8
S1130B900FBECDBF8E010F5F1F4F27E0F8011192EA
S1130BA02A95E9F74AE0B8010E9486087E01F8E038
S1130BB0EF0EF11CF80181918F0181110E948403D1
S1130BC00E151F05B9F727960FB6F894DEBF0FBEB2
S1130BD0CDBFDF91CF911F910F91FF90EF900895BA
S1130BE05058BB27AA270ED008C1F9D030F0FED048
S1130BF020F031F49F3F11F41EF4EEC00EF4E095A2
S1130C00E7FBE4C0E92F0AD180F3BA176207730740
S1130C108407950718F071F49EF522C10EF4E0954F
S1130C200B2EBA2FA02D0B01B90190010C01CA01A2
S1130C30A0011124FF27591B99F0593F50F4503E4D
S1130C4068F11A16F040A22F232F342F4427585F3F
S1130C50F3CF469537952795A795F0405395C9F757
S1130C607EF41F16BA0B620B730B840BBAF091500F
S1130C70A1F0FF0FBB1F661F771F881FC2F70EC0AE
S1130C80BA0F621F731F841F48F487957795679581
S1130C90B795F7959E3F08F0B3CF9395880F08F06A
S1130CA09927EE0F9795879508956CD008F481E005
S1130CB00895BCD088F09F5790F0B92F9927B75169
S1130CC0A0F0D1F0660F771F881F991F1AF0BA950C
S1130CD0C9F712C0B13081F0C3D0B1E00895C0C0EB
S1130CE0672F782F8827B85F39F0B93FCCF3869502
S1130CF077956795B395D9F73EF49095809570955F
S1130D0061957F4F8F4F9F4F0895E89409C097FBDB
S1130D103EF490958095709561957F4F8F4F9F4FCE
S1130D209923A9F0F92F96E9BB279395F695879512
S1130D3077956795B795F111F8CFFAF4BB0F11F4D5
S1130D4060FF1BC06F5F7F4F8F4F9F4F16C088237C
S1130D5011F096E911C0772321F09EE8872F762FB2
S1130D6005C0662371F096E8862F70E060E02AF0F3
S1130D709A95660F771F881FDAF7880F96958795DF
S1130D8097F90895990F0008550FAA0BE0E8FEEFB4
S1130D9016161706E807F907C0F012161306E4073B
S1130DA0F50798F0621B730B840B950B39F40A2634
S1130DB061F0232B242B252B21F408950A2609F412
S1130DC0A140A6958FEF811D811D089597F99F6716
S1130DD080E870E060E008959FEF80EC08950024BF
S1130DE00A941616170618060906089500240A948C
S1130DF012161306140605060895092E0394000C12
S1130E0011F4882352F0BB0F40F4BF2B11F460FFA0
S1130E1004C06F5F7F4F8F4F9F4F089557FD9058C9
S1130E20440F551F59F05F3F71F04795880F97FBAA
S1130E30991F61F09F3F79F0879508951216130664
S1130E401406551FF2CF4695F1DF08C01616170693
S1130E501806991FF1CF86957105610508940895C8
S1130E60E894BB2766277727CB0197F908950BD021
S1130E70C4CFB5DF28F0BADF18F0952309F0A6CF68
S1130E80ABCF1124EECFCADFA0F3959FD1F3950F1A
S1130E9050E0551F629FF001729FBB27F00DB11DFA
S1130EA0639FAA27F00DB11DAA1F649F6627B00D8A
S1130EB0A11D661F829F2227B00DA11D621F739F73
S1130EC0B00DA11D621F839FA00D611D221F749F81
S1130ED03327A00D611D231F849F600D211D822FC8
S1130EE0762F6A2F11249F5750408AF0E1F088230F
S1130EF04AF0EE0FFF1FBB1F661F771F881F91501C
S1130F005040A9F79E3F510570F060CFAACF5F3FD4
S1130F10ECF3983EDCF3869577956795B795F7954E
S1130F20E7959F5FC1F7FE2B880F911D96958795D6
S1130F3097F908959F9305D00F9007FCEE5F28C0A2
S1130F404BCF74DFE8F3E894E0E0BB279F57F0F061
S1130F502AED3FE049EC06C0EE0FBB0F661F771F7A
S1130F60881F28F0B23A62077307840728F0B25A40
S1130F70620B730B840BE3959A9572F7803830F407
S1130F809A95BB0F661F771F881FD2F7904813C02E
S1130F90EF93E0FF06C0A2EA2AED3FE049EC5FEBE5
S1130FA031DE2BDF0F90039401FC9058ECEAF0E063
S1130FB00EC09F3F31F0915020F487957795679547
S1130FC0B795880F911D9695879597F908959F93E6
S1130FD08F937F936F93FF93EF939B01AC0147DF54
S1130FE0EF91FF9105D02F913F914F915F913FCFAA
S1130FF0DF93CF931F930F93FF92EF92DF927B01C6
S11310008C01689405C0DA2EEF013DDFFE01E894FF
S1131010A5912591359145915591AEF3EF01F2DDFE
S1131020FE019701A801DA9479F7DF90EF90FF9021
S11310300F911F91CF91DF910895AA1BBB1B51E122
S113104007C0AA1FBB1FA617B70710F0A61BB70B34
S1131050881F991F5A95A9F780959095BC01CD01D9
S1131060089597FB072E16F4009407D077FD09D056
S11310700E941D0807FC05D03EF4909581959F4F72
S11310800895709561957F4F0895052E97FB1EF482
S113109000940E945C0857FD07D00E94640807FC76
S11310A003D04EF40C945C085095409530952195EE
S11310B03F4F4F4F5F4F0895909580957095619580
S11310C07F4F8F4F9F4F0895A1E21A2EAA1BBB1B7F
S11310D0FD010DC0AA1FBB1FEE1FFF1FA217B30700
S11310E0E407F50720F0A21BB30BE40BF50B661F16
S11310F0771F881F991F1A9469F7609570958095DA
S113110090959B01AC01BD01CF010895BB274A30E6
S113111031F4992322F4BDE2909581959F4F0C946C
S11311209208BB27FB015527AA27880F991FAA1FDE
S1131130A41710F0A41B83955051B9F7A05DAA33EE
S113114008F0A95DA193009779F7B111B1931192B9
S1131150CB010C94AB08DC01FC01672F7191772360
S1131160E1F7329704C07C916D9370836291AE175E
S10D1170BF07C8F30895F894FFCFF9
S10B117A00E100000000080080
S9030000FC
