:100000000C94E1000C94FE000C94FE000C94FE0095
:100010000C94FE000C94FE000C94FE000C94FE0068
:100020000C94FE000C94FE000C9474010C94B2012C
:100030000C94FE000C94FE000C94FE000C94FE0048
:100040000C94FE000C94FE000C94FE000C94FE0038
:100050000C94FE000C94FE000C94FE000C94FE0028
:100060000C94FE000C94FE000C94FE000C94FE0018
:100070000C94FE000C947C040C94FE000C94FE0086
:100080000C94FE000C94FE000C94FE000C94FE00F8
:100090000C94FE000C94FE000C94FE000C94FE00E8
:1000A0000C94FE000C94FE000C94FE00BA04CB04E9
:1000B000DC04ED04FE040F052005310500010000FD
:1000C00053011200020000100143000300000C0164
:1000D0000401030904F8001202030904F0000603F6
:1000E000030904E600080803340031003000000072
:1000F00006034D003200000012034A002E002000CB
:100100004600690065006E006500000004030904F4
:1001100009024300020100C032090400000102028A
:100120000100052400100105240101010424020638
:1001300005240600010705820310004009040100A0
:10014000020A0000000705030240000007058402C0
:100150004000001201000202000010C0167A0400E4
:1001600001010203010001C1120180360181360D37
:100170000A0050686F5B375D000D0A0050686F5BC6
:10018000365D000D0A0050686F5B355D000D0A009A
:1001900050686F5B345D000D0A0050686F5B335D23
:1001A000000D0A0050686F5B325D000D0A00506858
:1001B0006F5B315D000D0A0050686F5B305D000DB4
:1001C0000A0011241FBECFEFDAE0DEBFCDBF11E081
:1001D000A0E0B1E0E2E2FBE002C005900D92A830A1
:1001E000B107D9F721E0A8E0B1E001C01D92AE311E
:1001F000B207E1F70E9485030C948F050C94000070
:1002000081E08093D70080EA8093D80082E189BDA5
:1002100009B400FEFDCF80E98093D8001092E00081
:1002200010920B01109208018CE08093E200789408
:100230000895CF93DF9390910B01992309F44CC05B
:100240009FB7F89424E02093E9002091090122232C
:1002500049F02091E80025FD03C09FBF8FEF41C00A
:10026000109209013091E400375E2091E80025FDED
:1002700024C09FBF9091E400931781F090910B01EF
:10028000992361F1A9EEB0E044E0E8EEF0E0C4EEBD
:10029000D0E00DC09FBF9881931305C081E080938B
:1002A00009018FEF1EC090910B019923C9F09FB7F0
:1002B000F8944C93208125FFEDCF8093F10080913D
:1002C000E80085FD03C08AE38093E80085E0809321
:1002D0000A019FBF80E005C08FEF03C08FEF01C010
:1002E0008FEFDF91CF9108951F920F920FB60F926B
:1002F00011248F939F93EF93FF93E1EEF0E08081C1
:10030000108283FF11C01092E90091E09093EB00FE
:100310001092EC0092E19093ED0098E09093F00041
:1003200010920B011092080182FF13C080910B0103
:10033000882379F080910A01882359F081508093B5
:100340000A01811106C084E08093E9008AE380936A
:10035000E800FF91EF919F918F910F900FBE0F904A
:100360001F9018951F920F920FB60F9211240F93A2
:100370001F932F933F934F935F936F937F938F932D
:100380009F93AF93BF93CF93DF93EF93FF9310921D
:10039000E9008091E80083FF4EC1E1EFF0E0C08109
:1003A00040812081808130E0382B8081508190E035
:1003B000BC01752BB081A08182EF8093E8004630AC
:1003C00009F058C004C081E28093EB003BC1C6E055
:1003D0008CEB90E0FC01459154912417350711F006
:1003E000079623C0FC013296459154916417750716
:1003F00011F007961AC0FC01349625913491FC0146
:10040000369654918B2F90E09A2B8F3F910519F0DF
:1004100010F08FEF90E0851708F4582FA8EEB0E0A9
:1004200070E16EEFC1EFD0E003C0C15099F6CBCFC1
:100430008C91982F9570E1F382FD04C1452F5131C5
:1004400008F0472F442309F4FAC0F901842F94914E
:100450009883815031968111FACF8FEF840F90E00D
:100460000196280F391F541B6C935111E1CF403175
:10047000F9F2E8C0453061F48EEF8093E800E8EED1
:10048000F0E0808180FFFDCF20682093E300DAC098
:10049000493009F036C0C1115FC020930B011092A2
:1004A000080110920A018EEF8093E80011E085E6C2
:1004B00091E0C9EED0E0ABEEB0E06CEE70E04DEE56
:1004C00050E018839C012F5F3F4FFC0104910C9377
:1004D000002361F0F9012491FB0120839C012D5F31
:1004E0003F4FFC0132968491FA0180831F5F1530E3
:1004F00011F0C901E6CFEAEEF0E08EE180831082D0
:10050000A1C0483081F4C03809F042C0E8EEF0E004
:10051000808180FFFDCF80910B018093F1008EEFF1
:100520008093E8008FC04132B9F4C13A09F040C06D
:10053000E8EEF0E0808180FFFDCFE0E0F1E087E0D1
:1005400091E0A1EFB0E021912C93E817F907D9F7DA
:100550008EEF8093E80076C04032D1F4C13209F0CA
:1005600043C0E8EEF0E0808182FFFDCFE0E0F1E003
:1005700087E091E0A1EFB0E02C912193E817F90713
:10058000D9F7E8EEF0E08BEF80838EEF80835AC0DE
:10059000423271F4C13209F04EC020930801E8EEF6
:1005A000F0E0808180FFFDCF8EEF8093E8004AC0AD
:1005B00041111AC0E8EEF0E0808180FFFDCFC23823
:1005C00051F4E9EEF0E060838091EB0085FB882731
:1005D00080F9108201C080E0E1EFF0E080831082BA
:1005E0008EEF8093E8002EC0842F8D7F813019F527
:1005F000C23009F5232BF9F46F778FEF860F843023
:10060000D0F48EEF8093E8006093E900433021F44A
:1006100081E28093EB0016C089E18093EB0081E0DA
:1006200090E002C0880F991F6A95E2F7EAEEF0E0C9
:100630008083108207C081E28093EB0003C06C933B
:100640005111F6CEFF91EF91DF91CF91BF91AF9114
:100650009F918F917F916F915F914F913F912F91DA
:100660001F910F910F900FBE0F901F9018951F9321
:10067000CF93DF93EC012196FC011491112369F0D3
:100680001A3019F48DE00E941901812F0E9419017E
:10069000FE01149121961111F3CFDF91CF911F919B
:1006A0000895EF92FF920F931F93CF93DF93CDB7EF
:1006B000DEB727970FB6F894DEBF0FBECDBF8E0111
:1006C0000F5F1F4F27E0F80111922A95E9F74AE0E2
:1006D000B8010E945A057E01F8E0EF0EF11CF80106
:1006E00081918F0181110E9419010E151F05B9F723
:1006F00027960FB6F894DEBF0FBECDBFDF91CF9126
:100700001F910F91FF90EF9008950E940001E1E684
:10071000F0E080E880831082CCE7D0E088818F779A
:100720008883888180648883AAE7B0E08C918460A4
:100730008C938C9182608C938C9181608C93EEE78A
:10074000F0E080818160808380818260808380810D
:1007500080618083808180628083808180648083E7
:10076000808180688083EDE7F0E080818160808314
:10077000808182608083EBE7F0E080818F7D8083E1
:1007800088818B7F888388818D7F888388818E7F15
:1007900088838C9180628C938C9188608C93789400
:1007A000EAE7F0E0808180688083808180648083D4
:1007B0006894332436F80F2EFEE0AF2EF1E0BF2E02
:1007C000F02D0F2EF0E1CF2EF1E0DF2EF02D0F2EC9
:1007D000F2E1EF2EF1E0FF2EF02D04E111E0C6E191
:1007E000D1E00F2EF8E18F2EF1E09F2EF02D0F2E8D
:1007F000FAE16F2EF1E07F2EF02D0F2EFCE14F2E4F
:10080000F1E05F2EF02D6E9A8EB183258EB98FEBBD
:1008100091E00E94370388EB91E00E943703F501D5
:10082000808191810E94510385EB91E00E94370302
:100830008EEA91E00E943703F601808191810E9447
:1008400051038BEA91E00E94370384EA91E00E9411
:100850003703F701808191810E94510381EA91E081
:100860000E9437038AE991E00E943703F8018081F2
:1008700091810E94510387E991E00E94370380E94A
:1008800091E00E943703888199810E9451038DE88D
:1008900091E00E94370386E891E00E943703F4015B
:1008A000808191810E94510383E891E00E94370387
:1008B0008CE791E00E943703F301808191810E94CF
:1008C000510389E791E00E94370382E791E00E949B
:1008D0003703F201808191810E9451038FE691E0FC
:1008E0000E943703FFE926E881E0F1502040804074
:1008F000E1F700C0000087CF1F920F920FB60F9252
:1009000011242F933F938F939F93EF93FF936A9AB2
:100910009EB184E089278EB980910C0190910D01E0
:100920002091780030917900FC01EE0FFF1FE25F0B
:10093000FE4F318320830196883091052CF49093EB
:100940000D0180930C0104C010920D0110920C0156
:10095000EAE7F0E080818F77808380910C019091AD
:100960000D018830910508F08CC0FC01EA5AFF4F58
:100970000C945405EBE7F0E080818F7D8083ECE7F9
:10098000F0E080818B7F808380818D7F8083808178
:100990008E7F808376C0EBE7F0E080818F7D80835F
:1009A000ECE7F0E080818B7F808380818D7F808386
:1009B00080818160808365C0EBE7F0E080818F7D7E
:1009C0008083ECE7F0E080818460808380818D7F8C
:1009D000808380818E7F808354C0EBE7F0E080814C
:1009E0008F7D8083ECE7F0E080818460808380816C
:1009F0008D7F808380818160808343C0EBE7F0E05E
:100A000080818F7D8083ECE7F0E08081846080834B
:100A100080818260808380818E7F808332C0EBE71B
:100A2000F0E080818F7D8083ECE7F0E0808184605E
:100A3000808380818260808380818160808321C007
:100A4000EBE7F0E0808180628083ECE7F0E080817A
:100A50008B7F808380818D7F808380818E7F808368
:100A600010C0EBE7F0E0808180628083ECE7F0E08B
:100A700080818B7F808380818D7F80838081816076
:100A80008083EAE7F0E080818068808380818064F1
:100A90008083FF91EF919F918F913F912F910F90C4
:100AA0000FBE0F901F901895EE0FFF1F0590F49149
:100AB000E02D0994BB274A3031F4992322F4BDE29A
:100AC000909581959F4F0C946605BB27FB01552798
:100AD000AA27880F991FAA1FA41710F0A41B83959B
:100AE0005051B9F7A05DAA3308F0A95DA193009712
:100AF00079F7B111B1931192CB010C947F05DC0110
:100B0000FC01672F71917723E1F7329704C07C9144
:100B10006D9370836291AE17BF07C8F30895F89480
:020B2000FFCF05
:080B220000E1000000000800E2
:00000001FF
